:020000040800F2
:1000000000500020DD120008F11000080D1100085A
:10001000631100086B110008731100080000000054
:100020000000000000000000000000007B1100083C
:1000300083110008000000008B1100081D2E00082D
:10004000931100089B110008A3110008AB110008D0
:10005000B3110008BB11000835100008C3110008D7
:10006000CB110008D3110008DB110008E3110008D0
:10007000EB110008F3110008FB110008031200083F
:100080000B120008131200081B12000823120008AC
:100090002B120008331200083B120008431200081C
:1000A0004B120008531200085B120008631200088C
:1000B000792A00086B120008731200087B120008EE
:1000C000831200088B120008931200089B1200088C
:1000D000A3120008AB120008B3120008BB120008FC
:0C00E000C3120008CB120008D312000865
:1000EC0080F0004002E000BF81F0004142001FBFE1
:1000FC005FEA410392EA030F7FEA226C7FEA236CEA
:10010C006AD04FEA1262D2EB1363C1BFD2184140DE
:10011C0048404140B8BF5B42192B88BF704710F074
:10012C00004F40F4000020F07F4018BF404211F017
:10013C00004F41F4000121F07F4118BF494292EA7F
:10014C00030F3FD0A2F1010241FA03FC10EB0C00AB
:10015C00C3F1200301FA03F100F0004302D5494238
:10016C0060EB4000B0F5000F13D3B0F1807F06D3E5
:10017C0040084FEA310102F10102FE2A51D2B1F1DD
:10018C00004F40EBC25008BF20F0010040EA0300D2
:10019C007047490040EB0000013A28BFB0F5000F52
:1001AC00EDD2B0FA80FCACF1080CB2EB0C0200FA08
:1001BC000CF0AABF00EBC25052421843BCBFD04057
:1001CC001843704792F0000F81F4000106BF80F4D1
:1001DC0000000132013BB5E74FEA41037FEA226C94
:1001EC0018BF7FEA236C21D092EA030F04D092F05F
:1001FC00000F08BF0846704790EA010F1CBF002093
:10020C00704712F07F4F04D1400028BF40F00040EF
:10021C00704712F100723CBF00F50000704700F00F
:10022C00004343F0FE4040F4000070477FEA226236
:10023C0016BF08467FEA23630146420206BF5FEA07
:10024C00412390EA010F40F4800070474FF0000307
:10025C0004E000BF10F0004348BF40425FEA000CCE
:10026C0008BF704743F0964301464FF000001CE076
:10027C0050EA010208BF70474FF000030AE000BFCC
:10028C0050EA010208BF704711F0004302D540420A
:10029C0061EB41015FEA010C02BF8446014600207C
:1002AC0043F0B64308BFA3F18053A3F50003BCFA97
:1002BC008CF2083AA3EBC25310DB01FA02FC634444
:1002CC0000FA02FCC2F12002BCF1004F20FA02F24B
:1002DC0043EB020008BF20F00100704702F120023E
:1002EC0001FA02FCC2F1200250EA4C0021FA02F29F
:1002FC0043EB020008BF20EADC7070474FF0FF0CA4
:10030C001CEAD0521EBF1CEAD15392EA0C0F93EA9E
:10031C000C0F6FD01A4480EA010C400218BF5FEA40
:10032C0041211ED04FF0006343EA501043EA5111B3
:10033C00A0FB01310CF00040B1F5000F3EBF4900AD
:10034C0041EAD3715B0040EA010062F17F02FD2AB1
:10035C001DD8B3F1004F40EBC25008BF20F0010094
:10036C00704790F0000F0CF0004C08BF49024CEAAB
:10037C00502040EA51207F3AC2BFD2F1FF0340EA3D
:10038C00C250704740F400004FF00003013A5DDCAE
:10039C0012F1190FDCBF00F000407047C2F10002EF
:1003AC00410021FA02F1C2F1200200FA02FC5FEADC
:1003BC00310040F1000053EA4C0308BF20EADC7026
:1003CC00704792F0000F00F0004C02BF400010F498
:1003DC00000F013AF9D040EA0C0093F0000F01F045
:1003EC00004C02BF490011F4000F013BF9D041EA67
:1003FC000C018FE70CEAD15392EA0C0F18BF93EA69
:10040C000C0F0AD030F0004C18BF31F0004CD8D192
:10041C0080EA010000F00040704790F0000F17BF19
:10042C0090F0004F084691F0000F91F0004F14D05F
:10043C0092EA0C0F01D142020FD193EA0C0F03D1B7
:10044C004B0218BF084608D180EA010000F00040BA
:10045C0040F0FE4040F40000704740F0FE4040F495
:10046C00400070474FF0FF0C1CEAD0521EBF1CEA34
:10047C00D15392EA0C0F93EA0C0F69D0A2EB030252
:10048C0080EA010C49024FEA402037D04FF08053EC
:10049C0043EA111143EA10130CF000408B4238BFB1
:1004AC005B0042F17D024FF4000C8B4224BF5B1ABF
:1004BC0040EA0C00B3EB510F24BFA3EB510340EA0D
:1004CC005C00B3EB910F24BFA3EB910340EA9C00BB
:1004DC00B3EBD10F24BFA3EBD10340EADC001B012B
:1004EC0018BF5FEA1C1CE0D1FD2A3FF650AF8B42CF
:1004FC0040EBC25008BF20F0010070470CF0004CDC
:10050C004CEA50207F32C2BFD2F1FF0340EAC25006
:10051C00704740F400004FF00003013A37E792F0C7
:10052C00000F00F0004C02BF400010F4000F013A25
:10053C00F9D040EA0C0093F0000F01F0004C02BF20
:10054C00490011F4000F013BF9D041EA0C0195E789
:10055C000CEAD15392EA0C0F08D142027FF47DAF22
:10056C0093EA0C0F7FF470AF084676E793EA0C0F12
:10057C0004D14B023FF44CAF08466EE730F0004C10
:10058C0018BF31F0004CCAD130F000427FF45CAFA0
:10059C0031F000437FF43CAF5FE700BF4FF0FF3C0E
:1005AC0006E000BF4FF0010C02E000BF4FF0010C61
:1005BC004DF804CD4FEA40024FEA41037FEA226C2A
:1005CC0018BF7FEA236C11D001B052EA530C18BF4C
:1005DC0090EA010F58BFB2EB030088BFC81738BFB1
:1005EC006FEAE17018BF40F0010070477FEA226C9F
:1005FC0002D15FEA402C05D17FEA236CE4D15FEA9B
:10060C00412CE1D05DF8040B704700BF84460846CE
:10061C006146FFE70FB5FFF7C9FF002848BF10F18F
:10062C00000F0FBD4DF808EDFFF7F4FF0CBF0120D4
:10063C0000205DF808FB00BF4DF808EDFFF7EAFF5E
:10064C0034BF012000205DF808FB00BF4DF808ED19
:10065C00FFF7E0FF94BF012000205DF808FB00BF0E
:10066C004DF808EDFFF7D2FF94BF012000205DF894
:10067C0008FB00BF4DF808EDFFF7C8FF34BF0120A1
:10068C0000205DF808FB00BF4FEA4002B2F1FE4FBC
:10069C000FD34FF09E03B3EB12620DD94FEA002338
:1006AC0043F0004310F0004F23FA02F018BF404211
:1006BC0070474FF00000704712F1610F01D14202F8
:1006CC0005D110F0004008BF6FF0004070474FF0AC
:1006DC000000704780B584B000AF0346FB80B7F9CB
:1006EC000630FB60FB68002B05DA2D2002F04AFC7B
:1006FC00FB685B42FB60FB68184602F0A1FC00BF84
:10070C001037BD4680BD000080B586B000AF786064
:10071C004FF000017868FFF78FFF0346002B10D0D5
:10072C002A497868FFF7EAFD03464FF07C511846DA
:10073C00FFF7DAFC03461846FFF7A6FF03467B617A
:10074C000FE022497868FFF7D9FD03464FF07C5142
:10075C001846FFF7CBFC03461846FFF795FF0346F8
:10076C007B617B69002B06DA2D2002F00BFC7B6988
:10077C005B423B6101E07B693B613B69144AA2FB34
:10078C0003239B09184602F05BFC2E2002F0FAFBB7
:10079C003B690F4AA2FB031292094FF47A7101FBD9
:1007AC0002F29B1AFB60FB68632B02D8302002F02C
:1007BC00E9FBFB68092B02D8302002F0E3FBF86858
:1007CC0002F03EFC00BF1837BD4680BD00007A44E5
:1007DC00D34D621080B582B000AF0346FB800B4650
:1007EC00BB8013467B80B7F906301846FFF772FFC3
:1007FC002C2002F0C7FBB7F904301846FFF76AFF4C
:10080C002C2002F0BFFBB7F902301846FFF762FF4D
:10081C0000BF0837BD4680BD80B584B000AFF8601E
:10082C00B9607A60F868FFF76FFF2C2002F0AAFB22
:10083C00B868FFF769FF2C2002F0A4FB7868FFF77B
:10084C0063FF00BF1037BD4680BD000080B582B08D
:10085C0000AF78601C4802F0B7FB7B681B68184639
:10086C0002F0EEFB194802F0AFFB7B685B681846A0
:10087C0002F0E6FB164802F0A7FB7B68B3F90C000C
:10088C007B68B3F90E107B68B3F910301A46FFF78A
:10089C00A1FF104802F098FB7B68186B7B68596BC2
:1008AC007B689B6B1A46FFF7B7FF0B4802F08CFB7B
:1008BC007B689B68184602F00FFC084802F084FB2A
:1008CC0000BF0837BD4680BD183600082C3600081E
:1008DC00343600083C3600084C3600085436000804
:1008EC0080B582B000AF7860044B1B78DBB2002B74
:1008FC0002D1786802F08AFB00BFFDE71B000020E4
:10090C00B0B5B8B000AF00F0BFFB02F07DF9034604
:10091C001A469D4B1A709C4B1B78DBB2002B01D0F6
:10092C0000BFFDE702F0FCF90346184602F016FA88
:10093C0003461A46954B1A70944B1B78DBB2002B6E
:10094C0001D000BFFDE702F0F5F9C7F8D80002F0BE
:10095C00E7F90246D7F8D830934203D0D7F8D8300D
:10096C005B0001E0D7F8D830C7F8D430D7F8D40002
:10097C0001F0B4FF03461A46854B1A70844B1B7862
:10098C00DBB2002B01D000BFFDE702F0DDF903461E
:10099C004FF4E131184602F071FA03461A467D4BCA
:1009AC001A707C4B1B78DBB2002B05D17A4802F015
:1009BC002DFB7A4802F02AFBD7F8D80000F090F90A
:1009CC0003461A46764B1A70754B1B78DBB2002B1C
:1009DC001CD0704B1B78DBB2002B14D1714802F089
:1009EC00F3FA6F4B1B78DBB2184602F029FB6E480A
:1009FC0002F0EAFA00F00EFB0346184602F020FB68
:100A0C006A4802F0E1FA6A48FFF76AFF02F074FCE8
:100A1C00684B18463C231A46002100F07FFB5D4BC7
:100A2C001B78DBB2002B02D1634802F0EFFA0023F3
:100A3C00C7F8DC30574B1B78DBB2002B19D15F4861
:100A4C0002F0C2FA00F006FF0346184602F044FB1F
:100A5C0000F014FF0346002B08D0594802F0B4FAFA
:100A6C0000F002FF0346184602F036FB4F4802F036
:100A7C00ABFA484B1B78DBB2002B02D1514802F089
:100A8C00C5FA00F089F903461A46454B1A70444BD7
:100A9C001B78DBB2002B02D04B48FFF721FF00F094
:100AAC00A1F903461A463E4B1A703D4B1B78DBB23C
:100ABC00002B5AD107F1B003184600F059FA03463F
:100ACC00002B52D0414B1D4607F1B0040FCC0FC583
:100ADC000FCC0FC523682B60D7F8BC3003F0010393
:100AEC00002B42D0D7F8B030C7F8A030D7F8B430CC
:100AFC00C7F8A430B7F9C030A7F8A830B7F9C2309E
:100B0C00A7F8AA30B7F9C430A7F8AC3007F16402E3
:100B1C0007F1A0031146184602F0FEFB0346002B1A
:100B2C0023D0244B1D4607F164040FCC0FC50FCC0A
:100B3C000FC50FCC0FC594E8070085E80700D7F860
:100B4C00DC300133C7F8DC30D7F8DC30312B0CD972
:100B5C000023C7F8DC300F4B1B78DBB2002B04D121
:100B6C0007F164031846FFF771FE194C3B46184613
:100B7C0000F026FA25463C460FCC0FC50FCC0FC50E
:100B8C0023682B6000BF8AE71800002019000020A2
:100B9C001A0000201B000020583600087C36000884
:100BAC001C000020A4360008C83600085436000883
:100BBC00D8360008680000200C37000844370008BD
:100BCC0054370008603700088037000820000020E8
:100BDC004400002080B483B000AFEFF3108372B6F2
:100BEC007B607B6818460C37BD4680BC704780B470
:100BFC0083B000AF78607B6803F00103002B00D159
:100C0C0062B600BF0C37BD4680BC704780B483B061
:100C1C0000AF2A4B1B68294A43F005031360274B8E
:100C2C001B68274B1B687B607B6823F00F037B6082
:100C3C007B6843F004037B60214A7B681360214B83
:100C4C001B68204A23F00F0313601F4B1B681E4ABE
:100C5C0023F0010313601D4B1B681C4A23F0010396
:100C6C0013601B4B1B681A4A43F001031360194BAA
:100C7C0001221A60184B50221A70184B40221A602D
:100C8C000F4B1B6803F00F03042B0DD10D4B1B688E
:100C9C0003F00F03002B07D10D4B1B6803F001036E
:100CAC00002B01D0012300E0002303F00103DBB291
:100CBC0018460C37BD4680BC704700BF1810024068
:100CCC000008014008000140000401400C040140F0
:100CDC00080401401404014006E400E000E100E0D7
:100CEC0080B596B000AF7860FFF774FF7865224B43
:100CFC0000221A60214B00221A60214B00221A603C
:100D0C00204B00221A70204B184624231A4600212F
:100D1C0000F004FA1D4B184624231A46002100F05B
:100D2C00FDF91B4B00221A70786DFFF760FF194913
:100D3C00786801F04BFC0346002B01D0032317E02D
:100D4C00682000F0EFFB03461A46114B1A70104B4B
:100D5C001B78002B01D004230AE0FFF757FF034652
:100D6C0083F00103DBB2002B01D0052300E000234C
:100D7C0018465837BD4680BDA4000020A8000020AE
:100D8C00AC000020D4000020D8000020B0000020CF
:100D9C00FC000020801A060080B500AF0E4B01222B
:100DAC001A600E4B1B680D4A43F00103136000F0F0
:100DBC00D5FC03461A460A4B1A70094B1B78002BBC
:100DCC0007D0064B1B68054A23F001031360072369
:100DDC0000E00023184680BD1404014000040140CB
:100DEC00FC000020B0B590B000AFFFF7F3FEF86345
:100DFC00584B1B68BB63584B1B687B63554B0022DD
:100E0C001A60F86BFFF7F3FEBB6B002B01D10123CB
:100E1C009BE0BB6B012B06D9504B9A68BB6B134400
:100E2C00013B4E4A93604E4B07F10C041D460FCD0F
:100E3C000FC40FCD0FC42B682360BB6923F00503CF
:100E4C00BB6107F10C031033184600F093FC03460A
:100E5C001A46444B1A70434B1B78002B06D03F4B61
:100E6C00DB6801333D4AD36006236EE07B6B3B614C
:100E7C00BB6943F00103BB6100F000FD0346002B8E
:100E8C0037D007F10C031E33184600F0D9FC03468B
:100E9C0087F8333097F83330002B08D101F09AFDE6
:100EAC0003467B61BB6943F00603BB612CE097F8FA
:100EBC003330052B05D1294BDB690133274AD3612C
:100ECC0022E097F83330062B09D1244B1B6A0133EF
:100EDC00224A1362BB6923F00203BB6114E01F4B6F
:100EEC00DB6801331D4AD3601E4A97F83330137008
:100EFC000AE007F12A0300221A609A8000237B6122
:100F0C00BB6923F00603BB61154B1B680133FB6007
:100F1C00FFF760FEF863124B1D4607F10C040FCC73
:100F2C000FC50FCC0FC523682B600F4B01221A7015
:100F3C000A4B5B680133094A53600C4B1B68074A28
:100F4C001360F86BFFF753FE002318464037BD467D
:100F5C00B0BD00BFA4000020A8000020D8000020D5
:100F6C00B0000020FC000020D4000020AC000020C9
:100F7C00B0B584B000AF78607B68002B01D1002342
:100F8C0016E0FFF727FEF8600B4B1B78FB72FB7A21
:100F9C00002B09D07B68094A1C4615460FCD0FC49F
:100FAC000FCD0FC42B682360F868FFF720FEFB7A87
:100FBC0018461037BD46B0BDD4000020B00000204C
:100FCC00B0B58CB000AF7860FFF704FEF8620F4B41
:100FDC0007F108041D460FCD0FC40FCD0FC42B68AD
:100FEC0023600B4B1B68BB60F86AFFF700FE7B6845
:100FFC001D4607F108040FCC0FC50FCC0FC5236895
:10100C002B6078683037BD46B0BD00BFD8000020DB
:10101C00AC00002080B400AF024B1B781846BD46D4
:10102C0080BC7047FC00002080B500AF0F4B1B68E4
:10103C0003F00103002B16D00C4B01221A6001F0B7
:10104C00C9FC03460A4A13600A4B1B68B3F1FF3F05
:10105C0004D0084B1B680133064A1360064B1B680F
:10106C000133054A136000BF80BD00BF140401406A
:10107C00A8000020A4000020AC00002080B400AF29
:10108C0072B600BFFDE7000080B485B000AF0D4B19
:10109C00BB6013237B600023FB6008E0FB689B00B4
:1010AC00BA68134400221A60FB680133FB60FA68CB
:1010BC007B689A42F2D300BF00BF1437BD4680BC98
:1010CC00704700BF0001002080B500AF034B012228
:1010DC005A60024B024A1A60FFF7D0FF0001002051
:1010EC004C55414680B500AF034B02225A60024B6F
:1010FC00024A1A60FFF7C2FF000100204C5541461E
:10110C0080B500AF034B03225A60024B024A1A60AF
:10111C00FFF7B4FF000100204C55414680B487B066
:10112C0000AFF860B9607A60FB687B61BB68FB74E8
:10113C0008E07B69FA7C1A707B6901337B617B6800
:10114C00013B7B607B68002BF3D1FB6818461C3796
:10115C00BD4680BC704780B500AFFFF7B5FF80B5CA
:10116C0000AFFFF7B1FF80B500AFFFF7ADFF80B563
:10117C0000AFFFF7A9FF80B500AFFFF7A5FF80B563
:10118C0000AFFFF7A1FF80B500AFFFF79DFF80B563
:10119C0000AFFFF799FF80B500AFFFF795FF80B563
:1011AC0000AFFFF791FF80B500AFFFF78DFF80B563
:1011BC0000AFFFF789FF80B500AFFFF785FF80B563
:1011CC0000AFFFF781FF80B500AFFFF77DFF80B563
:1011DC0000AFFFF779FF80B500AFFFF775FF80B563
:1011EC0000AFFFF771FF80B500AFFFF76DFF80B563
:1011FC0000AFFFF769FF80B500AFFFF765FF80B563
:10120C0000AFFFF761FF80B500AFFFF75DFF80B562
:10121C0000AFFFF759FF80B500AFFFF755FF80B562
:10122C0000AFFFF751FF80B500AFFFF74DFF80B562
:10123C0000AFFFF749FF80B500AFFFF745FF80B562
:10124C0000AFFFF741FF80B500AFFFF73DFF80B562
:10125C0000AFFFF739FF80B500AFFFF735FF80B562
:10126C0000AFFFF731FF80B500AFFFF72DFF80B562
:10127C0000AFFFF729FF80B500AFFFF725FF80B562
:10128C0000AFFFF721FF80B500AFFFF71DFF80B562
:10129C0000AFFFF719FF80B500AFFFF715FF80B562
:1012AC0000AFFFF711FF80B500AFFFF70DFF80B562
:1012BC0000AFFFF709FF80B500AFFFF705FF80B562
:1012CC0000AFFFF701FF80B500AFFFF7FDFE000098
:1012DC0080B582B000AF124B7B60124B3B6009E0D3
:1012EC007B681A683B681A607B6804337B603B68D8
:1012FC0004333B603B680C4A9342F1D30B4B3B608D
:10130C0005E03B6800221A603B6804333B603B6895
:10131C00074A9342F5D3FFF7F3FAFFF7D5FE00BF68
:10132C00C037000800000020180000201800002022
:10133C003802002080B483B000AF03463960FB71E3
:10134C00054AFB791370044A3B68136100BF0C37E4
:10135C00BD4680BC704700BF5401002080B586B0EC
:10136C0000AFBA607B600346FB730B46BB730F4B3D
:10137C0002225A700D4AFB7B13720C4ABB7B5372D0
:10138C00B97BF87B7B68BA6801F008FA0346FB75F9
:10139C00FB7D064A5360FB7D002B01D0022300E04D
:1013AC00002318461837BD4680BD00BF54010020ED
:1013BC0080B584B000AF0346FB710B46BB7113467E
:1013CC007B71104B01225A700E4AFB7913720D4A35
:1013DC00BB7953720B4A7B7993727A79B979FB7921
:1013EC00184601F061F90346FB73FB7B054A536019
:1013FC00FB7B002B01D0022300E0002318461037A2
:10140C00BD4680BD5401002090B585B000AF0446A8
:10141C00084611461A462346FB710346BB710B4620
:10142C007B7113463B710023BB720423FB720123B7
:10143C00FB6057E0FB79F9681846FFF77BFF2D4AF4
:10144C00BB7953722B4A7B7993722A4B0022DA7246
:10145C00284A3B791373284B1B787A79B97918464B
:10146C00FFF7A6FF0346FB72FB7A002B08D0FB6844
:10147C00012B03D8012001F0DBFA30E0FB7A35E0D8
:10148C001D4B187807F10A02B9790123FFF766FFA3
:10149C000346FB72FB7A002B08D0FB68012B03D8A8
:1014AC00012001F0C5FA1AE0FB7A1FE0BA7A114B61
:1014BC00DA72104B03225A70BA7A7B795340DAB243
:1014CC003B791340DBB2002B01D100230EE0042347
:1014DC00FB72FB68012B02D8012001F0A9FAFB6812
:1014EC000133FB60FB68022BA4D9FB7A1846143736
:1014FC00BD4690BD540100200000002080B483B094
:10150C0000AF78607B681B781BB21B021AB27B6839
:10151C0001331B781BB213431BB218460C37BD4664
:10152C0080BC704780B58AB000AF0346FB7197F959
:10153C000730002B01DA012300E1824AFB7913709A
:10154C00814B00221A70814B00221A70804B0022B2
:10155C001A70804B00210A461A800A469A707E4BFC
:10156C001A460023136053609360D36013617A4B67
:10157C0000225A6001210120FFF7DCFE714B1B7821
:10158C0080226B211846FFF713FF0346002B01D076
:10159C000223D3E0642001F04BFA022387F82330B6
:1015AC0001237B6221E0796A0220FFF7C3FE664BC0
:1015BC0000221A70634B18780123634A7521FFF7D8
:1015CC00CDFE034687F8233097F82330002B03D148
:1015DC005D4B1B78702B0CD07B6A092B02D8052035
:1015EC0001F026FA7B6A01337B627B6A0A2BDAD91B
:1015FC0000E000BF97F82330002B02D097F823307F
:10160C009CE0514B1B78702B01D0032396E0504B80
:10161C0001221A707F2301226B210320FFF7F4FEB5
:10162C00034687F8233097F82330002B02D097F825
:10163C00233083E00A2001F0FBF93F2300226C21C8
:10164C000420FFF7E1FE034687F8233097F8233098
:10165C00002B02D097F8233070E0072303221A21C5
:10166C000520FFF7D1FE034687F8233097F8233087
:10167C00002B02D097F8233060E0FF2301221921C0
:10168C000620FFF7C1FE034687F8233097F8233076
:10169C00002B02D097F8233050E01B2308221B218B
:1016AC000720FFF7B1FE034687F8233097F8233065
:1016BC00002B02D097F8233040E0182308221C217D
:1016CC000820FFF7A1FE034687F8233097F8233054
:1016DC00002B02D097F8233030E00F2303221D217A
:1016EC000920FFF791FE034687F8233097F8233043
:1016FC00002B02D097F8233020E001230022382160
:10170C000A20FFF781FE034687F8233097F8233031
:10171C00002B02D097F8233010E0F223002237215F
:10172C000B20FFF771FE034687F8233097F8233020
:10173C00002B02D097F8233000E0002318462837FE
:10174C00BD4680BD000000204C0100204D01002052
:10175C004E010020500100205401002080B500AF44
:10176C000123012238210F20FFF74EFE03461846B5
:10177C0080BD000080B586B000AF78607B68002B20
:10178C0001D1012356E001211020FFF7D3FD2B4B93
:10179C00187807F108020E233B21FFF7DFFD034603
:1017AC00002B01D0022345E007F108031846FFF790
:1017BC00A5FE03461A467B681A8007F1080302331C
:1017CC001846FFF79BFE03461A467B685A8007F1C2
:1017DC00080304331846FFF791FE03461A467B684C
:1017EC009A8007F1080306331846FFF787FE034675
:1017FC001A467B68DA8007F1080308331846FFF7AE
:10180C007DFE03461A467B681A8107F108030A33EA
:10181C001846FFF773FE03461A467B685A8107F198
:10182C0008030C331846FFF769FE03461A467B681B
:10183C009A81002318461837BD4680BD0000002051
:10184C0080B483B000AF7860072318460C37BD46D0
:10185C0080BC704780B400AF024B1B781846BD4665
:10186C0080BC70474C01002080B400AF024B1B7849
:10187C001846BD4680BC70474D01002080B400AFB7
:10188C00054B1B78022B0CBF01230023DBB218463F
:10189C00BD4680BC704700BF4E01002080B483B0B1
:1018AC0000AFEFF3108372B67B607B6818460C3781
:1018BC00BD4680BC704780B483B000AF78607B6855
:1018CC0003F00103002B00D162B600BF0C37BD46FC
:1018DC0080BC704780B483B000AF00237B6003E012
:1018EC0000BF7B6801337B607B687F2BF8D900BF1E
:1018FC0000BF0C37BD4680BC7047000080B483B07D
:10190C0000AF0346FB71044AFB7982F8313000BF0B
:10191C000C37BD4680BC70476801002080B483B092
:10192C0000AF03460A46FB711346BB71164AFB799E
:10193C0082F83030144ABB7982F83130124AFB7984
:10194C0082F83830104ABB7982F839300E4B5B6B19
:10195C000D4AD3630D4B1B680B4A53640C4B1B682D
:10196C00094A93640B4B1B68074AD3640A4B1B68E8
:10197C00054A1365094B1B68034A536500BF0C37B6
:10198C00BD4680BC704700BF680100200054004079
:10199C00145400401854004010540040080C0140EE
:1019AC0080B483B000AF0346FB71FB79033B062B7D
:1019BC003AD801A252F823F0F9190008E1190008ED
:1019CC00ED190008051A0008111A00081D1A000864
:1019DC00291A0008174B5B690133164A536124E03E
:1019EC00144B9B690133134A93611EE0114BDB6965
:1019FC000133104AD36118E00E4B1B6A01330D4AB8
:101A0C00136212E00B4B5B6A01330A4A53620CE01F
:101A1C00084B9B6A0133074A936206E0054BDB6A6D
:101A2C000133044AD36200E000BF00BF0C37BD464F
:101A3C0080BC70476801002080B483B000AF786030
:101A4C007B6803F48073002B01D0062315E07B68C0
:101A5C0003F40073002B01D007230EE07B6803F422
:101A6C008063002B01D0052307E07B6803F400633F
:101A7C00002B01D0082300E0002318460C37BD468C
:101A8C0080BC704780B483B000AF074B1B687B6091
:101A9C007B6823F470637B60034A7B68136000BF30
:101AAC000C37BD4680BC70471454004080B586B0DE
:101ABC0000AF78600B46FB70FB781846FFF71EFFF3
:101ACC0000237B6121E0194B1B683B613869FFF7F0
:101ADC00B3FF0346FB73FB7B002B0BD0FA78FB7B2D
:101AEC0011461846FFF71AFFFB7B1846FFF758FF05
:101AFC00FB7B17E03A697B6813407A689A4201D104
:101B0C0000230FE07B6901337B617B69084A9342B8
:101B1C00D9D9FB7819460420FFF700FF0420FFF702
:101B2C003FFF042318461837BD4680BD14540040AF
:101B3C003F0D030080B582B000AF0220FFF7DEFE40
:101B4C0000237B602BE0244B1B681846FFF774FFC7
:101B5C000346BB70BB78002B0AD0BB780221184619
:101B6C00FFF7DCFEBB781846FFF71AFFBB782EE0B8
:101B7C001A4B1B6803F00203002B0DD1184B1B688A
:101B8C0003F40073002B07D1164B1B6803F0C00342
:101B9C00C02B01D100231AE07B6801337B607B688A
:101BAC00114A9342CFD90F4B1B6803F0C003C02BD3
:101BBC0001D1032300E00923FB70FB7802211846B6
:101BCC00FFF7ACFEFB781846FFF7EAFEFB781846E9
:101BDC000837BD4680BD00BF145400401854004067
:101BEC0000540040080C01403F0D030080B582B04A
:101BFC0000AF0F20FFF782FE00237B6010E0114B3B
:101C0C001B6803F40073002B07D10F4B1B6803F008
:101C1C000203002B01D100230FE07B6801337B60B2
:101C2C007B684CF24F329342E9D90F210420FFF725
:101C3C0075FE0420FFF7B4FE042318460837BD4692
:101C4C0080BD00BF005400401854004080B582B0E5
:101C5C0000AF0720FFF752FE054B1B687B60054B5E
:101C6C001B687B607B6800BF0837BD4680BD00BF2A
:101C7C00145400401854004080B483B000AF0F4B94
:101C8C001B680E4A43F0C00313600D4B1B687B604E
:101C9C007B6823F07F437B607B6843F07F437B60F2
:101CAC00074A7B681360054B1B68044A43F0C0036A
:101CBC00136000BF0C37BD4680BC70470C0C014054
:101CCC00000C014080B483B000AF0F4B1B680E4A70
:101CDC0043F0C00313600D4B1B687B607B6823F0E3
:101CEC007F437B607B6843F0CC437B60074A7B6817
:101CFC001360054B1B68044A43F0C003136000BF1C
:101D0C000C37BD4680BC70470C0C0140000C0140E8
:101D1C0080B485B000AF78600023FB600AE00B4B09
:101D2C001A687B681340002B01D0012308E0FB6884
:101D3C000133FB60FB684CF24F329342EFD9002326
:101D4C0018461437BD4680BC704700BF080C0140D4
:101D5C0080B582B000AF1120FFF7D0FDFFF7B2FFC6
:101D6C00FFF7B8FD4020FFF7D3FF034683F00103D4
:101D7C00DBB2002B08D011210920FFF7CFFD092081
:101D8C00FFF70EFE09236AE000237B6024E0364B4C
:101D9C001B68354A23F040031360FFF79BFD324B61
:101DAC001B68314A43F0400313604020FFF7B0FF3B
:101DBC00034683F00103DBB2002B08D0112109206C
:101DCC00FFF7ACFD0920FFF7EBFD092347E0FFF718
:101DDC0081FD7B6801337B607B68082B05D8234B26
:101DEC001B6803F08003002BD1D01F4B1B681E4ACD
:101DFC0023F080031360FFF76DFD1B4B1B681A4A21
:101E0C0043F0400313604020FFF782FF034683F04A
:101E1C000103DBB2002B08D011210920FFF77EFD56
:101E2C000920FFF7BDFD092319E0FFF753FD0E4B09
:101E3C001B680D4A43F080031360FFF74BFD0B4BFF
:101E4C001B6803F0C003C02B08D011210920FFF739
:101E5C0065FD0920FFF7A4FD092300E000231846C7
:101E6C000837BD4680BD00BF0C0C0140080C01407A
:101E7C0080B489B000AFF860B9607A603B60FB68F1
:101E8C00002B0BD0BB68002B08D07B68002B05D037
:101E9C003B68002B02D0BB6A002B01D101236EE002
:101EAC00FB68394AA2FB03239B0CBB61BB69012B6A
:101EBC0011D9BB69242B0ED8FA68334BA3FB021340
:101ECC009B0C324901FB03F3D31A002B03D1BB68E3
:101EDC002F4A934201D9022351E07B68BA691A60F8
:101EEC00BB682C4A93421DD8BB685B003B61FA6807
:101EFC003B6913445A1E3B69B2FBF3F3FB61FB696C
:101F0C00032B01D80423FB61FB69B3F5805F01D37C
:101F1C00022334E03B68FA691A60BB695A1CBB6A3D
:101F2C001A602BE0BB69032B01D8022327E0BA68A7
:101F3C0013465B0013447B61FA687B6913445A1E99
:101F4C007B69B2FBF3F3FB61FB69002B03D0FB69EC
:101F5C00B3F5805F01D3022311E0FB6943F4004227
:101F6C003B681A60BB694FF4967202FB03F30A4A92
:101F7C00A2FB03239B095A1CBB6A1A600023184658
:101F8C002437BD4680BC704783DE1B4340420F00A4
:101F9C00801A0600A0860100D34D621080B58AB06D
:101FAC0002AFF860B9601346FB7107F1140107F139
:101FBC00180207F1100300930B46B968F868FFF795
:101FCC0057FF0346FB77FB7F002B01D0FB7F3AE0EA
:101FDC001F4B1B681E4A43F0080313601D4B1B6804
:101FEC001C4A43F4001313601A4B1B68FFF744FEA2
:101FFC00FB79002B0BD0184B1B68174A43F40013CA
:10200C001360154B1B68144A23F400131360134B15
:10201C0000221A60124ABB691360124B4FF48042C3
:10202C001A60114B00221A60104A7B691360104A27
:10203C003B691360FFF726FD084B40F201421A6022
:10204C00FFF778FD034618462037BD4680BD00BF1C
:10205C00181002401C1002401010024000540040A6
:10206C0004540040085400400C5400401C540040E0
:10207C002054004080B582B000AF1020FFF73EFC2A
:10208C000D4B1B687B607B6803F00103002B0BD0AE
:10209C000A4B1B6803F40073002B05D1074B1B681C
:1020AC00064A43F400731360FFF7A0FD034618467D
:1020BC000837BD4680BD00BF185400400054004096
:1020CC0080B582B000AF354B1B7883F00103DBB2D7
:1020DC00002B05D0324B0A2283F840200A2359E00A
:1020EC002F4BDB6801332E4AD3602D4B002283F833
:1020FC004020FFF7BFFFFFF7C5FCFFF729FE0346A3
:10210C00FB71FB79002B0CD0254B1B690133244A46
:10211C001361234AFB7982F84030FFF7ADFDFB7960
:10212C0038E0FFF7A9FD1220FFF7E8FB1D4B4FF439
:10213C0000421A60FFF7CEFB1A4B00221A601320E4
:10214C00FFF7DCFB184B1B68184A11680022184675
:10215C00FFF724FF0346FB71FB79002B0ED0104BCD
:10216C001B6901330E4A13610D4B0A2283F8402080
:10217C0013210A20FFF7D2FB0A230BE0084B0022A5
:10218C0083F84020064B002283F830200020FFF714
:10219C00B5FB002318460837BD4680BDD001002092
:1021AC006801002000540040C8010020CC01002030
:1021BC0080B584B000AF0346FB710B46BB71134670
:1021CC007B717B79002B01D00C2300E00323184694
:1021DC00FFF794FB134B1B68124A43F48073136094
:1021EC0004210120FFF762FC0346FB73FB7B002BF1
:1021FC0001D0FB7B12E00520FFF780FBFB795B0035
:10220C00BA79002A01D0012200E0002206491343CA
:10221C000B6006210220FFF749FC034618461037D5
:10222C00BD4680BD005400401054004080B584B0C1
:10223C0000AF0346FB710B46BB7113467B71FFF776
:10224C0079FC0346FB73FB7B002B01D0FB7B47E047
:10225C00FB79002200211846FFF7AAFF0346FB7307
:10226C00FB7B002B01D0FB7B3AE0FFF7EFFC0A2154
:10227C008020FFF71BFC0346FB73FB7B002B01D07C
:10228C00FB7B2DE00820FFF739FB174ABB79136065
:10229C000A218020FFF70AFC0346FB73FB7B002B13
:1022AC0001D0FB7B1CE00920FFF728FB0E4A7B7951
:1022BC0013600B210420FFF7F9FB0346FB73FB7B38
:1022CC00002B01D0FB7B0BE00F20FFF717FB074B1C
:1022DC001B68064A43F400731360FFF787FC034640
:1022EC0018461037BD4680BD1054004000540040C5
:1022FC0080B588B000AFBA607B600346FB730B46B9
:10230C00BB73FFF717FC0346FB77FB7F002B01D059
:10231C00FB7F35E1FB7B002200211846FFF748FFCD
:10232C000346FB77FB7F002B01D0FB7F28E1FFF7F7
:10233C008DFC0A218020FFF7B9FB0346FB77FB7F5E
:10234C00002B01D0FB7F1BE10820FFF7D7FA8E4A48
:10235C00BB7B13600B210420FFF7A8FB0346FB7724
:10236C00FB7F002B01D0FB7F0AE1884B1B68874A5F
:10237C0023F400631360854B1B68844A43F4806329
:10238C001360FB7B012201211846FFF711FF034666
:10239C00FB77FB7F002B01D0FB7FF1E07B68012BEF
:1023AC002AD1FFF77BFA7861784B1B68774A23F4C4
:1023BC0080631360FFF74AFC744B1B68734A43F449
:1023CC00007313607869FFF776FA0E214020FFF74F
:1023DC006DFB0346FB77FB7F002B40F0C1800D208B
:1023EC00FFF78CFA684B1B68DAB2BB681A70FFF700
:1023FC00FDFB0346FB77B3E07B68022B42D1634BBA
:10240C001B68624A43F400631360604B1B685F4AAD
:10241C0043F480631360FFF741FA7861FFF716FC11
:10242C005A4B1B68594A23F4806313607869FFF791
:10243C0042FA0B210420FFF739FB0346FB77FB7FA5
:10244C00002B40F08D80FFF729FA78614F4B1B6809
:10245C004E4A43F4007313600D20FFF74FFA4A4BBA
:10246C001B68DAB2BB681A70474B1A68BB68013339
:10247C00D2B21A707869FFF71EFAFFF7B7FB034662
:10248C00FB776DE0FFF7E2FB7B68BB6115E00E218B
:10249C004020FFF70BFB0346FB77FB7F002B0CD197
:1024AC000D20FFF72BFA384B1968BB685A1CBA6021
:1024BC00CAB21A70BB69013BBB61BB69032B02D961
:1024CC00FB7F002BE3D0FB7F002B05D10B210420DD
:1024DC00FFF7ECFA0346FB77FB7F002B2ED1FFF7BF
:1024EC00DDF97861294B1B68284A23F4806313605B
:1024FC000D20FFF703FA244B1968BB685A1CBA600D
:10250C00CAB21A70BB69013BBB61204B1B681F4AE6
:10251C0043F4007313601C4B1968BB685A1CBA60F7
:10252C00CAB21A70BB69013BBB617869FFF7C3F98A
:10253C000E214020FFF7BAFA0346FB77FB7F002BF6
:10254C000ED10D20FFF7DAF90F4B1B68DAB2BB681E
:10255C001A70BB69013BBB61FFF748FB0346FB7775
:10256C00FB7F002B0BD1094B1B68084A23F400633B
:10257C001360064B1B68054A43F480631360FB7FB2
:10258C0018462037BD4680BD105400400054004012
:10259C0080B584B000AF0346FB71FFF791FD034695
:1025AC00FB73094AFB7B82F84030FB7B002B05D088
:1025BC0013210A20FFF7B2F90A2300E00023184682
:1025CC001037BD4680BD00BF6801002080B5A0B0AB
:1025DC0002AF78603960304B184660231A460021F0
:1025EC00FEF79CFD2D4B00221A700120FFF786F997
:1025FC0007F16C0107F1700207F1680300930B46B9
:10260C0039687868FFF734FC034687F8773097F819
:10261C007730002B08D097F8773001211846FFF758
:10262C007DF997F8773033E01D4A7B6813601D4ABB
:10263C003B681360194B01221A70174A3B6893656B
:10264C00012239687868FFF7A9FC034687F87730D0
:10265C0097F87730002B08D10F4B002283F83020ED
:10266C000020FFF74BF9002312E0FFF729FD03468A
:10267C0087F8773097F87730002B08D097F87730B9
:10268C0013211846FFF74AF997F8773000E000233A
:10269C0018467837BD4680BD68010020D001002067
:1026AC00C8010020CC01002080B584B000AF0346E7
:1026BC00FB710B46BB7113467B710A23FB7297F9B6
:1026CC000730002B06DB334B1B7883F00103DBB2A6
:1026DC00002B01D0012358E02F4B1B6801332E4AED
:1026EC0013602D4AFB7982F85C302B4ABB7982F857
:1026FC005D30294B0122A3F85E200123FB602FE003
:10270C00254AFB6853637A79B979FB791846FFF748
:10271C008DFD0346FB72FB7A002B0DD11E4B5B68C3
:10272C0001331D4A53601C4B002283F830200020DB
:10273C00FFF7E4F8002328E0FB68032B14D0164BBA
:10274C009B680133144A9360FB7A1846FFF720FF0D
:10275C000346002B01D00A2317E0FB680133FB6012
:10276C00FB68032BCCD900E000BFFFF7A9FC0346A4
:10277C00002B05D0084B0A2283F830200A2304E0F2
:10278C00054AFB7A82F83030FB7A18461037BD4682
:10279C0080BD00BFD00100206801002080B586B04C
:1027AC0000AFBA607B600346FB730B46BB730A2316
:1027BC00FB7497F90F30002B10DBBB68002B0DD08E
:1027CC007B68002B0AD07B68B3F5803F06D2334B75
:1027DC001B7883F00103DBB2002B01D0012359E0FD
:1027EC002F4B1B6801332E4A13602D4AFB7B82F85A
:1027FC005C302B4ABB7B82F85D307B689AB2284BED
:10280C00A3F85E2001237B612FE0254A7B6953638B
:10281C00B97BF87B7B68BA68FFF76AFD0346FB74EB
:10282C00FB7C002B0DD11E4B5B6801331C4A5360A3
:10283C001B4B002283F830200020FFF75FF80023A9
:10284C0028E07B69032B14D0154B9B680133144A89
:10285C009360FB7C1846FFF79BFE0346002B01D0D0
:10286C000A2317E07B6901337B617B69032BCCD98D
:10287C0000E000BFFFF724FC0346002B05D0084BFB
:10288C000A2283F830200A2304E0054AFB7C82F8F4
:10289C003030FB7C18461837BD4680BDD001002077
:1028AC006801002080B483B000AFEFF3108372B6E0
:1028BC007B607B6818460C37BD4680BC704780B483
:1028CC0083B000AF78607B6803F00103002B00D16C
:1028DC0062B600BF0C37BD4680BC704780B485B073
:1028EC0000AF78607B68002B0AD07A682D4BA3FB75
:1028FC0002139B0C2C4901FB03F3D31A002B01D0C0
:10290C0001234AE07B68274AA2FB03239B0CFB6054
:10291C00FB68002B03D0FB68B3F5803F01D9022381
:10292C003BE0224B1B68214A43F0010313601F4B11
:10293C001B684FF0804300221A601D4B00221A6066
:10294C001C4B00221A601C4AFB68013B13601B4B9A
:10295C004FF6FF721A601A4B00221A60194B0022B4
:10296C001A604FF0804304221A60174B01221A6040
:10297C00104B1B680F4A23F001031360134B6022AA
:10298C001A70134B4FF080521A60094B01221A60D7
:10299C004FF0804305221A60002318461437BD46B9
:1029AC0080BC704783DE1B4340420F001C1002406A
:1029BC000C00004010000040280000402C0000409B
:1029CC0024000040D4010020140000401CE400E06E
:1029DC0000E100E080B584B000AFFFF763FF7860E2
:1029EC00104B1B68FB60104B1B689BB2BB600F4B02
:1029FC001B683B603B6803F00103002B07D0FB68AE
:102A0C0003F58033FB60084B1B689BB2BB60786896
:102A1C00FFF755FFFA68BB68134418461037BD46DC
:102A2C0080BD00BFD40100202400004010000040F5
:102A3C0080B584B000AF78600FE0FFF7CBFFF86093
:102A4C0000E000BFFFF7C6FF0246FB68D31AB3F5E0
:102A5C007A7FF6D37B68013B7B607B68002BECD1E3
:102A6C0000BF00BF1037BD4680BD000080B400AF72
:102A7C000A4B1B6803F00103002B0BD0074B1B68A0
:102A8C00064A23F001031360054B1B6803F58033E2
:102A9C00034A136000BFBD4680BC70471000004065
:102AAC00D401002080B487B000AFF860B9607A60C0
:102ABC0000237B610BE0FB681A68BB6813407A68E3
:102ACC009A4201D1012310E07B6901337B617B6960
:102ADC00084A9342EFD9FB681A68BB6813407A68BE
:102AEC009A420CBF01230023DBB218461C37BD46AB
:102AFC0080BC70473F420F0080B400AF094B0A4ABC
:102B0C001A600A4B084A1A60094B074A1A60094BAB
:102B1C00054A1A60084B094A1A6000BFBD4680BCC2
:102B2C00704700BF0400002000127A00080000204B
:102B3C000C000020100000201400002000093D00B3
:102B4C0080B584B000AF0346FB712C4B1B682B4A3D
:102B5C0043F001031360022202212848FFF7A2FF71
:102B6C00034683F00103DBB2002B01D0042341E0C8
:102B7C00224B5B68214A23F00303536000220C2193
:102B8C001F48FFF78FFF034683F00103DBB2002BD6
:102B9C0001D004232EE0194B1B68184A23F08073D4
:102BAC00136000224FF000711448FFF77BFF0346BF
:102BBC0083F00103DBB2002B01D004231AE00F4B8E
:102BCC001B680E4A23F4803313600C4B5B68FB606C
:102BDC00FB6823F47F4323F0F003FB60074AFB6898
:102BEC005360084B1B68074A23F007031360FFF779
:102BFC0083FFFB7918461037BD4680BD001002409C
:102C0C00041002400020024080B582B000AFFFF7F4
:102C1C0073FF374B1B68364A43F4803313604FF411
:102C2C0000324FF400313248FFF73CFF034683F08B
:102C3C000103DBB2002B04D00120FFF781FF034618
:102C4C0052E02C4B12221A60294B5B687B607A682D
:102C5C00294B13407B607B6843F4EC1343F4806393
:102C6C007B60234A7B685360214B1B68204A43F0EE
:102C7C00807313604FF000724FF000711C48FFF727
:102C8C0011FF034683F00103DBB2002B04D00220BA
:102C9C00FFF756FF034627E0154B5B6823F0030351
:102CAC00134A43F00203536008220C211348FFF728
:102CBC00F9FE034683F00103DBB2002B04D00320A2
:102CCC00FFF73EFF03460FE00D4B0E4A1A600E4B0A
:102CDC000C4A1A600D4B0E4A1A600E4B094A1A60C8
:102CEC000D4B0E4A1A60002318460837BD4680BDAE
:102CFC0000100240002002400C00C0FF04100240F3
:102D0C000400002000A24A04080000200C0000204F
:102D1C00005125021000002014000020001BB700F9
:102D2C0080B400AF024B1B681846BD4680BC704790
:102D3C000800002080B400AF024B1B681846BD464B
:102D4C0080BC70470C00002080B400AF024B1B68A5
:102D5C001846BD4680BC70471000002080B487B078
:102D6C0000AF7860244B00221A607B68002B01D1E5
:102D7C0001233CE07A68214BA3FB02139B094FF41F
:102D8C007A7101FB03F3D31A002B01D001232EE03F
:102D9C007B681A4AA2FB03239B097B617B69002B8E
:102DAC0003D07B69B3F1807F01D902231FE07B69DB
:102DBC00013B3B61124B00221A60124A3B6923F023
:102DCC007F431360104B00221A60104B1B68FB6092
:102DDC00FB6823F07F43FB60FB6843F07043FB60B0
:102DEC000A4AFB681360044B07221A60002318463A
:102DFC001C37BD4680BC704710E000E0D34D62101C
:102E0C00D801002014E000E018E000E020ED00E024
:102E1C0080B400AF044B1B680133034A136000BF3E
:102E2C00BD4680BC704700BFD801002080B483B081
:102E3C0000AF00237B600AE00E4B1B6803F080039D
:102E4C00002B01D001230FE07B6801337B607B6892
:102E5C00094A9342F0D9074B1B6803F08003002BFF
:102E6C0014BF01230023DBB218460C37BD4680BCCF
:102E7C00704700BF003801409F86010080B584B0C8
:102E8C0000AF78603960384B00221A707B68002BD9
:102E9C0002D03B68002B01D1012361E03B685A084A
:102EAC007B681A443B68B2FBF3F3FB60FB680F2BA7
:102EBC0003D9FB68B3F5803F01D3022350E02B4BC1
:102ECC001B682A4A43F4804343F004031360274BE6
:102EDC001B68274B1B68BB60BB6823F0F003BB600F
:102EEC00BB6843F0A003BB60214ABB681360214B55
:102EFC0000221A60204B00221A60204B00221A601C
:102F0C001C4B4FF400521A601D4AFB681360194B9E
:102F1C0042F208021A60164B1B6803F0F003A02B58
:102F2C0015D1174B1B68FA689A4210D1114B1A68CD
:102F3C0042F20803134042F20802934207D1FFF712
:102F4C0075FF034683F00103DBB2002B04D0094B61
:102F5C0000221A60032303E0034B01221A700023A2
:102F6C0018461037BD4680BDDC0100201810024009
:102F7C00040801400C38014010380140143801405D
:102F8C000838014080B582B000AF0346FB710C4B92
:102F9C001B7883F00103DBB2002B07D1FFF746FF50
:102FAC00034683F00103DBB2002B01D0002303E0C6
:102FBC00044AFB791360012318460837BD4680BDCF
:102FCC00DC0100200438014080B582B000AF78608D
:102FDC007B68002B11D1002314E07B681B7818460A
:102FEC00FFF7D0FF034683F00103DBB2002B01D0C7
:102FFC00002307E07B6801337B607B681B78002B28
:10300C00EBD1012318460837BD4680BD80B582B090
:10301C0000AF78607868FFF7D7FF034683F00103B1
:10302C00DBB2002B01D0002303E00448FFF7CCFFF8
:10303C00034618460837BD4680BD00BFA4370008BC
:10304C0080B586B000AF78607B68002B04D130204F
:10305C00FFF798FF034639E000237B611BE079689A
:10306C001C4BA3FB0123DA0813469B0013445B00A3
:10307C00CA1AD3B23033D9B207F108027B691344B0
:10308C000A461A707B6901337B617B68114AA2FB8B
:10309C000323DB087B607B68002BE0D112E07B69AB
:1030AC00013B7B6107F108027B6913441B781846CE
:1030BC00FFF768FF034683F00103DBB2002B01D05E
:1030CC00002303E07B69002BE9D101231846183754
:1030DC00BD4680BDCDCCCCCC80B584B000AF786083
:1030EC001648FFF771FF034683F00103DBB2002B98
:1030FC0001D000231DE01C23FB607A68FB6822FAD8
:10310C0003F303F00F030E4AD35C1846FFF73AFFA4
:10311C00034683F00103DBB2002B01D0002308E04F
:10312C00FB68002B03D0FB68043BFB60E5E700BFAA
:10313C00012318461037BD4680BD00BFA8370008D4
:10314C00AC37000880B485B000AF0346FB800B465B
:10315C00BB8013467B80B7F90620B7F904309A423E
:10316C0005DDFB88FB81BB88FB80FB89BB80B7F945
:10317C000420B7F902309A4205DDBB88FB817B88BD
:10318C00BB80FB897B80B7F90620B7F904309A42E3
:10319C0001DDFB88BB80B7F9043018461437BD46F7
:1031AC0080BC704790B585B000AF786039607B68A3
:1031BC001B7C83F00103DBB2002B10D07B683A68D8
:1031CC001A607B683A685A607B683A689A607B68D8
:1031DC003A68DA607B6801221A743B6848E0264939
:1031EC003868FDF78BF803461C467B681B6823493F
:1031FC001846FDF783F8034619462046FCF776FF80
:10320C0003461C467B685B681B491846FDF776F83D
:10321C00034619462046FCF769FF03461C467B68AB
:10322C009B6817491846FDF769F80346194620466E
:10323C00FCF75CFF03461C467B68DB6811491846AB
:10324C00FDF75CF8034619462046FCF74DFF034694
:10325C00FB607B681A687B685A607B683A681A6006
:10326C007B689A687B68DA607B68FA689A60FB68AE
:10327C0018461437BD4690BD8CE05A3C8CE0DA3CC5
:10328C00F8DFD23FF96D333F80B483B000AF786084
:10329C007B68B3F9083047F6F77293421FDC7B6802
:1032AC00B3F90830134A934219DB7B68B3F90A303F
:1032BC0047F6F772934212DC7B68B3F90A300D4A79
:1032CC0093420CDB7B68B3F90C3047F6F7729342F0
:1032DC0005DC7B68B3F90C30064A934201DA012312
:1032EC0000E0002303F00103DBB218460C37BD46A7
:1032FC0080BC70470980FFFF80B596B000AF054BCE
:10330C00184658231A460021FDF708FF00BF58370E
:10331C00BD4680BDE001002080B592B000AF786062
:10332C0039607B68002B02D03B68002B01D1002355
:10333C0050E13B6818463C231A460021FDF7EEFE8F
:10334C007B681A683B681A607B685A683B685A60ED
:10335C007B68B3F908203B689A817B68B3F90A2033
:10336C003B68DA817B68B3F90C203B681A829B4B73
:10337C0093F85430002B0AD07B681A68974B1B6D5E
:10338C009A4204D13B6810229A60002322E17868AB
:10339C00FFF77AFF0346002B04D03B6808229A60A3
:1033AC00002317E17B681B688C4A13658B4B012249
:1033BC0083F85420894BDB7C002B33D17B68B3F929
:1033CC000820864B1A807B68B3F90820834B5A80FF
:1033DC007B68B3F90820814B9A807B68B3F90A208B
:1033EC007E4BDA807B68B3F90A207C4B1A817B68B0
:1033FC00B3F90A20794B5A817B68B3F90C20774BCF
:10340C009A817B68B3F90C20744BDA817B68B3F931
:10341C000C20724B1A82714B0322DA746F4B01220F
:10342C009A742EE06D4B9B7C87F8473097F84730A9
:10343C007A68B2F90810694A22F8131097F84730E5
:10344C007A68B2F90A10654A5B0013440A46DA80BE
:10345C0097F847307A68B2F90C10604A04335B0075
:10346C0013440A469A8097F84730591C5C4BA3FBCF
:10347C0001235A0813465B001344CA1AD2B2574BA5
:10348C009A74564BB3F90030544AB2F90210534AAD
:10349C00B2F904201846FFF755FE03461A463B685E
:1034AC005A824E4BB3F906304C4AB2F908104B4ACB
:1034BC00B2F90A201846FFF745FE03461A463B6848
:1034CC009A82464BB3F90C30444AB2F90E10434A77
:1034DC00B2F910201846FFF735FE03461A463B6832
:1034EC00DA823B68B3F912301846FCF7B3FE034698
:1034FC003C491846FCF7F8FD03463B491846FCF7D7
:10350C00B1FF03461A463B689A613B68B3F9143025
:10351C001846FCF79FFE034634491846FCF7E4FDB9
:10352C00034633491846FCF79DFF03461A463B6891
:10353C00DA613B68B3F916301846FCF78BFE03468C
:10354C002C491846FCF7D2FD03462B491846FCF7CC
:10355C0089FF03461A463B681A623B689B69194609
:10356C002648FFF71FFE02463B685A623B68DB6940
:10357C0019462348FFF716FE02463B689A623B68E1
:10358C001B6A19461F48FFF70DFE02463B68DA62BC
:10359C003B685B6A1C491846FCF7B0FE03461A46AA
:1035AC003B681A633B689B6A17491846FCF7A6FEF2
:1035BC0003461A463B685A633B68DB6A1249184655
:1035CC00FCF79CFE03461A463B689A633B6807224D
:1035DC009A60012318464837BD4680BDE0010020A3
:1035EC00ABAAAAAADE13BB41BC2AFF4593A9124180
:1035FC008DDDFF45DA7BDE4283A50046F401002019
:10360C00080200201C0200200AE81C415B414343D5
:10361C00454C20504950455D207365713D000000BC
:10362C0020745F75733D0000207261773D000000CF
:10363C002066696C74657265645F6D73323D000061
:10364C0020666C6167733D000D0A00005B424F4FB2
:10365C00545D20466C6967687420636F6E74726F7A
:10366C006C6C6572207374617274696E6700000013
:10367C005B4143515D204D505536353030206163F0
:10368C0063656C2F6779726F2061637175697369FB
:10369C0074696F6E000000005B4552524F525D2002
:1036AC004163717569736974696F6E20696E6974B1
:1036BC00207374617475733D00000000206472699E
:1036CC007665725F7374617475733D005B48414C31
:1036DC00545D20436865636B20706F7765722C2096
:1036EC00776972696E672C206164647265737320EC
:1036FC00616E642070756C6C2D7570730000000029
:10370C005B414343454C20504950455D206D6564F9
:10371C0069616E33202D3E2063616C696272617445
:10372C00696F6E202D3E203230487A204C50462056
:10373C002D3E206D2F7332005B49445D204D50555A
:10374C00363530303D00000020414B383936333DA2
:10375C00000000005B52454144595D205374617276
:10376C0074696E672050413020444154415F52448B
:10377C00590000005B48414C545D20436F756C64EC
:10378C00206E6F7420737461727420494D552044FF
:10379C004154415F524459000D0A0000307800003A
:1037AC00303132333435363738394142434445466B
:0437BC000000000009
:1037C0006800000000127A0000127A0000127A00ED
:0837D00000127A0000093D001F
:04000005080012DD00
:00000001FF
