:020000040800F2
:1000000000500020A91B00088D190008A91900083C
:10001000411A0008491A0008511A0008000000009F
:10002000000000000000000000000000591A000855
:10003000611A000800000000691A0008E93600088B
:10004000711A0008791A0008811A0008891A000834
:10005000911A0008991A0008D1180008A11A00087E
:10006000A91A0008B11A0008B91A0008C11A000834
:10007000C91A0008D11A0008D91A0008E11A0008A4
:10008000E91A00083D7F0008F11A0008F91A000873
:10009000011B0008091B0008111B0008191B0008A0
:1000A000211B0008291B0008311B0008391B000810
:1000B00045330008411B0008491B0008511B00087C
:1000C000591B0008611B0008691B0008711B000810
:1000D000791B0008811B0008C57F0008891B0008E8
:0C00E000911B0008991B0008A11B0008E0
:1000EC0080F0004002E000BF81F0004142001FBFE1
:1000FC005FEA410392EA030F7FEA226C7FEA236CEA
:10010C006AD04FEA1262D2EB1363C1BFD2184140DE
:10011C0048404140B8BF5B42192B88BF704710F074
:10012C00004F40F4000020F07F4018BF404211F017
:10013C00004F41F4000121F07F4118BF494292EA7F
:10014C00030F3FD0A2F1010241FA03FC10EB0C00AB
:10015C00C3F1200301FA03F100F0004302D5494238
:10016C0060EB4000B0F5000F13D3B0F1807F06D3E5
:10017C0040084FEA310102F10102FE2A51D2B1F1DD
:10018C00004F40EBC25008BF20F0010040EA0300D2
:10019C007047490040EB0000013A28BFB0F5000F52
:1001AC00EDD2B0FA80FCACF1080CB2EB0C0200FA08
:1001BC000CF0AABF00EBC25052421843BCBFD04057
:1001CC001843704792F0000F81F4000106BF80F4D1
:1001DC0000000132013BB5E74FEA41037FEA226C94
:1001EC0018BF7FEA236C21D092EA030F04D092F05F
:1001FC00000F08BF0846704790EA010F1CBF002093
:10020C00704712F07F4F04D1400028BF40F00040EF
:10021C00704712F100723CBF00F50000704700F00F
:10022C00004343F0FE4040F4000070477FEA226236
:10023C0016BF08467FEA23630146420206BF5FEA07
:10024C00412390EA010F40F4800070474FF0000307
:10025C0004E000BF10F0004348BF40425FEA000CCE
:10026C0008BF704743F0964301464FF000001CE076
:10027C0050EA010208BF70474FF000030AE000BFCC
:10028C0050EA010208BF704711F0004302D540420A
:10029C0061EB41015FEA010C02BF8446014600207C
:1002AC0043F0B64308BFA3F18053A3F50003BCFA97
:1002BC008CF2083AA3EBC25310DB01FA02FC634444
:1002CC0000FA02FCC2F12002BCF1004F20FA02F24B
:1002DC0043EB020008BF20F00100704702F120023E
:1002EC0001FA02FCC2F1200250EA4C0021FA02F29F
:1002FC0043EB020008BF20EADC7070474FF0FF0CA4
:10030C001CEAD0521EBF1CEAD15392EA0C0F93EA9E
:10031C000C0F6FD01A4480EA010C400218BF5FEA40
:10032C0041211ED04FF0006343EA501043EA5111B3
:10033C00A0FB01310CF00040B1F5000F3EBF4900AD
:10034C0041EAD3715B0040EA010062F17F02FD2AB1
:10035C001DD8B3F1004F40EBC25008BF20F0010094
:10036C00704790F0000F0CF0004C08BF49024CEAAB
:10037C00502040EA51207F3AC2BFD2F1FF0340EA3D
:10038C00C250704740F400004FF00003013A5DDCAE
:10039C0012F1190FDCBF00F000407047C2F10002EF
:1003AC00410021FA02F1C2F1200200FA02FC5FEADC
:1003BC00310040F1000053EA4C0308BF20EADC7026
:1003CC00704792F0000F00F0004C02BF400010F498
:1003DC00000F013AF9D040EA0C0093F0000F01F045
:1003EC00004C02BF490011F4000F013BF9D041EA67
:1003FC000C018FE70CEAD15392EA0C0F18BF93EA69
:10040C000C0F0AD030F0004C18BF31F0004CD8D192
:10041C0080EA010000F00040704790F0000F17BF19
:10042C0090F0004F084691F0000F91F0004F14D05F
:10043C0092EA0C0F01D142020FD193EA0C0F03D1B7
:10044C004B0218BF084608D180EA010000F00040BA
:10045C0040F0FE4040F40000704740F0FE4040F495
:10046C00400070474FF0FF0C1CEAD0521EBF1CEA34
:10047C00D15392EA0C0F93EA0C0F69D0A2EB030252
:10048C0080EA010C49024FEA402037D04FF08053EC
:10049C0043EA111143EA10130CF000408B4238BFB1
:1004AC005B0042F17D024FF4000C8B4224BF5B1ABF
:1004BC0040EA0C00B3EB510F24BFA3EB510340EA0D
:1004CC005C00B3EB910F24BFA3EB910340EA9C00BB
:1004DC00B3EBD10F24BFA3EBD10340EADC001B012B
:1004EC0018BF5FEA1C1CE0D1FD2A3FF650AF8B42CF
:1004FC0040EBC25008BF20F0010070470CF0004CDC
:10050C004CEA50207F32C2BFD2F1FF0340EAC25006
:10051C00704740F400004FF00003013A37E792F0C7
:10052C00000F00F0004C02BF400010F4000F013A25
:10053C00F9D040EA0C0093F0000F01F0004C02BF20
:10054C00490011F4000F013BF9D041EA0C0195E789
:10055C000CEAD15392EA0C0F08D142027FF47DAF22
:10056C0093EA0C0F7FF470AF084676E793EA0C0F12
:10057C0004D14B023FF44CAF08466EE730F0004C10
:10058C0018BF31F0004CCAD130F000427FF45CAFA0
:10059C0031F000437FF43CAF5FE700BF4FF0FF3C0E
:1005AC0006E000BF4FF0010C02E000BF4FF0010C61
:1005BC004DF804CD4FEA40024FEA41037FEA226C2A
:1005CC0018BF7FEA236C11D001B052EA530C18BF4C
:1005DC0090EA010F58BFB2EB030088BFC81738BFB1
:1005EC006FEAE17018BF40F0010070477FEA226C9F
:1005FC0002D15FEA402C05D17FEA236CE4D15FEA9B
:10060C00412CE1D05DF8040B704700BF84460846CE
:10061C006146FFE70FB5FFF7C9FF002848BF10F18F
:10062C00000F0FBD4DF808EDFFF7F4FF0CBF0120D4
:10063C0000205DF808FB00BF4DF808EDFFF7EAFF5E
:10064C0034BF012000205DF808FB00BF4DF808ED19
:10065C00FFF7E0FF94BF012000205DF808FB00BF0E
:10066C004DF808EDFFF7D2FF94BF012000205DF894
:10067C0008FB00BF4DF808EDFFF7C8FF34BF0120A1
:10068C0000205DF808FB00BF4FEA4002B2F1FE4FBC
:10069C000FD34FF09E03B3EB12620DD94FEA002338
:1006AC0043F0004310F0004F23FA02F018BF404211
:1006BC0070474FF00000704712F1610F01D14202F8
:1006CC0005D110F0004008BF6FF0004070474FF0AC
:1006DC000000704742000ED2B2F1FE4F0BD34FF028
:1006EC009E03B3EB126209D44FEA002343F000439C
:1006FC0023FA02F070474FF00000704712F1610FBF
:10070C0001D1420202D14FF0FF3070474FF0000090
:10071C00704700BFB0B48BB000AF78607B68002B23
:10072C0035D04FF07E53BB604FF00003FB604FF0B1
:10073C0000033B61184B7B614FF07E53BB61174B41
:10074C00FB614FF081433B62154B7B627B681D461E
:10075C0007F108040FCC0FC594E80F0085E80F00D3
:10076C007B6803F1200407F108050FCD0FC495E851
:10077C000F0084E80F007B6803F1400407F10805C3
:10078C000FCD0FC495E80F0084E80F0000E000BF08
:10079C002C37BD46B0BC7047000080BF000080C045
:1007AC000000F04180B485B000AF78607B68002B0E
:1007BC0001D100230CE040F20323FB607B685A69F3
:1007CC00FB681340FA689A420CBF01230023DBB28A
:1007DC0018461437BD4680BC704780B483B000AF58
:1007EC0078607B68002B10D07B684FF07E521A60CB
:1007FC007B684FF07E525A607B684FF07E529A6055
:10080C007B684FF07E52DA6000E000BF0C37BD46CB
:10081C0080BC704780B586B000AF78604FF00001A7
:10082C007868FFF709FF0346002B10D02A49786837
:10083C00FFF764FD03464FF07C511846FFF754FC5C
:10084C0003461846FFF720FF03467B610FE0224961
:10085C007868FFF753FD03464FF07C511846FFF7BD
:10086C0045FC03461846FFF70FFF03467B617B6987
:10087C00002B06DA2D2002F0EBFF7B695B423B611B
:10088C0001E07B693B613B69144AA2FB03239B0992
:10089C00184603F03BF82E2002F0DAFF3B690F4AB2
:1008AC00A2FB031292094FF47A7101FB02F29B1A1C
:1008BC00FB60FB68632B02D8302002F0C9FFFB6899
:1008CC00092B02D8302002F0C3FFF86803F01EF8A1
:1008DC0000BF1837BD4680BD00007A44D34D62106E
:1008EC0080B584B000AFF860B9607A60F868FFF743
:1008FC0091FF2C2002F0ACFFB868FFF78BFF2C2087
:10090C0002F0A6FF7868FFF785FF00BF1037BD46E1
:10091C0080BD000080B582B000AF786039607B6824
:10092C00DB6803F01003002B11D03B6803F01003BD
:10093C00002B47D17B68DB6803F48063002B02D06B
:10094C00224802F0C9FF224802F0C6FF3AE07B6859
:10095C00DB6803F02003002B08D03B6803F0200376
:10096C00002B2FD11B4802F0B7FF2BE07B68DB6814
:10097C0003F00203002B25D03B6803F00203002B8D
:10098C0020D17B68DB6803F00403002B08D01248ED
:10099C0002F080FF7B681B69184602F0B7FF02E08B
:1009AC000E4802F077FF0E4802F074FF7B68586A1D
:1009BC007B68996A7B68DB6A1A46FFF791FF0948E6
:1009CC0002F068FF00BF0837BD4680BDD880000824
:1009DC000C81000840810008748100089C8100088B
:1009EC00C4810008D481000880B582B000AF786063
:1009FC00044B1B78DBB2002B02D1786802F06CFF41
:100A0C0000BFFDE71B000020B0B5ADF5046D00AFD5
:100A1C0000F088FF02F05EFD03461A46B94B1A70CF
:100A2C00B84B1B78DBB2002B01D000BFFDE702F006
:100A3C00DDFD0346184602F0F7FD03461A46B24B9D
:100A4C001A70B14B1B78DBB2002B01D000BFFDE755
:100A5C0002F0D6FDC7F82C0802F0C8FD0246D7F804
:100A6C002C38934203D0D7F82C385B0001E0D7F830
:100A7C002C38C7F82838D7F8280802F095FB03461D
:100A8C001A46A24B1A70A14B1B78DBB2002B01D07B
:100A9C0000BFFDE702F0BEFD03464FF4E1311846FE
:100AAC0002F052FE03461A46994B1A70984B1B786B
:100ABC00DBB2002B05D1974802F00EFF964802F0EE
:100ACC000BFFD7F82C0800F059FD03461A46934B40
:100ADC001A70924B1B78DBB2002B1CD08C4B1B7802
:100AEC00DBB2002B14D18E4802F0D4FE8B4B1B785A
:100AFC00DBB2184602F00AFF8A4802F0CBFE00F087
:100B0C00D7FE0346184602F001FF874802F0C2FEEA
:100B1C008648FFF769FF03F055F807F5F6633C22AA
:100B2C000021184600F069FF814B18463C231A46F9
:100B3C00002100F062FF764B1B78DBB2002B02D158
:100B4C007C4802F0C9FE002003F00CFD07F24C7348
:100B5C0054220021184600F050FF774B18465423BE
:100B6C001A46002100F049FF0023C7F83C38684BB7
:100B7C001B78DBB2002B02D1704802F0ADFE642171
:100B8C004FF0804004F06AFB6D4B184658231A4610
:100B9C00002100F032FF002387F82738002387F864
:100BAC003B385B4B1B78DBB2002B02D1654802F063
:100BBC0093FE07F5CC631846FFF7ACFD07F5CC6345
:100BCC00184605F0CFFB034683F00103DBB2002B84
:100BDC0002D05D48FFF708FF07F50463A3F5037324
:100BEC0018462C231A46002100F007FF07F5046372
:100BFC00A3F532731846BC231A46002100F0FDFE03
:100C0C00524B1846BC231A46002100F0F6FE002376
:100C1C0087F826383E4B1B78DBB2002B11D14C48A1
:100C2C0002F05AFE4B4802F057FE4B4802F054FEBD
:100C3C004A4802F051FE4A4802F04EFE494802F082
:100C4C004BFE07F50463A3F53A73184620231A46A6
:100C5C00002100F0D2FE07F50463A3F54C7318468F
:100C6C0048231A46002100F0C8FE3F4B1846482383
:100C7C001A46002100F0C1FE254B1B78DBB2002B7D
:100C8C0008D13A4802F028FE394802F025FE3948CE
:100C9C0002F022FE4FF46131D7F82C0806F0C0FCAC
:100CAC000346002B02D03448FFF79EFE184B1B78EE
:100CBC00DBB2002B12D1314802F0ECFD4FF4613065
:100CCC0002F024FE2E4802F007FE2E4802F004FE2D
:100CDC002D4802F001FE2D4802F0FEFD07F5A06341
:100CEC001846FFF77AFD07F5A063184605F04EFF8E
:100CFC00034683F00103DBB2002B4BD02448FFF7F3
:100D0C0073FE00BF18000020190000201A000020FC
:100D1C001B000020D8810008FC8100081C0000206A
:100D2C002482000848820008D481000858820008F8
:100D3C00680000208C820008A4000020C4820008F7
:100D4C00F8000020F48200082483000850010020E1
:100D5C005883000880830008C8830008F8830008C3
:100D6C0020840008408400080C0200207C840008C9
:100D7C009C840008D0840008088500083C85000885
:100D8C005C8500086485000898850008C08500080B
:100D9C00FC85000807F50463A3F557731A46002376
:100DAC00136053609360D36013615361936107F5D3
:100DBC000463A3F56473184634231A46002100F02B
:100DCC001CFE2D4B184634231A46002100F015FE4C
:100DDC00002387F825384FF00003C7F834384FF05C
:100DEC000003C7F83038254B1B78DBB2002B0ED133
:100DFC00234802F071FD234802F06EFD224802F0F8
:100E0C006BFD224802F068FD214802F065FD1B4B8A
:100E1C001B78DBB2002B19D11E4802F03BFD01F010
:100E2C007FF90346184602F0BDFD01F08DF903462B
:100E3C00002B08D0184802F02DFD01F07BF9034679
:100E4C00184602F0AFFD154802F024FD0B4B1B7841
:100E5C00DBB2002B02D1124802F03EFD00F0EAFB9F
:100E6C0003461A460F4B1A700E4B1B78DBB2002B45
:100E7C001CD00D48FFF7B8FD540200201B000020C9
:100E8C00348600086886000890860008C086000832
:100E9C00008700084887000858870008D48100089C
:100EAC00648700081C0000208487000800F0E8FB21
:100EBC0003461A46A74B1A70A64B1B78DBB2002BC5
:100ECC0040F0B68207F2FC73184600F09FFC034614
:100EDC00002B00F0AD82A04B1D4607F2FC740FCC2A
:100EEC000FC50FCC0FC523682B60D7F8083803F05B
:100EFC000103002B2CD0D7F8FC37C7F8EC37D7F808
:100F0C000038C7F8F037B7F90C38A7F8F437B7F949
:100F1C000E38A7F8F637B7F91038A7F8F83707F5F1
:100F2C00F66207F2EC731146184602F05BFE0346BC
:100F3C00002B0DD0894B1D4607F5F6640FCC0FC561
:100F4C000FCC0FC50FCC0FC594E8070085E8070040
:100F5C00D7F8083803F00103002B3DD0D7F8FC3745
:100F6C00C7F8A037D7F80038C7F8A437B7F9143842
:100F7C00A7F8A837B7F91638A7F8AA37B7F9183869
:100F8C00A7F8AC3707F24C7207F5F4631146184614
:100F9C0003F014FB724B184607F24C73542219469B
:100FAC0000F00AFD6F4B1B78DBB2002B14D1D7F885
:100FBC00583703F03203C7F82038D7F82038002B05
:100FCC000AD007F24C73D7F83C181846FFF7A2FC6E
:100FDC00D7F85837C7F83C38D7F8083803F001036E
:100FEC00002B00F0258207F5E36207F24C7107F540
:100FFC00F663184603F026FC0346002B00F018821B
:10100C0007F50463A3F594735A6807F50463A3F515
:10101C0003731A6007F50463A3F594739A6807F5D4
:10102C000463A3F503735A6007F50463A3F5947383
:10103C00DA6807F50463A3F503739A6007F5E363B5
:10104C001846FFF7AFFB03461A4607F50463A3F5F2
:10105C0003731A7307F50463A3F594739A6907F580
:10106C000463A3F503731A6107F50463A3F5037313
:10107C00D7F834285A6107F50463A3F50373D7F83E
:10108C0030289A6107F50463A3F503734FF000024F
:10109C00DA6107F50463A3F594739A6A07F50463A0
:1010AC00A3F503731A6207F50463A3F59473DA6A64
:1010BC0007F50463A3F503735A6207F50463A3F5FC
:1010CC0094731A6B07F50463A3F503739A6207F51F
:1010DC00AF6207F234631146184605F0C7F90346B0
:1010EC0087F82638204A07F50463A3F532731046B7
:1010FC001946BC231A4600F05FFC07F50463A3F500
:10110C0032731A6807F50463A3F53A731A6007F58E
:10111C000463A3F532735A6807F50463A3F53A73B5
:10112C005A6007F50463A3F532739A6807F50463F4
:10113C00A3F53A739A6097F82638002B16D007F56A
:10114C000463A3F53273DB6803F00103002B0DD0AD
:10115C0001230CE01C00002020000020680000206F
:10116C00A40000201B00002050010020002303F0ED
:10117C000103DAB207F50463A3F53A731A7307F5A2
:10118C000463A3F53A734FF07C521A6107F50463BC
:10119C00A3F532739A6D07F50463A3F53A735A619C
:1011AC0007F50463A3F53273D3F8882007F50463BD
:1011BC00A3F53A739A6107F50463A3F53273D3F878
:1011CC00B82007F50463A3F53A73DA6107F5A26258
:1011DC0007F5AB631146184605F0ECFE9D4A07F582
:1011EC000463A3F54C731046194648231A4600F0C5
:1011FC00E3FB07F50463A3F54C73DB6803F0010311
:10120C00002B04D007F5A263184606F047FA07F541
:10121C00D86207F5E3631146184604F05BF8034601
:10122C0087F827388C4A07F50463A3F5C07310467A
:10123C00194658231A4600F0BFFB97F82738002BA5
:10124C0000F0858007F50463A3F5C073DB6803F039
:10125C000303032B7BD107F50463A3F5C073DB6891
:10126C0003F40063002B00F0AF8007F50463A3F5D3
:10127C00C0731A6807F50463A3F557731A6007F572
:10128C000463A3F5C0735A6807F50463A3F5577399
:10129C005A6007F50463A3F5577301221A7207F518
:1012AC000463A3F557734FF00002DA6007F504638B
:1012BC00A3F557734FF000021A6107F50463A3F509
:1012CC00C0731A6C07F50463A3F557735A6107F5DD
:1012DC000463A3F5C0735A6C07F50463A3F5577345
:1012EC009A6107F5966207F2E4431146184605F039
:1012FC008DFC034687F82538584A07F50463A3F597
:10130C00647314461D460FCD0FC40FCD0FC40FCD03
:10131C000FC42B68236097F82538002B0ED007F5E7
:10132C000463A3F56473DB6AC7F8343807F5046308
:10133C00A3F564731B6BC7F8303845E04FF000031E
:10134C00C7F834384FF00003C7F830383CE04FF0A2
:10135C000003C7F834384FF00003C7F8303805F0F5
:10136C003FFC07F50463A3F56473184634231A464F
:10137C00002100F042FB07F50463A3F5C0731A6863
:10138C0007F50463A3F564731A6007F50463A3F50A
:10139C00C0735A6807F50463A3F564735A6007F5C4
:1013AC000463A3F5647304229A602C4A07F5046362
:1013BC00A3F5647314461D460FCD0FC40FCD0FC497
:1013CC000FCD0FC42B682360254B1B78DBB2002B91
:1013DC002ED197F82738002B2AD097F83B3883F07A
:1013EC000103DBB2002B23D007F50463A3F5C07314
:1013FC00DB6803F00203002B1AD01A4802F04AFAF9
:10140C0007F50463A3F5C073D86C07F50463A3F563
:10141C00C073196D07F50463A3F5C0735B6D1A46B1
:10142C00FFF75EFA104802F057FA012387F83B38B1
:10143C000E4C3B46184600F011FA07F50463A3F571
:10144C0004631D460FCD0FC40FCD0FC42B68236052
:10145C0000BF2BE50C020020F800002054020020F5
:10146C001B000020A8870008C88700084400002043
:10147C0080B483B000AFEFF3108372B67B607B68EF
:10148C0018460C37BD4680BC704780B483B000AFA3
:10149C0078607B6803F00103002B00D162B600BFBB
:1014AC000C37BD4680BC704780B483B000AF2A4B6C
:1014BC001B68294A43F005031360274B1B68274B15
:1014CC001B687B607B6823F00F037B607B6843F0B9
:1014DC0004037B60214A7B681360214B1B68204A04
:1014EC0023F00F0313601F4B1B681E4A23F00103EC
:1014FC0013601D4B1B681C4A23F0010313601B4B2C
:10150C001B681A4A43F001031360194B01221A603D
:10151C00184B50221A70184B40221A600F4B1B6844
:10152C0003F00F03042B0DD10D4B1B6803F00F03BD
:10153C00002B07D10D4B1B6803F00103002B01D0CE
:10154C00012300E0002303F00103DBB218460C3743
:10155C00BD4680BC704700BF181002400008014017
:10156C0008000140000401400C0401400804014043
:10157C001404014006E400E000E100E080B596B000
:10158C0000AF7860FFF774FF7865224B00221A6079
:10159C00214B00221A60214B00221A60204B0022A2
:1015AC001A70204B184624231A46002100F025FA05
:1015BC001D4B184624231A46002100F01EFA1B4B23
:1015CC0000221A70786DFFF760FF1949786801F0F6
:1015DC0063FC0346002B01D0032317E0682000F0C6
:1015EC0007FC03461A46114B1A70104B1B78002B44
:1015FC0001D004230AE0FFF757FF034683F00103F1
:10160C00DBB2002B01D0052300E00023184658372D
:10161C00BD4680BD880200208C0200209002002074
:10162C00B8020020BC02002094020020E00200203E
:10163C00801A060080B500AF0E4B01221A600E4BCB
:10164C001B680D4A43F00103136000F0EDFC0346E8
:10165C001A460A4B1A70094B1B78002B07D0064B05
:10166C001B68054A23F001031360072300E00023E5
:10167C00184680BD1404014000040140E002002023
:10168C00B0B590B000AFFFF7F3FEF863584B1B6892
:10169C00BB63584B1B687B63554B00221A60F86B7D
:1016AC00FFF7F3FEBB6B002B01D101239BE0BB6B5F
:1016BC00012B06D9504B9A68BB6B1344013B4E4A25
:1016CC0093604E4B07F10C041D460FCD0FC40FCD8C
:1016DC000FC42B682360BB6923F00503BB6107F1C2
:1016EC000C031033184600F0ABFC03461A46444B6F
:1016FC001A70434B1B78002B06D03F4BDB68013331
:10170C003D4AD36006236EE07B6B3B61BB6943F0C3
:10171C000103BB6100F018FD0346002B37D007F125
:10172C000C031E33184600F0F1FC034687F83330E7
:10173C0097F83330002B08D101F0B2FD03467B61E2
:10174C00BB6943F00603BB612CE097F83330052BE3
:10175C0005D1294BDB690133274AD36122E097F885
:10176C003330062B09D1244B1B6A0133224A1362F6
:10177C00BB6923F00203BB6114E01F4BDB68013330
:10178C001D4AD3601E4A97F8333013700AE007F1F4
:10179C002A0300221A609A8000237B61BB6923F024
:1017AC000603BB61154B1B680133FB60FFF760FE42
:1017BC00F863124B1D4607F10C040FCC0FC50FCC70
:1017CC000FC523682B600F4B01221A700A4B5B6804
:1017DC000133094A53600C4B1B68074A1360F86BC2
:1017EC00FFF753FE002318464037BD46B0BD00BF7F
:1017FC00880200208C020020BC02002094020020F1
:10180C00E0020020B802002090020020B0B584B0A5
:10181C0000AF78607B68002B01D1002316E0FFF746
:10182C0027FEF8600B4B1B78FB72FB7A002B09D060
:10183C007B68094A1C4615460FCD0FC40FCD0FC44B
:10184C002B682360F868FFF720FEFB7A18461037E8
:10185C00BD46B0BDB802002094020020B0B58CB0DB
:10186C0000AF7860FFF704FEF8620F4B07F1080435
:10187C001D460FCD0FC40FCD0FC42B6823600B4B2F
:10188C001B68BB60F86AFFF700FE7B681D4607F11A
:10189C0008040FCC0FC50FCC0FC523682B607868DC
:1018AC003037BD46B0BD00BFBC0200209002002006
:1018BC0080B400AF024B1B781846BD4680BC704705
:1018CC00E002002080B500AF0F4B1B6803F0010352
:1018DC00002B16D00C4B01221A6001F0E1FC0346E0
:1018EC000A4A13600A4B1B68B3F1FF3F04D0084B44
:1018FC001B680133064A1360064B1B680133054A0B
:10190C00136000BF80BD00BF140401408C02002096
:10191C00880200209002002080B400AF72B600BF95
:10192C00FDE7000080B485B000AF0D4BBB60132306
:10193C007B600023FB6008E0FB689B00BA681344E3
:10194C0000221A60FB680133FB60FA687B689A42DC
:10195C00F2D300BF00BF1437BD4680BC704700BF38
:10196C00E402002080B500AF034B01225A60024B09
:10197C00024A1A60FFF7D0FFE40200204C554146A2
:10198C0080B500AF034B02225A60024B024A1A6028
:10199C00FFF7C2FFE40200204C55414680B500AF72
:1019AC00034B03225A60024B024A1A60FFF7B4FF42
:1019BC00E40200204C55414680B487B000AFF8607B
:1019CC00B9607A60FB687B61BB683B610CE03B698A
:1019DC001A787B691A707B6901337B613B6901332F
:1019EC003B617B68013B7B607B68002BEFD1FB6824
:1019FC0018461C37BD4680BC704780B487B000AF1A
:101A0C00F860B9607A60FB687B61BB68FB7408E0C6
:101A1C007B69FA7C1A707B6901337B617B68013BC3
:101A2C007B607B68002BF3D1FB6818461C37BD46E6
:101A3C0080BC704780B500AFFFF794FF80B500AF56
:101A4C00FFF790FF80B500AFFFF78CFF80B500AFBC
:101A5C00FFF788FF80B500AFFFF784FF80B500AFBC
:101A6C00FFF780FF80B500AFFFF77CFF80B500AFBC
:101A7C00FFF778FF80B500AFFFF774FF80B500AFBC
:101A8C00FFF770FF80B500AFFFF76CFF80B500AFBC
:101A9C00FFF768FF80B500AFFFF764FF80B500AFBC
:101AAC00FFF760FF80B500AFFFF75CFF80B500AFBC
:101ABC00FFF758FF80B500AFFFF754FF80B500AFBC
:101ACC00FFF750FF80B500AFFFF74CFF80B500AFBC
:101ADC00FFF748FF80B500AFFFF744FF80B500AFBC
:101AEC00FFF740FF80B500AFFFF73CFF80B500AFBC
:101AFC00FFF738FF80B500AFFFF734FF80B500AFBC
:101B0C00FFF730FF80B500AFFFF72CFF80B500AFBB
:101B1C00FFF728FF80B500AFFFF724FF80B500AFBB
:101B2C00FFF720FF80B500AFFFF71CFF80B500AFBB
:101B3C00FFF718FF80B500AFFFF714FF80B500AFBB
:101B4C00FFF710FF80B500AFFFF70CFF80B500AFBB
:101B5C00FFF708FF80B500AFFFF704FF80B500AFBB
:101B6C00FFF700FF80B500AFFFF7FCFE80B500AFBC
:101B7C00FFF7F8FE80B500AFFFF7F4FE80B500AFBD
:101B8C00FFF7F0FE80B500AFFFF7ECFE80B500AFBD
:101B9C00FFF7E8FE80B500AFFFF7E4FE80B582B03A
:101BAC0000AF124B7B60124B3B6009E07B681A68FC
:101BBC003B681A607B6804337B603B6804333B6092
:101BCC003B680C4A9342F1D30B4B3B6005E03B68FE
:101BDC0000221A603B6804333B603B68074A93421F
:101BEC00F5D3FEF711FFFFF7BDFE00BFFC87000821
:101BFC000000002018000020180000208C06002097
:101C0C0080B483B000AF03463960FB71054AFB79A1
:101C1C001370044A3B68136100BF0C37BD4680BC8F
:101C2C00704700BF3803002080B586B000AFBA60A3
:101C3C007B600346FB730B46BB730F4B02225A703F
:101C4C000D4AFB7B13720C4ABB7B5372B97BF87B3E
:101C5C007B68BA6801F008FA0346FB75FB7D064AFF
:101C6C005360FB7D002B01D0022300E000231846BB
:101C7C001837BD4680BD00BF3803002080B584B046
:101C8C0000AF0346FB710B46BB7113467B71104BC7
:101C9C0001225A700E4AFB7913720D4ABB795372AA
:101CAC000B4A7B7993727A79B979FB79184601F0F2
:101CBC0061F90346FB73FB7B054A5360FB7B002BEE
:101CCC0001D0022300E0002318461037BD4680BD2A
:101CDC003803002090B585B000AF04460846114685
:101CEC001A462346FB710346BB710B467B711346A8
:101CFC003B710023BB720423FB720123FB6057E092
:101D0C00FB79F9681846FFF77BFF2D4ABB795372B4
:101D1C002B4A7B7993722A4B0022DA72284A3B7940
:101D2C001373284B1B787A79B9791846FFF7A6FFFD
:101D3C000346FB72FB7A002B08D0FB68012B03D8FF
:101D4C00012001F0DBFA30E0FB7A35E01D4B18780E
:101D5C0007F10A02B9790123FFF766FF0346FB720C
:101D6C00FB7A002B08D0FB68012B03D8012001F073
:101D7C00C5FA1AE0FB7A1FE0BA7A114BDA72104BF3
:101D8C0003225A70BA7A7B795340DAB23B7913400A
:101D9C00DBB2002B01D100230EE00423FB72FB68A5
:101DAC00012B02D8012001F0A9FAFB680133FB607A
:101DBC00FB68022BA4D9FB7A18461437BD4690BD9C
:101DCC00380300200000002080B483B000AF78609E
:101DDC007B681B781BB21B021AB27B6801331B7821
:101DEC001BB213431BB218460C37BD4680BC704760
:101DFC0080B58AB000AF0346FB7197F90730002B12
:101E0C0001DA012300E1824AFB791370814B002235
:101E1C001A70814B00221A70804B00221A70804B72
:101E2C0000210A461A800A469A707E4B1A460023F5
:101E3C00136053609360D36013617A4B00225A6035
:101E4C0001210120FFF7DCFE714B1B7880226B21F6
:101E5C001846FFF713FF0346002B01D00223D3E0F3
:101E6C00642001F04BFA022387F8233001237B62B4
:101E7C0021E0796A0220FFF7C3FE664B00221A703C
:101E8C00634B18780123634A7521FFF7CDFE034697
:101E9C0087F8233097F82330002B03D15D4B1B7848
:101EAC00702B0CD07B6A092B02D8052001F026FA86
:101EBC007B6A01337B627B6A0A2BDAD900E000BFB4
:101ECC0097F82330002B02D097F823309CE0514B2D
:101EDC001B78702B01D0032396E0504B01221A7013
:101EEC007F2301226B210320FFF7F4FE034687F8C2
:101EFC00233097F82330002B02D097F8233083E05F
:101F0C000A2001F0FBF93F2300226C210420FFF78B
:101F1C00E1FE034687F8233097F82330002B02D0DC
:101F2C0097F8233070E0072303221A210520FFF7CE
:101F3C00D1FE034687F8233097F82330002B02D0CC
:101F4C0097F8233060E0FF23012219210620FFF7C8
:101F5C00C1FE034687F8233097F82330002B02D0BC
:101F6C0097F8233050E01B2308221B210720FFF792
:101F7C00B1FE034687F8233097F82330002B02D0AC
:101F8C0097F8233040E0182308221C210820FFF783
:101F9C00A1FE034687F8233097F82330002B02D09C
:101FAC0097F8233030E00F2303221D210920FFF77F
:101FBC0091FE034687F8233097F82330002B02D08C
:101FCC0097F8233020E00123002238210A20FFF764
:101FDC0081FE034687F8233097F82330002B02D07C
:101FEC0097F8233010E0F223002237210B20FFF763
:101FFC0071FE034687F8233097F82330002B02D06C
:10200C0097F8233000E0002318462837BD4680BDE2
:10201C000000002030030020310300203203002098
:10202C00340300203803002080B500AF01230122C7
:10203C0038210F20FFF74EFE0346184680BD0000E6
:10204C0080B586B000AF78607B68002B01D101238E
:10205C0056E001211020FFF7D3FD2B4B187807F128
:10206C0008020E233B21FFF7DFFD0346002B01D0B6
:10207C00022345E007F108031846FFF7A5FE0346C7
:10208C001A467B681A8007F1080302331846FFF7DB
:10209C009BFE03461A467B685A8007F108030433FB
:1020AC001846FFF791FE03461A467B689A8007F1A3
:1020BC00080306331846FFF787FE03461A467B686B
:1020CC00DA8007F1080308331846FFF77DFE034654
:1020DC001A467B681A8107F108030A331846FFF782
:1020EC0073FE03461A467B685A8107F108030C33CA
:1020FC001846FFF769FE03461A467B689A8100234F
:10210C0018461837BD4680BD0000002080B483B04F
:10211C0000AF7860072318460C37BD4680BC70476B
:10212C0080B400AF024B1B781846BD4680BC70478C
:10213C003003002080B400AF024B1B781846BD461C
:10214C0080BC70473103002080B400AF054B1B7876
:10215C00022B0CBF01230023DBB21846BD4680BC0A
:10216C00704700BF3203002080B483B000AFEFF3A0
:10217C00108372B67B607B6818460C37BD4680BCFA
:10218C00704780B483B000AF78607B6803F00103C4
:10219C00002B00D162B600BF0C37BD4680BC704727
:1021AC0080B483B000AF00237B6003E000BF7B688A
:1021BC0001337B607B687F2BF8D900BF00BF0C37E5
:1021CC00BD4680BC7047000080B483B000AF0346AE
:1021DC00FB71044AFB7982F8313000BF0C37BD46E5
:1021EC0080BC70474C03002080B483B000AF034622
:1021FC000A46FB711346BB71164AFB7982F83030E4
:10220C00144ABB7982F83130124AFB7982F83830A3
:10221C00104ABB7982F839300E4B5B6B0D4AD36395
:10222C000D4B1B680B4A53640C4B1B68094A936497
:10223C000B4B1B68074AD3640A4B1B68054A136592
:10224C00094B1B68034A536500BF0C37BD4680BC65
:10225C00704700BF4C030020005400401454004051
:10226C001854004010540040080C014080B483B056
:10227C0000AF0346FB71FB79033B062B3AD801A256
:10228C0052F823F0C5220008AD220008B92200083C
:10229C00D1220008DD220008E9220008F5220008FE
:1022AC00174B5B690133164A536124E0144B9B694D
:1022BC000133134A93611EE0114BDB690133104A61
:1022CC00D36118E00E4B1B6A01330D4A136212E006
:1022DC000B4B5B6A01330A4A53620CE0084B9B6A56
:1022EC000133074A936206E0054BDB6A0133044A6B
:1022FC00D36200E000BF00BF0C37BD4680BC704706
:10230C004C03002080B483B000AF78607B6803F48A
:10231C008073002B01D0062315E07B6803F4007357
:10232C00002B01D007230EE07B6803F48063002BA5
:10233C0001D0052307E07B6803F40063002B01D078
:10234C00082300E0002318460C37BD4680BC7047BC
:10235C0080B483B000AF074B1B687B607B6823F4B1
:10236C0070637B60034A7B68136000BF0C37BD460B
:10237C0080BC70471454004080B586B000AF7860C4
:10238C000B46FB70FB781846FFF71EFF00237B61A2
:10239C0021E0194B1B683B613869FFF7B3FF03461B
:1023AC00FB73FB7B002B0BD0FA78FB7B114618469A
:1023BC00FFF71AFFFB7B1846FFF758FFFB7B17E074
:1023CC003A697B6813407A689A4201D100230FE086
:1023DC007B6901337B617B69084A9342D9D9FB78CD
:1023EC0019460420FFF700FF0420FFF73FFF0423EA
:1023FC0018461837BD4680BD145400403F0D0300ED
:10240C0080B582B000AF0220FFF7DEFE00237B60B8
:10241C002BE0244B1B681846FFF774FF0346BB7078
:10242C00BB78002B0AD0BB7802211846FFF7DCFEE4
:10243C00BB781846FFF71AFFBB782EE01A4B1B68C7
:10244C0003F00203002B0DD1184B1B6803F400732F
:10245C00002B07D1164B1B6803F0C003C02B01D116
:10246C0000231AE07B6801337B607B68114A93423E
:10247C00CFD90F4B1B6803F0C003C02B01D1032332
:10248C0000E00923FB70FB7802211846FFF7ACFE35
:10249C00FB781846FFF7EAFEFB7818460837BD466E
:1024AC0080BD00BF1454004018540040005400403C
:1024BC00080C01403F0D030080B582B000AF0F2027
:1024CC00FFF782FE00237B6010E0114B1B6803F4C6
:1024DC000073002B07D10F4B1B6803F00203002B7A
:1024EC0001D100230FE07B6801337B607B684CF2E9
:1024FC004F329342E9D90F210420FFF775FE0420D7
:10250C00FFF7B4FE042318460837BD4680BD00BF54
:10251C00005400401854004080B582B000AF072032
:10252C00FFF752FE054B1B687B60054B1B687B60FD
:10253C007B6800BF0837BD4680BD00BF1454004007
:10254C001854004080B483B000AF0F4B1B680E4A88
:10255C0043F0C00313600D4B1B687B607B6823F05A
:10256C007F437B607B6843F07F437B60074A7B68DB
:10257C001360054B1B68044A43F0C003136000BF93
:10258C000C37BD4680BC70470C0C0140000C014060
:10259C0080B483B000AF0F4B1B680E4A43F0C003EE
:1025AC0013600D4B1B687B607B6823F07F437B6063
:1025BC007B6843F0CC437B60074A7B681360054B18
:1025CC001B68044A43F0C003136000BF0C37BD46C0
:1025DC0080BC70470C0C0140000C014080B485B0ED
:1025EC0000AF78600023FB600AE00B4B1A687B6835
:1025FC001340002B01D0012308E0FB680133FB6082
:10260C00FB684CF24F329342EFD900231846143733
:10261C00BD4680BC704700BF080C014080B582B03D
:10262C0000AF1120FFF7D0FDFFF7B2FFFFF7B8FDA9
:10263C004020FFF7D3FF034683F00103DBB2002BEE
:10264C0008D011210920FFF7CFFD0920FFF70EFE5E
:10265C0009236AE000237B6024E0364B1B68354A73
:10266C0023F040031360FFF79BFD324B1B68314A8C
:10267C0043F0400313604020FFF7B0FF034683F0A4
:10268C000103DBB2002B08D011210920FFF7ACFDB0
:10269C000920FFF7EBFD092347E0FFF781FD7B687D
:1026AC0001337B607B68082B05D8234B1B6803F038
:1026BC008003002BD1D01F4B1B681E4A23F08003D4
:1026CC001360FFF76DFD1B4B1B681A4A43F0400368
:1026DC0013604020FFF782FF034683F00103DBB257
:1026EC00002B08D011210920FFF77EFD0920FFF7F0
:1026FC00BDFD092319E0FFF753FD0E4B1B680D4A76
:10270C0043F080031360FFF74BFD0B4B1B6803F08A
:10271C00C003C02B08D011210920FFF765FD09204B
:10272C00FFF7A4FD092300E0002318460837BD4637
:10273C0080BD00BF0C0C0140080C014080B489B076
:10274C0000AFF860B9607A603B60FB68002B0BD07F
:10275C00BB68002B08D07B68002B05D03B68002B96
:10276C0002D0BB6A002B01D101236EE0FB68394A11
:10277C00A2FB03239B0CBB61BB69012B11D9BB6969
:10278C00242B0ED8FA68334BA3FB02139B0C324953
:10279C0001FB03F3D31A002B03D1BB682F4A9342DE
:1027AC0001D9022351E07B68BA691A60BB682C4AD4
:1027BC0093421DD8BB685B003B61FA683B691344CC
:1027CC005A1E3B69B2FBF3F3FB61FB69032B01D887
:1027DC000423FB61FB69B3F5805F01D3022334E072
:1027EC003B68FA691A60BB695A1CBB6A1A602BE019
:1027FC00BB69032B01D8022327E0BA6813465B00A0
:10280C0013447B61FA687B6913445A1E7B69B2FBE3
:10281C00F3F3FB61FB69002B03D0FB69B3F5805F1D
:10282C0001D3022311E0FB6943F400423B681A60B8
:10283C00BB694FF4967202FB03F30A4AA2FB032313
:10284C009B095A1CBB6A1A60002318462437BD46E4
:10285C0080BC704783DE1B4340420F00801A060089
:10286C00A0860100D34D621080B58AB002AFF8602B
:10287C00B9601346FB7107F1140107F1180207F157
:10288C00100300930B46B968F868FFF757FF03462F
:10289C00FB77FB7F002B01D0FB7F3AE01F4B1B68C3
:1028AC001E4A43F0080313601D4B1B681C4A43F47B
:1028BC00001313601A4B1B68FFF744FEFB79002BC7
:1028CC000BD0184B1B68174A43F400131360154BBD
:1028DC001B68144A23F400131360134B00221A6074
:1028EC00124ABB691360124B4FF480421A60114BB1
:1028FC0000221A60104A7B691360104A3B6913600E
:10290C00FFF726FD084B40F201421A60FFF778FDF5
:10291C00034618462037BD4680BD00BF1810024044
:10292C001C1002401010024000540040045400409F
:10293C00085400400C5400401C54004020540040EB
:10294C0080B582B000AF1020FFF73EFC0D4B1B682A
:10295C007B607B6803F00103002B0BD00A4B1B68D8
:10296C0003F40073002B05D1074B1B68064A43F494
:10297C0000731360FFF7A0FD034618460837BD46E9
:10298C0080BD00BF185400400054004080B582B098
:10299C0000AF354B1B7883F00103DBB2002B05D065
:1029AC00324B0A2283F840200A2359E02F4BDB6874
:1029BC0001332E4AD3602D4B002283F84020FFF7C1
:1029CC00BFFFFFF7C5FCFFF729FE0346FB71FB7940
:1029DC00002B0CD0254B1B690133244A1361234A6D
:1029EC00FB7982F84030FFF7ADFDFB7938E0FFF75B
:1029FC00A9FD1220FFF7E8FB1D4B4FF400421A60B3
:102A0C00FFF7CEFB1A4B00221A601320FFF7DCFBFA
:102A1C00184B1B68184A116800221846FFF724FF50
:102A2C000346FB71FB79002B0ED0104B1B69013355
:102A3C000E4A13610D4B0A2283F8402013210A2001
:102A4C00FFF7D2FB0A230BE0084B002283F840204F
:102A5C00064B002283F830200020FFF7B5FB002343
:102A6C0018460837BD4680BDB40300204C03002037
:102A7C0000540040AC030020B003002080B584B0AB
:102A8C0000AF0346FB710B46BB7113467B717B7920
:102A9C00002B01D00C2300E003231846FFF794FB16
:102AAC00134B1B68124A43F48073136004210120FA
:102ABC00FFF762FC0346FB73FB7B002B01D0FB7B17
:102ACC0012E00520FFF780FBFB795B00BA79002A46
:102ADC0001D0012200E00022064913430B600621BD
:102AEC000220FFF749FC034618461037BD4680BD4F
:102AFC00005400401054004080B584B000AF034631
:102B0C00FB710B46BB7113467B71FFF779FC0346D7
:102B1C00FB73FB7B002B01D0FB7B47E0FB79002296
:102B2C0000211846FFF7AAFF0346FB73FB7B002B23
:102B3C0001D0FB7B3AE0FFF7EFFC0A218020FFF786
:102B4C001BFC0346FB73FB7B002B01D0FB7B2DE0B6
:102B5C000820FFF739FB174ABB7913600A21802044
:102B6C00FFF70AFC0346FB73FB7B002B01D0FB7BBE
:102B7C001CE00920FFF728FB0E4A7B7913600B2120
:102B8C000420FFF7F9FB0346FB73FB7B002B01D002
:102B9C00FB7B0BE00F20FFF717FB074B1B68064A6C
:102BAC0043F400731360FFF787FC03461846103795
:102BBC00BD4680BD105400400054004080B588B024
:102BCC0000AFBA607B600346FB730B46BB73FFF729
:102BDC0017FC0346FB77FB7F002B01D0FB7F35E115
:102BEC00FB7B002200211846FFF748FF0346FB77CA
:102BFC00FB7F002B01D0FB7F28E1FFF78DFC0A2126
:102C0C008020FFF7B9FB0346FB77FB7F002B01D03D
:102C1C00FB7F1BE10820FFF7D7FA8E4ABB7B1360C2
:102C2C000B210420FFF7A8FB0346FB77FB7F002B4F
:102C3C0001D0FB7F0AE1884B1B68874A23F40063B1
:102C4C001360854B1B68844A43F480631360FB7BE1
:102C5C00012201211846FFF711FF0346FB77FB7F8A
:102C6C00002B01D0FB7FF1E07B68012B2AD1FFF711
:102C7C007BFA7861784B1B68774A23F48063136086
:102C8C00FFF74AFC744B1B68734A43F400731360E0
:102C9C007869FFF776FA0E214020FFF76DFB0346AB
:102CAC00FB77FB7F002B40F0C1800D20FFF78CFAE7
:102CBC00684B1B68DAB2BB681A70FFF7FDFB034662
:102CCC00FB77B3E07B68022B42D1634B1B68624AF3
:102CDC0043F400631360604B1B685F4A43F48063EA
:102CEC001360FFF741FA7861FFF716FC5A4B1B682B
:102CFC00594A23F4806313607869FFF742FA0B2179
:102D0C000420FFF739FB0346FB77FB7F002B40F0D9
:102D1C008D80FFF729FA78614F4B1B684E4A43F4BC
:102D2C00007313600D20FFF74FFA4A4B1B68DAB2A1
:102D3C00BB681A70474B1A68BB680133D2B21A7061
:102D4C007869FFF71EFAFFF7B7FB0346FB776DE0D8
:102D5C00FFF7E2FB7B68BB6115E00E214020FFF71B
:102D6C000BFB0346FB77FB7F002B0CD10D20FFF7F1
:102D7C002BFA384B1968BB685A1CBA60CAB21A7065
:102D8C00BB69013BBB61BB69032B02D9FB7F002BE9
:102D9C00E3D0FB7F002B05D10B210420FFF7ECFACD
:102DAC000346FB77FB7F002B2ED1FFF7DDF9786113
:102DBC00294B1B68284A23F4806313600D20FFF70E
:102DCC0003FA244B1968BB685A1CBA60CAB21A7051
:102DDC00BB69013BBB61204B1B681F4A43F400736A
:102DEC0013601C4B1968BB685A1CBA60CAB21A70C3
:102DFC00BB69013BBB617869FFF7C3F90E21402029
:102E0C00FFF7BAFA0346FB77FB7F002B0ED10D20A0
:102E1C00FFF7DAF90F4B1B68DAB2BB681A70BB69A3
:102E2C00013BBB61FFF748FB0346FB77FB7F002BA5
:102E3C000BD1094B1B68084A23F400631360064B43
:102E4C001B68054A43F480631360FB7F18462037E8
:102E5C00BD4680BD105400400054004080B584B085
:102E6C0000AF0346FB71FFF791FD0346FB73094A64
:102E7C00FB7B82F84030FB7B002B05D013210A2012
:102E8C00FFF7B2F90A2300E0002318461037BD46BD
:102E9C0080BD00BF4C03002080B5A0B002AF7860AD
:102EAC003960304B184660231A460021FEF7A5FD09
:102EBC002D4B00221A700120FFF786F907F16C01E7
:102ECC0007F1700207F1680300930B4639687868C4
:102EDC00FFF734FC034687F8773097F87730002BF0
:102EEC0008D097F8773001211846FFF77DF997F84D
:102EFC00773033E01D4A7B6813601D4A3B681360D2
:102F0C00194B01221A70174A3B68936501223968E4
:102F1C007868FFF7A9FC034687F8773097F8773085
:102F2C00002B08D10F4B002283F830200020FFF734
:102F3C004BF9002312E0FFF729FD034687F87730A1
:102F4C0097F87730002B08D097F877301321184674
:102F5C00FFF74AF997F8773000E0002318467837E6
:102F6C00BD4680BD4C030020B4030020AC03002000
:102F7C00B003002080B584B000AF0346FB710B4654
:102F8C00BB7113467B710A23FB7297F90730002B38
:102F9C0006DB334B1B7883F00103DBB2002B01D033
:102FAC00012358E02F4B1B6801332E4A13602D4A26
:102FBC00FB7982F85C302B4ABB7982F85D30294B67
:102FCC000122A3F85E200123FB602FE0254AFB6859
:102FDC0053637A79B979FB791846FFF78DFD03466F
:102FEC00FB72FB7A002B0DD11E4B5B6801331D4A23
:102FFC0053601C4B002283F830200020FFF7E4F8CC
:10300C00002328E0FB68032B14D0164B9B6801337C
:10301C00144A9360FB7A1846FFF720FF0346002BF7
:10302C0001D00A2317E0FB680133FB60FB68032B1C
:10303C00CCD900E000BFFFF7A9FC0346002B05D05C
:10304C00084B0A2283F830200A2304E0054AFB7A55
:10305C0082F83030FB7A18461037BD4680BD00BF71
:10306C00B40300204C03002080B586B000AFBA60DA
:10307C007B600346FB730B46BB730A23FB7497F907
:10308C000F30002B10DBBB68002B0DD07B68002BA6
:10309C000AD07B68B3F5803F06D2334B1B7883F0A4
:1030AC000103DBB2002B01D0012359E02F4B1B682D
:1030BC0001332E4A13602D4AFB7B82F85C302B4A7D
:1030CC00BB7B82F85D307B689AB2284BA3F85E20FC
:1030DC0001237B612FE0254A7B695363B97BF87B25
:1030EC007B68BA68FFF76AFD0346FB74FB7C002B18
:1030FC000DD11E4B5B6801331C4A53601B4B0022E5
:10310C0083F830200020FFF75FF8002328E07B696C
:10311C00032B14D0154B9B680133144A9360FB7C32
:10312C001846FFF79BFE0346002B01D00A2317E03D
:10313C007B6901337B617B69032BCCD900E000BF39
:10314C00FFF724FC0346002B05D0084B0A2283F81A
:10315C0030200A2304E0054AFB7C82F83030FB7CEB
:10316C0018461837BD4680BDB40300204C03002020
:10317C0080B483B000AFEFF3108372B67B607B68D2
:10318C0018460C37BD4680BC704780B483B000AF86
:10319C0078607B6803F00103002B00D162B600BF9E
:1031AC000C37BD4680BC704780B485B000AF7860EA
:1031BC007B68002B0AD07A682D4BA3FB02139B0C67
:1031CC002C4901FB03F3D31A002B01D001234AE055
:1031DC007B68274AA2FB03239B0CFB60FB68002B3C
:1031EC0003D0FB68B3F5803F01D902233BE0224BAF
:1031FC001B68214A43F0010313601F4B1B684FF0FF
:10320C00804300221A601D4B00221A601C4B0022C6
:10321C001A601C4AFB68013B13601B4B4FF6FF7294
:10322C001A601A4B00221A60194B00221A604FF0D8
:10323C00804304221A60174B01221A60104B1B6842
:10324C000F4A23F001031360134B60221A70134BC7
:10325C004FF080521A60094B01221A604FF08043E4
:10326C0005221A60002318461437BD4680BC7047EF
:10327C0083DE1B4340420F001C1002400C00004038
:10328C0010000040280000402C00004024000040AA
:10329C00B8030020140000401CE400E000E100E052
:1032AC0080B584B000AFFFF763FF7860104B1B68EC
:1032BC00FB60104B1B689BB2BB600F4B1B683B60E9
:1032CC003B6803F00103002B07D0FB6803F5803348
:1032DC00FB60084B1B689BB2BB607868FFF755FF1F
:1032EC00FA68BB68134418461037BD4680BD00BF52
:1032FC00B8030020240000401000004080B584B0CA
:10330C0000AF78600FE0FFF7CBFFF86000E000BF84
:10331C00FFF7C6FF0246FB68D31AB3F57A7FF6D3E4
:10332C007B68013B7B607B68002BECD100BF00BF4E
:10333C001037BD4680BD000080B400AF0A4B1B683F
:10334C0003F00103002B0BD0074B1B68064A23F03C
:10335C0001031360054B1B6803F58033034A1360AC
:10336C0000BFBD4680BC704710000040B803002071
:10337C0080B487B000AFF860B9607A6000237B61DD
:10338C000BE0FB681A68BB6813407A689A4201D15B
:10339C00012310E07B6901337B617B69084A93420E
:1033AC00EFD9FB681A68BB6813407A689A420CBF65
:1033BC0001230023DBB218461C37BD4680BC704786
:1033CC003F420F0080B400AF094B0A4A1A600A4B07
:1033DC00084A1A60094B074A1A60094B054A1A60D9
:1033EC00084B094A1A6000BFBD4680BC704700BF3D
:1033FC000400002000127A00080000200C000020BD
:10340C00100000201400002000093D0080B584B09D
:10341C0000AF0346FB712C4B1B682B4A43F0010396
:10342C001360022202212848FFF7A2FF034683F013
:10343C000103DBB2002B01D0042341E0224B5B687B
:10344C00214A23F00303536000220C211F48FFF78D
:10345C008FFF034683F00103DBB2002B01D0042362
:10346C002EE0194B1B68184A23F08073136000225E
:10347C004FF000711448FFF77BFF034683F0010304
:10348C00DBB2002B01D004231AE00F4B1B680E4A51
:10349C0023F4803313600C4B5B68FB60FB6823F4F4
:1034AC007F4323F0F003FB60074AFB685360084B33
:1034BC001B68074A23F007031360FFF783FFFB79B0
:1034CC0018461037BD4680BD001002400410024063
:1034DC000020024080B582B000AFFFF773FF374B7E
:1034EC001B68364A43F4803313604FF400324FF4B8
:1034FC0000313248FFF73CFF034683F00103DBB297
:10350C00002B04D00120FFF781FF034652E02C4B27
:10351C0012221A60294B5B687B607A68294B134036
:10352C007B607B6843F4EC1343F480637B60234A39
:10353C007B685360214B1B68204A43F080731360F7
:10354C004FF000724FF000711C48FFF711FF03465B
:10355C0083F00103DBB2002B04D00220FFF756FFEF
:10356C00034627E0154B5B6823F00303134A43F033
:10357C000203536008220C211348FFF7F9FE03469F
:10358C0083F00103DBB2002B04D00320FFF73EFFD6
:10359C0003460FE00D4B0E4A1A600E4B0C4A1A6094
:1035AC000D4B0E4A1A600E4B094A1A600D4B0E4A0F
:1035BC001A60002318460837BD4680BD0010024033
:1035CC00002002400C00C0FF041002400400002048
:1035DC0000A24A04080000200C0000200051250223
:1035EC001000002014000020001BB70080B400AFB6
:1035FC00024B1B681846BD4680BC70470800002073
:10360C0080B400AF024B1B681846BD4680BC7047A7
:10361C000C00002080B400AF024B1B681846BD465E
:10362C0080BC70471000002080B487B000AF786079
:10363C00244B00221A607B68002B01D101233CE053
:10364C007A68214BA3FB02139B094FF47A7101FB9F
:10365C0003F3D31A002B01D001232EE07B681A4A06
:10366C00A2FB03239B097B617B69002B03D07B6945
:10367C00B3F1807F01D902231FE07B69013B3B61E1
:10368C00124B00221A60124A3B6923F07F431360ED
:10369C00104B00221A60104B1B68FB60FB6823F078
:1036AC007F43FB60FB6843F07043FB600A4AFB6896
:1036BC001360044B07221A60002318461C37BD46C2
:1036CC0080BC704710E000E0D34D6210BC030020BA
:1036DC0014E000E018E000E020ED00E080B400AF62
:1036EC00044B1B680133034A136000BFBD4680BC0A
:1036FC00704700BFBC03002080B483B000AF002330
:10370C007B600AE00E4B1B6803F08003002B01D09A
:10371C0001230FE07B6801337B607B68094A93428D
:10372C00F0D9074B1B6803F08003002B14BF012357
:10373C000023DBB218460C37BD4680BC704700BF77
:10374C00003801409F86010080B584B000AF7860DE
:10375C003960384B00221A707B68002B02D03B6812
:10376C00002B01D1012361E03B685A087B681A44A5
:10377C003B68B2FBF3F3FB60FB680F2B03D9FB68D0
:10378C00B3F5803F01D3022350E02B4B1B682A4A30
:10379C0043F4804343F004031360274B1B68274B0F
:1037AC001B68BB60BB6823F0F003BB60BB6843F0D5
:1037BC00A003BB60214ABB681360214B00221A6036
:1037CC00204B00221A60204B00221A601C4B4FF435
:1037DC0000521A601D4AFB681360194B42F2080232
:1037EC001A60164B1B6803F0F003A02B15D1174B76
:1037FC001B68FA689A4210D1114B1A6842F20803FE
:10380C00134042F20802934207D1FFF775FF0346BB
:10381C0083F00103DBB2002B04D0094B00221A60A9
:10382C00032303E0034B01221A70002318461037C0
:10383C00BD4680BDC00300201810024004080140A2
:10384C000C38014010380140143801400838014050
:10385C0080B582B000AF0346FB710C4B1B7883F034
:10386C000103DBB2002B07D1FFF746FF034683F0C1
:10387C000103DBB2002B01D0002303E0044AFB79E7
:10388C001360012318460837BD4680BDC0030020D5
:10389C000438014080B582B000AF78607B68002BA3
:1038AC0011D1002314E07B681B781846FFF7D0FF7A
:1038BC00034683F00103DBB2002B01D0002307E0A9
:1038CC007B6801337B607B681B78002BEBD1012379
:1038DC0018460837BD4680BD80B582B000AF786011
:1038EC007868FFF7D7FF034683F00103DBB2002BA8
:1038FC0001D0002303E00448FFF7CCFF0346184631
:10390C000837BD4680BD00BFE087000880B586B093
:10391C0000AF78607B68002B04D13020FFF798FF54
:10392C00034639E000237B611BE079681C4BA3FB49
:10393C000123DA0813469B0013445B00CA1AD3B266
:10394C003033D9B207F108027B6913440A461A7066
:10395C007B6901337B617B68114AA2FB0323DB0883
:10396C007B607B68002BE0D112E07B69013B7B61C3
:10397C0007F108027B6913441B781846FFF768FFB0
:10398C00034683F00103DBB2002B01D0002303E0DC
:10399C007B69002BE9D1012318461837BD4680BD41
:1039AC00CDCCCCCC80B584B000AF78601648FFF796
:1039BC0071FF034683F00103DBB2002B01D000231F
:1039CC001DE01C23FB607A68FB6822FA03F303F00A
:1039DC000F030E4AD35C1846FFF73AFF034683F0F9
:1039EC000103DBB2002B01D0002308E0FB68002BA5
:1039FC0003D0FB68043BFB60E5E700BF01231846DE
:103A0C001037BD4680BD00BFE4870008E88700087A
:103A1C0080B485B000AF0346FB800B46BB801346D9
:103A2C007B80B7F90620B7F904309A4205DDFB8894
:103A3C00FB81BB88FB80FB89BB80B7F90420B7F9FD
:103A4C0002309A4205DDBB88FB817B88BB80FB89F9
:103A5C007B80B7F90620B7F904309A4201DDFB8868
:103A6C00BB80B7F9043018461437BD4680BC70478C
:103A7C0090B585B000AF786039607B681B7C83F0B3
:103A8C000103DBB2002B10D07B683A681A607B68AC
:103A9C003A685A607B683A689A607B683A68DA6080
:103AAC007B6801221A743B6848E026493868FCF7A9
:103ABC0025FC03461C467B681B6823491846FCF70B
:103ACC001DFC034619462046FCF710FB03461C461A
:103ADC007B685B681B491846FCF710FC03461946CB
:103AEC002046FCF703FB03461C467B689B68174982
:103AFC001846FCF703FC034619462046FCF7F6FA79
:103B0C0003461C467B68DB6811491846FCF7F6FB3C
:103B1C00034619462046FCF7E7FA0346FB607B6830
:103B2C001A687B685A607B683A681A607B689A6886
:103B3C007B68DA607B68FA689A60FB681846143711
:103B4C00BD4690BD8CE05A3C8CE0DA3CF8DFD23FAD
:103B5C00F96D333F80B483B000AF78607B68B3F904
:103B6C00083047F6F77293421FDC7B68B3F90830D4
:103B7C00134A934219DB7B68B3F90A3047F6F772A4
:103B8C00934212DC7B68B3F90A300D4A93420CDB8A
:103B9C007B68B3F90C3047F6F772934205DC7B680F
:103BAC00B3F90C30064A934201DA012300E00023FA
:103BBC0003F00103DBB218460C37BD4680BC7047DE
:103BCC000980FFFF80B596B000AF054B184658230F
:103BDC001A460021FDF711FF00BF5837BD4680BDC6
:103BEC00C403002080B592B000AF786039607B6868
:103BFC00002B02D03B68002B01D1002350E13B6825
:103C0C0018463C231A460021FDF7F7FE7B681A681C
:103C1C003B681A607B685A683B685A607B68B3F9EA
:103C2C0008203B689A817B68B3F90A203B68DA81EB
:103C3C007B68B3F90C203B681A829B4B93F8543089
:103C4C00002B0AD07B681A68974B1B6D9A4204D1E3
:103C5C003B6810229A60002322E17868FFF77AFF14
:103C6C000346002B04D03B6808229A60002317E11E
:103C7C007B681B688C4A13658B4B012283F854209C
:103C8C00894BDB7C002B33D17B68B3F90820864B46
:103C9C001A807B68B3F90820834B5A807B68B3F990
:103CAC000820814B9A807B68B3F90A207E4BDA801E
:103CBC007B68B3F90A207C4B1A817B68B3F90A2024
:103CCC00794B5A817B68B3F90C20774B9A817B68CE
:103CDC00B3F90C20744BDA817B68B3F90C20724B6E
:103CEC001A82714B0322DA746F4B01229A742EE004
:103CFC006D4B9B7C87F8473097F847307A68B2F960
:103D0C000810694A22F8131097F847307A68B2F90C
:103D1C000A10654A5B0013440A46DA8097F847306C
:103D2C007A68B2F90C10604A04335B0013440A46FB
:103D3C009A8097F84730591C5C4BA3FB01235A0817
:103D4C0013465B001344CA1AD2B2574B9A74564BA3
:103D5C00B3F90030544AB2F90210534AB2F90420B4
:103D6C001846FFF755FE03461A463B685A824E4BDF
:103D7C00B3F906304C4AB2F908104B4AB2F90A2092
:103D8C001846FFF745FE03461A463B689A82464B97
:103D9C00B3F90C30444AB2F90E10434AB2F9102070
:103DAC001846FFF735FE03461A463B68DA823B6835
:103DBC00B3F912301846FCF74DFA03463C49184645
:103DCC00FCF792F903463B491846FCF74BFB0346BC
:103DDC001A463B689A613B68B3F914301846FCF7F5
:103DEC0039FA034634491846FCF77EF90346334941
:103DFC001846FCF737FB03461A463B68DA613B680A
:103E0C00B3F916301846FCF725FA03462C49184628
:103E1C00FCF76CF903462B491846FCF723FB0346C9
:103E2C001A463B681A623B689B6919462648FFF79D
:103E3C001FFE02463B685A623B68DB691946234801
:103E4C00FFF716FE02463B689A623B681B6A1946EE
:103E5C001F48FFF70DFE02463B68DA623B685B6A5F
:103E6C001C491846FCF74AFA03461A463B681A6383
:103E7C003B689B6A17491846FCF740FA03461A46FA
:103E8C003B685A633B68DB6A12491846FCF736FA02
:103E9C0003461A463B689A633B6807229A600123E3
:103EAC0018464837BD4680BDC4030020ABAAAAAA59
:103EBC00DE13BB41BC2AFF4593A912418DDDFF45A2
:103ECC00DA7BDE4283A50046D8030020EC030020F9
:103EDC00000400200AE81C4180B483B000AF786075
:103EEC007B68B3F9083047F6F77293421FDC7B68A6
:103EFC00B3F90830134A934219DB7B68B3F90A30E3
:103F0C0047F6F772934212DC7B68B3F90A300D4A1C
:103F1C0093420CDB7B68B3F90C3047F6F772934293
:103F2C0005DC7B68B3F90C30064A934201DA0123B5
:103F3C0000E0002303F00103DBB218460C37BD464A
:103F4C0080BC70470980FFFF80B483B000AF7860FD
:103F5C0039607B681A683B681A607B685A683B68F2
:103F6C005A607B68B3F908203B681A837B68B3F905
:103F7C000A203B685A837B68B3F90C203B689A8310
:103F8C000C4B9A6C3B685A620A4BDA6C3B689A622F
:103F9C00084B1A6D3B68DA62064B1A6C3B681A6167
:103FAC00044B5A6C3B685A6100BF0C37BD4680BC51
:103FBC00704700BF2004002080B483B000AF78604D
:103FCC001D4B01221A701C4A7B6853601A4B01224C
:103FDC001A7219494FF000024FF00003C1E9042393
:103FEC0015494FF000024FF00003C1E906231249B6
:103FFC004FF000024FF00003C1E908230E494FF0C7
:10400C0000024FF00003C1E90A230B494FF00002F4
:10401C004FF00003C1E90C2307494FF000024FF0A9
:10402C000003C1E90E23044B00221A6400BF0C37B5
:10403C00BD4680BC704700BF2004002080B483B014
:10404C0000AF78601D4B02221A701C4A7B685360CB
:10405C001A4B01221A7219494FF000024FF000035B
:10406C00C1E9042315494FF000024FF00003C1E9E8
:10407C00062312494FF000024FF00003C1E9082358
:10408C000E494FF000024FF00003C1E90A230B491F
:10409C004FF000024FF00003C1E90C2307494FF029
:1040AC0000024FF00003C1E90E23044B00221A64F6
:1040BC0000BF0C37BD4680BC704700BF20040020F9
:1040CC002DE9F00F9AB000AFF864FB6CB3F908302F
:1040DC001BB2DA173B617A61D7E90434C7E91834AB
:1040EC00FB6CB3F90A301BB2DA17BB60FA60D7E984
:1040FC000234C7E91634FB6CB3F90C301BB2DA1777
:10410C003B607A60D7E90034C7E91434464BD3E9F5
:10411C000401D7E9182384183C6441EB03037B6446
:10412C00414BD7E91012C3E904123F4BD3E9060106
:10413C00D7E916238418BC6341EB0303FB633A4BAA
:10414C00D7E90E12C3E90612374BD3E90801D7E9B8
:10415C00142384183C6341EB03037B63324BD7E994
:10416C000C12C3E90812304BD3E90A017A6E3B6E8C
:10417C0003FB02F47A6E3B6E02FB03F3E2183B6E18
:10418C00A3FB035693191E464319BB6241EB06036E
:10419C00FB62254BD7E90A12C3E90A12224BD3E979
:1041AC000C23F96DB86D01FB00F0F96DBC6D04FBCF
:1041BC0001F10844B96DA1FB01AB00EB0B018B467F
:1041CC0012EB0A01396243EB0B037B62164BD7E906
:1041DC000812C3E90C12144BD3E90E23796D386D18
:1041EC0001FB00F0796D3C6D04FB01F10844396D65
:1041FC00A1FB018900EB0901894612EB0801B961A9
:10420C0043EB0903FB61084BD7E90612C3E90E1215
:10421C00054B1B6C0133044A136400BF6837BD4661
:10422C00BDE8F00F704700BF200400202DE9B00F4F
:10423C0097B000AFC7E90E01C7E90C233F4B1B6CCD
:10424C0000223B627A62D7E90823C7E914237A6D0E
:10425C003B6B03FB02F17A6B3B6D02FB03F31944DE
:10426C003A6D3B6BA2FB0332FA62BB62FB6ACB1862
:10427C00FB62FA6BBB6B03FB02F1FA6BBB6B02FBD1
:10428C0003F3CA18BB6BA3FB03AB02EB0B039B46FC
:10429C00D7E90A231146B1EB0A01B96163EB0B03B1
:1042AC00FB61D7E90623C7E912237B6D3A6D03FB4B
:1042BC0002F27B6D396D01FB03F31A443B6DA3FBDA
:1042CC00034553191D4622462B46911839615B4113
:1042DC007B61D7E9042312EB040843EB05094FF08B
:1042EC0000024FF000034FEA491343EAD8634FEA48
:1042FC00481218EB0201B96049EB0303FB60D7E9E4
:10430C0002120B461B193B60134645EB03037B6003
:10431C00D7E90034C7E91034D7E91223D7E91001E3
:10432C00904271EB0303ACBF01230023DBB21846B0
:10433C005C37BD46BDE8B00F704700BF20040020BD
:10434C0080B500AF144BD3E90401134BD3E90A2316
:10435C00FFF76CFF0346002B17D00F4BD3E9060178
:10436C000D4BD3E90C23FFF761FF0346002B0CD058
:10437C00094BD3E90801084BD3E90E23FFF756FF8D
:10438C000346002B01D0012300E0002303F00103BE
:10439C00DBB2184680BD00BF2004002080B582B07F
:1043AC0000AF214B1B6C1846FBF750FF03467B609C
:1043BC001D4BD3E9042310461946FBF761FF034656
:1043CC0079681846FCF74EF803461A46164B9A6461
:1043DC00154BD3E9062310461946FBF751FF03464C
:1043EC0079681846FCF73EF803461A460E4BDA6419
:1043FC000D4BD3E9082310461946FBF741FF034642
:10440C0079681846FCF72EF803461A46064B1A65CF
:10441C00054B03221A70044B002283F8602000BF66
:10442C000837BD4680BD00BF2004002080B584B095
:10443C0000AF78603960494B1B7A83F00103DBB223
:10444C00002B04D07B685B681846FFF7B5FD434B27
:10445C001B78012B13D17B685A68404B5B68D31ACD
:10446C00FB60FB683E4A934204D83B681022DA603A
:10447C0000236EE07B685B681846FFF7DFFD374B67
:10448C001B78022B64D17868FFF71AFE7B685A6898
:10449C00324B5B68D31AFB60FB68314A934208D8F5
:1044AC003B682022DA602D4B1A6C3B681A610023A2
:1044BC004FE02A4B1B6CB3F5166F12D2274B5B6C7B
:1044CC000133264A53647B685B681846FFF774FD1A
:1044DC003B681022DA60214B5A6C3B685A6100230E
:1044EC0037E0FFF72DFF034683F00103DBB2002B0F
:1044FC0017D01A4B1A6C3B681A61184B5B6C013362
:10450C00164A53647B685B681846FFF755FD3B6899
:10451C004FF48262DA60114B5A6C3B685A6100238B
:10452C0017E0FFF73BFF0D4B9A6C3B685A620B4B45
:10453C00DA6C3B689A62094B1A6D3B68DA62074B7E
:10454C001A6C3B681A613B680622DA60002300E0B3
:10455C00012318461037BD4680BD00BF2004002043
:10456C003F4B4C0080B59CB000AF0346FB710F4B2A
:10457C00184668231A460021FDF73FFAFB79002BF9
:10458C0003D00A4B01221A700BE0084B00221A7060
:10459C00064B074A9A64054B064ADA64034B064AF3
:1045AC001A6500BF7037BD4680BD00BF20040020D7
:1045BC00D7A30C4333333543F628084180B59AB062
:1045CC0000AF786039607B68002B02D03B68002B11
:1045DC0001D100232AE13B68184654231A460021D6
:1045EC00FDF70BFA39687868FFF7AEFC00237B66A1
:1045FC00904B93F85830002B0AD07B681A688D4B7F
:10460C005B6D9A4204D13B688022DA6000230DE195
:10461C00884B93F85830002B0AD07B681A68854B6E
:10462C005B6D01339A4203D07B6E43F400637B666F
:10463C007868FFF751FC0346002B06D07B6E43F0E5
:10464C0040023B68DA600023F0E07B681B68794A23
:10465C005365784B012283F85820764B1B78012B3D
:10466C0003D0744B1B78022B11D139687868FFF793
:10467C00DDFE034683F00103DBB2002B07D03B6861
:10468C00DA687B6E1A433B68DA600023CEE07B6EFF
:10469C0043F002023B68DA60664B1B78002B06D1B4
:1046AC003B68DB6843F008023B68DA6005E03B6876
:1046BC00DB6843F004023B68DA605E4B93F86030D1
:1046CC00002B29D07B685A685A4BDB6DD31A3B669A
:1046DC003B683A6E9A60386EFBF7B8FD0346564954
:1046EC001846FBF70BFE03461A463B681A623B68FA
:1046FC00DB6843F400723B68DA603B6EB3F5E16F44
:10470C0004D33B6E40F69802934205D93B68DB68B4
:10471C0043F480723B68DA607B685B68454AD3651A
:10472C00444B012283F86020424B9A6C3B685A62DE
:10473C00404BDA6C3B689A623E4B1A6D3B68DA620E
:10474C007B68B3F908301846FBF784FD0246394BF9
:10475C009B6C19461046FBF7C7FC03461A463B6890
:10476C001A637B68B3F90A301846FBF773FD0246EF
:10477C00304BDB6C19461046FBF7B6FC03461A4669
:10478C003B685A637B68B3F90C301846FBF762FD43
:10479C000246284B1B6D19461046FBF7A5FC034639
:1047AC001A463B689A633B681B6B24491846FBF717
:1047BC0059FE03461A463B68DA633B685B6B1F493C
:1047CC001846FBF74FFE03461A463B681A643B68D3
:1047DC009B6B1A491846FBF745FE03461A463B6885
:1047EC005A643B68DB6B16491846FBF787FD03469A
:1047FC001A463B689A643B681B6C11491846FBF7D8
:10480C007DFD03461A463B68DA643B685B6C0C49D9
:10481C001846FBF773FD03461A463B681A653B685E
:10482C00DB6843F001023B68DA6001231846683705
:10483C00BD4680BD20040020BD3786350000834274
:10484C0035FA8E3C80B592B000AFF860B9607A60F2
:10485C00FB68002B05D0BB68002B02D07B68002BBB
:10486C0001D1002343E07B68184634231A4600210B
:10487C00FDF7C3F8FB681A687B681A60BB681A6896
:10488C007B685A60BB685A687B689A60BB689A6898
:10489C007B68DA60FB689A687B681A61BB68DA68C7
:1048AC007B685A61BB681A6A7B689A61FB685A6AB2
:1048BC007B68DA61FB689B6A83F000427B681A6252
:1048CC00FB68DB6A83F000427B685A62BB689A6CB7
:1048DC007B689A62BB68DB6C83F000427B68DA62AF
:1048EC00BB681B6D83F000427B681A63012318467A
:1048FC004837BD4680BD80B582B000AF78604FF0C0
:10490C0000017868FBF798FE0346002B03D07B6808
:10491C0083F0004300E07B6818460837BD4680BD35
:10492C0080B582B000AF78604FF07E517868FBF7AD
:10493C00A1FE0346002B02D04FF07E5309E007493D
:10494C007868FBF779FE0346002B01D0034B00E09F
:10495C007B6818460837BD4680BD00BF000080BF8D
:10496C0090B587B000AF786039603B68002B21D0E0
:10497C0001231C4632497868FBF77CFE0346002B6A
:10498C0001D100231C46E3B283F00103DBB2002B00
:10499C0010D101231C462B497868FBF74DFE0346CA
:1049AC00002B01D100231C46E3B283F00103DBB2E0
:1049BC00002B01D000233FE07B68FB60FB685A08AA
:1049CC00214B9B1AFB60FB687B614FF07C51786834
:1049DC00FBF794FC03463B6179693869FBF78EFC65
:1049EC00034679691846FBF789FC034619464FF0D4
:1049FC007F50FBF779FB034619467869FBF77EFC81
:104A0C0003467B6179693869FBF778FC0346796961
:104A1C001846FBF773FC034619464FF07F50FBF723
:104A2C0063FB034619467869FBF768FC03467B6118
:104A3C003B687A691A60012318461C37BD4690BD45
:104A4C00CCBC8C2B00247449865A375F80B584B05B
:104A5C0000AF786039603B68002B01D1002325E062
:104A6C004FF000017868FBF7DDFD0346002B05D005
:104A7C003B684FF000021A60012317E007F10C03AA
:104A8C0019467868FFF76CFF034683F00103DBB22D
:104A9C00002B01D0002309E0FB6879681846FBF76E
:104AAC002DFC03461A463B681A6001231846103742
:104ABC00BD4680BD90B587B000AF7860396078682E
:104ACC00FFF719FF034630491846FBF70FFB034667
:104ADC00FB604FF000013868FBF7C2FD0346002B6A
:104AEC0013D0F9683868FBF7FFFA03461C46F968DF
:104AFC003868FBF7FBFA034619462046FBF7B2FC75
:104B0C0003467B61214B3B6112E0F9683868FBF787
:104B1C00EDFA03461C463968F868FBF7E5FA0346DC
:104B2C0019462046FBF79EFC03467B61184B3B6104
:104B3C0018497869FBF7E2FB034679691846FBF7DD
:104B4C00DDFB034614491846FBF7CEFA0346796998
:104B5C001846FBF7D3FB034619463869FBF7C6FA30
:104B6C0003463B614FF000017868FBF765FD034697
:104B7C00002B03D03B6983F0004300E03B691846EF
:104B8C001C37BD4690BD00BFFFE6DB2EDB0F493F57
:104B9C00E4CB1640DE02493EB1507B3F90B587B066
:104BAC0000AFF860B9607A603B60FB681A68FB681C
:104BBC001B6819461046FBF7A1FB03461C46BB6855
:104BCC001A68BB681B6819461046FBF797FB03462F
:104BDC0019462046FBF78AFA03461C467B681A687E
:104BEC007B681B6819461046FBF788FB0346194681
:104BFC002046FBF77BFA03461C463B681A683B6869
:104C0C001B6819461046FBF779FB034619462046EC
:104C1C00FBF76CFA03467B6107F1100319467869C0
:104C2C00FFF79EFE034683F00103DBB2002B01D09D
:104C3C0000232CE0FB681B683A6911461846FBF709
:104C4C005DFB03461A46FB681A60BB681B683A6931
:104C5C0011461846FBF752FB03461A46BB681A600E
:104C6C007B681B683A6911461846FBF747FB0346FD
:104C7C001A467B681A603B681B683A6911461846ED
:104C8C00FBF73CFB03461A463B681A6001231846A7
:104C9C001C37BD4690BD90B585B000AF78603960CB
:104CAC007B68DA697B68DB6919461046FBF726FBE3
:104CBC0003461C467B681A6A7B681B6A19461046B9
:104CCC00FBF71CFB034619462046FBF70FFA03467D
:104CDC001C467B685A6A7B685B6A19461046FBF770
:104CEC000DFB034619462046FBF700FA0346FB6012
:104CFC003968F868FFF7AAFE034618461437BD4614
:104D0C0090BD000080B582B000AF78600B49786828
:104D1C00FBF7A6FC0346002B08D009497868FBF783
:104D2C0095FC0346002B01D0012300E0002303F087
:104D3C000103DBB218460837BD4680BD9A99593F2E
:104D4C003333933F90B591B000AF786039607B6896
:104D5C00DB6983F0004339681846FBF783FB034695
:104D6C007B637B681B6A83F0004339681846FBF74A
:104D7C0079FB03463B637B685B6A83F000433968CD
:104D8C001846FBF76FFB0346FB62396B386BFBF77E
:104D9C00B5FA03461C46F96AF86AFBF7AFFA034604
:104DAC0019462046FBF7A2F90346BB6207F1140330
:104DBC001946B86AFFF74AFE034683F00103DBB2DB
:104DCC00002B01D00023E0E07B6972491846FBF709
:104DDC0051FC0346002B14D07B691946386BFBF74A
:104DEC0041FB03461846FFF79BFDF8637B691946A8
:104DFC00F86AFBF737FB03461846FFF791FDB863DB
:104E0C0005E04FF00003FB634FF07E53BB637B6BFD
:104E1C0083F000431846FFF783FD78627B691846E0
:104E2C00FFF77EFD38624FF07E51B86BFBF75EF9F1
:104E3C0003464FF07C511846FBF760FA03461A46BE
:104E4C0007F1100319461046FFF700FE034683F0E6
:104E5C000103DBB2002B18D1B96B4FF07E50FBF77E
:104E6C0043F903464FF07C511846FBF747FA0346CB
:104E7C001A4607F1080319461046FFF7E7FD0346EB
:104E8C0083F00103DBB2002B01D000237DE04FF057
:104E9C000001F86BFBF7D0FB0346002B03D0BB687B
:104EAC0083F0004300E0BB68FB614FF07E51386A31
:104EBC00FBF71CF903464FF07C511846FBF71EFA22
:104ECC0003461A4607F10C0319461046FFF7BEFDC0
:104EDC00034683F00103DBB2002B18D1396A4FF083
:104EEC007E50FBF701F903464FF07C511846FBF757
:104EFC0005FA03461A4607F1080319461046FFF750
:104F0C00A5FD034683F00103DBB2002B01D0002387
:104F1C003BE04FF00001786AFBF78EFB0346002B59
:104F2C0003D0BB6883F0004300E0BB68BB613B6906
:104F3C00FA6811461846FBF7E1F903461A46164B78
:104F4C00DA61FB68F9691846FBF7D8F903461A468B
:104F5C00114B1A623B69B9691846FBF7CFF9034646
:104F6C001A460D4B5A62FB6983F00043B969184627
:104F7C00FBF7C4F903461A46074B9A62074B084ADB
:104F8C0008490948FFF70AFE034618464437BD4650
:104F9C0090BD00BFBD37863588040020B0040020CA
:104FAC00AC040020A8040020A4040020B0B588B0F4
:104FBC0000AF6C4BDB697B616A4B1B6A3B61694BD5
:104FCC005B6AFB60674B9B6ABB6039697869FBF76E
:104FDC0095F903461C46B968F868FBF78FF9034648
:104FEC0019462046FBF782F8034619461846FBF78C
:104FFC007DF803461C4639693869FBF77FF903468F
:10500C001D46F968F868FBF779F9034619462846F6
:10501C00FBF76CF8034619461846FBF767F803468E
:10502C0019464FF07E50FBF75FF8034619462046B1
:10503C00FFF740FD03464B4AD362F9687869FBF7EA
:10504C005DF903461C463969B868FBF757F9034606
:10505C0019462046FBF748F8034619461846FBF755
:10506C0045F80346FB614FF07E51F869FBF702FBF4
:10507C000346002B03D04FF07E53FB6108E03A4906
:10508C00F869FBF7D9FA0346002B01D0364BFB61CC
:10509C00F969F869FBF732F9034619464FF07E506F
:1050AC00FBF722F80346BB614FF00001B869FBF730
:1050BC00C3FA0346002B02D04FF00003BB613B1D2B
:1050CC001946B869FFF7C2FC034683F00103DBB253
:1050DC00002B01D0002340E07B681946F869FFF7EC
:1050EC00E9FC03461F4A1363B9687869FBF706F9B4
:1050FC0003461C46F9683869FBF700F90346194664
:10510C002046FAF7F3FF034619461846FAF7EEFF66
:10511C0003461C46F968F868FBF7F0F803461D4691
:10512C00B968B868FBF7EAF8034619462846FAF757
:10513C00DDFF034619461846FAF7D8FF0346194611
:10514C004FF07E50FAF7D0FF034619462046FFF782
:10515C00B1FC0346034A5363012318462037BD466E
:10516C00B0BD00BF88040020000080BF80B584B0B3
:10517C0000AFF860B9607A603B60FB685A683B68C6
:10518C001A60FB689A683B685A60FB68DA683B688F
:10519C009A603B687A68DA602E4BDA683B681A6171
:1051AC002C4B1A693B685A612A4B5A693B689A61C5
:1051BC00FB689A693B68DA613B68BA681A62FB68FB
:1051CC009A6A3B685A62FB68DA6A3B689A62FB68C7
:1051DC001A6B3B68DA621F4BDA693B681A631D4B2A
:1051EC001A6A3B685A631B4B5A6A3B689A63194BA1
:1051FC009A6A3B68DA63174BDA6A3B681A64154B98
:10520C001A6B3B685A64134B5A6B3B689A64114B8C
:10521C00DB6A11491846FBF771F803461A463B68DE
:10522C00DA640C4B1B6B0C491846FBF767F803460A
:10523C001A463B681A65074B5B6B07491846FBF728
:10524C005DF803461A463B685A6500BF1037BD46E9
:10525C0080BD00BF88040020E12E654280B590B06F
:10526C0000AF78603960184B184638231A46002175
:10527C00FCF7C3FB4FF000017868FBF7F1F903462C
:10528C00002B0AD011497868FBF7E0F90346002B94
:10529C0003D00D4A7B68936103E00B4B4FF08042C7
:1052AC009A613B68002B03D03B68B3F5FA7F01D9B8
:1052BC0064233B60064A3B68B2FBF3F3024A9360FB
:1052CC0000BF4037BD4680BD880400200000484226
:1052DC0040420F0090B5B3B000AF786039607B6886
:1052EC00002B02D03B68002B01D10023EBE33B6881
:1052FC00184658231A460021FCF77FFB4FF4007325
:10530C00C7F8C4304FF000037B677B685A6940F2E2
:10531C000323134040F2032293420CBF01230023CA
:10532C0087F8B3307B681B6903F00103002B14BFB3
:10533C000123002387F8C33097F8B33083F00103BF
:10534C00DBB2002B05D0D7F8C43043F01003C7F8FC
:10535C00C43097F8C33083F00103DBB2002B05D0C7
:10536C00D7F8C43043F02003C7F8C4307B681A6800
:10537C007B685B689A4205D0D7F8C43043F0800351
:10538C00C7F8C4307B689B69012214468A491846C9
:10539C00FBF766F90346002B01D100231C46E3B250
:1053AC0083F00103DBB2002B12D17B689B690122D5
:1053BC00144682491846FBF749F90346002B01D1E4
:1053CC0000231C46E3B283F00103DBB2002B05D0B3
:1053DC00D7F8C43043F04003C7F8C43097F8C33053
:1053EC00002B0AD007F1740319467868FFF753FCB9
:1053FC000346002B01D0012300E0002387F8B230D4
:10540C0097F8B23003F0010387F8B23097F8C33045
:10541C00002B0FD097F8B23083F00103DBB2002BD6
:10542C0008D0D7F8C43043F02003C7F8C4300023A9
:10543C0087F8C330624B1B7883F00103DBB2002B7F
:10544C0000F0928097F8B33083F00103DBB2002BAD
:10545C001CD1D7F8C43003F04003002B16D1D7F879
:10546C00C43003F08003002B10D197F8C33083F0C5
:10547C000103DBB2002B09D17B6F1846FFF742FC0E
:10548C00034683F00103DBB2002B26D097F8C33020
:10549C00002B14D07B6F1846FFF734FC034683F0C7
:1054AC000103DBB2002B0AD0D7F8C43043F0080359
:1054BC00C7F8C430424B5B690133414A5361404BDE
:1054CC001B6901333E4A1361796F3B68D7F8C420DE
:1054DC007868FFF74BFE0023F5E27B6F194678687E
:1054EC00FFF730FC034683F00103DBB2002B07D13E
:1054FC00FFF75CFD034683F00103DBB2002B13D0F6
:10550C00D7F8C43043F48063C7F8C4302C4B1B6904
:10551C0001332B4A1361796F3B68D7F8C420786844
:10552C00FFF724FE0023CEE2254B01221A70244BF8
:10553C00DB680133224AD3607B689B68204A536046
:10554C001F4B01225A70D7F8C43043F4106343F058
:10555C000703C7F8C430796F3B68D7F8C420786864
:10556C00FFF704FE0123AEE2D7F8C43043F0020388
:10557C00C7F8C43097F8B33083F00103DBB2002BCB
:10558C000BD1D7F8C43003F04003002B05D1D7F86A
:10559C00C43003F08003002B14D0094B1B6901337A
:1055AC00074A1361796F3B68D7F8C4207868FFF716
:1055BC00DDFD002387E200BF6F12033A0AD7A33C3C
:1055CC00880400207B689B6AC7F8BC307B68DB6A68
:1055DC00C7F8B8307B681B6BC7F8B43097F8C3308A
:1055EC00002B00F00D817B6F1846FFF78BFB0346F9
:1055FC00002B00F005817B68DB6983F000437A6F38
:10560C0011461846FAF72EFF0346C7F8AC307B68F4
:10561C001B6A83F000437A6F11461846FAF722FF93
:10562C000346C7F8A8307B685B6A83F000437A6F47
:10563C0011461846FAF716FF0346C7F8A4306F4B0D
:10564C00DB69C7F8A0306D4B1B6AC7F89C306B4BFD
:10565C005B6AC7F89830694B9B6AC7F89430D7F8E7
:10566C009410D7F89C00FAF749FE03461C46D7F86D
:10567C009810D7F8A000FAF741FE034619462046C9
:10568C00FAF732FD034619461846FAF72FFD034682
:10569C00C7F89030D7F89C10D7F8A000FAF72EFE78
:1056AC0003461C46D7F89410D7F89800FAF726FE54
:1056BC00034619462046FAF719FD034619461846C3
:1056CC00FAF714FD0346C7F88C30D7F89C10D7F8BE
:1056DC009C00FAF713FE03461C46D7F89810D7F82F
:1056EC009800FAF70BFE034619462046FAF7FEFC23
:1056FC00034619461846FAF7F9FC034619464FF0CB
:10570C007E50FAF7F1FC0346C7F88830D7F88810BA
:10571C00D7F8A800FAF7F2FD03461C46D7F88C1010
:10572C00D7F8A400FAF7EAFD034619462046FAF723
:10573C00DBFC0346C7F88430D7F89010D7F8A400E8
:10574C00FAF7DCFD03461C46D7F88810D7F8AC00F6
:10575C00FAF7D4FD034619462046FAF7C5FC034672
:10576C00C7F88030D7F88C10D7F8AC00FAF7C6FD24
:10577C0003461C46D7F89010D7F8A800FAF7BEFDE0
:10578C00034619462046FAF7AFFC0346FB671B4B52
:10579C009B69D7F884101846FAF7B0FD03461946F2
:1057AC00D7F8BC00FAF7A2FC0346C7F8BC30134B81
:1057BC009B69D7F880101846FAF7A0FD03461946E6
:1057CC00D7F8B800FAF792FC0346C7F8B8300B4B81
:1057DC009B69F96F1846FAF791FD03461946D7F8FD
:1057EC00B400FAF783FC0346C7F8B430D7F8C430DA
:1057FC0043F00403C7F8C43011E000BF8804002054
:10580C00B34B5B690133B24A536197F8C330002B39
:10581C0005D0D7F8C43043F00803C7F8C430AC4BFC
:10582C00DB69C7F8A030AA4B1B6AC7F89C30A84BA1
:10583C005B6AC7F89830A64B9B6AC7F894307B68B4
:10584C009B694FF07C511846FAF758FD0346BB672D
:10585C00D7F89C3083F00043D7F8BC101846FAF701
:10586C004DFD03461C46D7F8B810D7F89800FAF748
:10587C0045FD034619462046FAF736FC03461C46FE
:10588C00D7F8B410D7F89400FAF738FD0346194648
:10589C002046FAF729FC0346B96F1846FAF72EFD95
:1058AC000346D7F8A0101846FAF720FC03463B67CE
:1058BC00D7F8BC10D7F8A000FAF720FD03461C4619
:1058CC00D7F8B410D7F89800FAF718FD0346194624
:1058DC002046FAF70BFC03461C46D7F8B810D7F84D
:1058EC009400FAF70BFD034619462046FAF7FCFB29
:1058FC000346B96F1846FAF701FD0346D7F89C101A
:10590C001846FAF7F3FB0346FB66D7F8B810D7F83E
:10591C00A000FAF7F3FC03461C46D7F8B410D7F8EE
:10592C009C00FAF7EBFC034619462046FAF7DCFB21
:10593C0003461C46D7F8BC10D7F89400FAF7DEFCE7
:10594C00034619462046FAF7D1FB0346B96F1846B1
:10595C00FAF7D4FC0346D7F898101846FAF7C6FBAA
:10596C000346BB66D7F8B410D7F8A000FAF7C6FC0C
:10597C0003461C46D7F8B810D7F89C00FAF7BEFCC3
:10598C00034619462046FAF7B1FB03461C46D7F8E6
:10599C00BC10D7F89800FAF7B1FC0346194620461C
:1059AC00FAF7A2FB0346B96F1846FAF7A7FC0346B1
:1059BC00D7F894101846FAF799FB03467B6607F163
:1059CC00640307F1680207F16C0107F17000FFF73F
:1059DC00E5F8034683F00103DBB2002B13D0D7F8B4
:1059EC00C43043F48063C7F8C430394B1B690133AE
:1059FC00374A1361796F3B68D7F8C4207868FFF792
:105A0C00B5FB00235FE03B6F314AD361FB6E304A3C
:105A1C001362BB6E2E4A53627B6E2D4A93622C4BE3
:105A2C00DB6801332A4AD360D7F8C43043F480735F
:105A3C0043F00103C7F8C430254B5B7883F00103B6
:105A4C00DBB2002B08D17B689A68214B5B68D21AB9
:105A5C001F4B9B689A422ED3FFF7A8FA034683F09C
:105A6C000103DBB2002B19D0D7F8C43023F00103AB
:105A7C00C7F8C430D7F8C43043F48063C7F8C430D7
:105A8C00134B1B690133124A1361796F3B68D7F8CA
:105A9C00C4207868FFF76AFB002314E07B689B68DE
:105AAC000B4A53600A4B01225A70D7F8C43043F4A6
:105ABC000063C7F8C430796F3B68D7F8C4207868A6
:105ACC00FFF754FB01231846CC37BD4690BD00BFF1
