:020000040800F2
:1000000000500020791300084D1100086911000804
:100010000112000809120008111200080000000077
:10002000000000000000000000000000191200089D
:10003000211200080000000029120008B92E000853
:100040003112000839120008411200084912000854
:10005000511200085912000891100008611200089E
:100060006912000871120008791200088112000854
:10007000891200089112000899120008A1120008C4
:10008000A9120008B1120008B9120008C112000834
:10009000C9120008D1120008D9120008E1120008A4
:1000A000E9120008F1120008F91200080113000813
:1000B000152B000809130008111300081913000874
:1000C0002113000829130008311300083913000810
:1000D0004113000849130008511300085913000880
:0C00E00061130008691300087113000888
:1000EC0080F0004002E000BF81F0004142001FBFE1
:1000FC005FEA410392EA030F7FEA226C7FEA236CEA
:10010C006AD04FEA1262D2EB1363C1BFD2184140DE
:10011C0048404140B8BF5B42192B88BF704710F074
:10012C00004F40F4000020F07F4018BF404211F017
:10013C00004F41F4000121F07F4118BF494292EA7F
:10014C00030F3FD0A2F1010241FA03FC10EB0C00AB
:10015C00C3F1200301FA03F100F0004302D5494238
:10016C0060EB4000B0F5000F13D3B0F1807F06D3E5
:10017C0040084FEA310102F10102FE2A51D2B1F1DD
:10018C00004F40EBC25008BF20F0010040EA0300D2
:10019C007047490040EB0000013A28BFB0F5000F52
:1001AC00EDD2B0FA80FCACF1080CB2EB0C0200FA08
:1001BC000CF0AABF00EBC25052421843BCBFD04057
:1001CC001843704792F0000F81F4000106BF80F4D1
:1001DC0000000132013BB5E74FEA41037FEA226C94
:1001EC0018BF7FEA236C21D092EA030F04D092F05F
:1001FC00000F08BF0846704790EA010F1CBF002093
:10020C00704712F07F4F04D1400028BF40F00040EF
:10021C00704712F100723CBF00F50000704700F00F
:10022C00004343F0FE4040F4000070477FEA226236
:10023C0016BF08467FEA23630146420206BF5FEA07
:10024C00412390EA010F40F4800070474FF0000307
:10025C0004E000BF10F0004348BF40425FEA000CCE
:10026C0008BF704743F0964301464FF000001CE076
:10027C0050EA010208BF70474FF000030AE000BFCC
:10028C0050EA010208BF704711F0004302D540420A
:10029C0061EB41015FEA010C02BF8446014600207C
:1002AC0043F0B64308BFA3F18053A3F50003BCFA97
:1002BC008CF2083AA3EBC25310DB01FA02FC634444
:1002CC0000FA02FCC2F12002BCF1004F20FA02F24B
:1002DC0043EB020008BF20F00100704702F120023E
:1002EC0001FA02FCC2F1200250EA4C0021FA02F29F
:1002FC0043EB020008BF20EADC7070474FF0FF0CA4
:10030C001CEAD0521EBF1CEAD15392EA0C0F93EA9E
:10031C000C0F6FD01A4480EA010C400218BF5FEA40
:10032C0041211ED04FF0006343EA501043EA5111B3
:10033C00A0FB01310CF00040B1F5000F3EBF4900AD
:10034C0041EAD3715B0040EA010062F17F02FD2AB1
:10035C001DD8B3F1004F40EBC25008BF20F0010094
:10036C00704790F0000F0CF0004C08BF49024CEAAB
:10037C00502040EA51207F3AC2BFD2F1FF0340EA3D
:10038C00C250704740F400004FF00003013A5DDCAE
:10039C0012F1190FDCBF00F000407047C2F10002EF
:1003AC00410021FA02F1C2F1200200FA02FC5FEADC
:1003BC00310040F1000053EA4C0308BF20EADC7026
:1003CC00704792F0000F00F0004C02BF400010F498
:1003DC00000F013AF9D040EA0C0093F0000F01F045
:1003EC00004C02BF490011F4000F013BF9D041EA67
:1003FC000C018FE70CEAD15392EA0C0F18BF93EA69
:10040C000C0F0AD030F0004C18BF31F0004CD8D192
:10041C0080EA010000F00040704790F0000F17BF19
:10042C0090F0004F084691F0000F91F0004F14D05F
:10043C0092EA0C0F01D142020FD193EA0C0F03D1B7
:10044C004B0218BF084608D180EA010000F00040BA
:10045C0040F0FE4040F40000704740F0FE4040F495
:10046C00400070474FF0FF0C1CEAD0521EBF1CEA34
:10047C00D15392EA0C0F93EA0C0F69D0A2EB030252
:10048C0080EA010C49024FEA402037D04FF08053EC
:10049C0043EA111143EA10130CF000408B4238BFB1
:1004AC005B0042F17D024FF4000C8B4224BF5B1ABF
:1004BC0040EA0C00B3EB510F24BFA3EB510340EA0D
:1004CC005C00B3EB910F24BFA3EB910340EA9C00BB
:1004DC00B3EBD10F24BFA3EBD10340EADC001B012B
:1004EC0018BF5FEA1C1CE0D1FD2A3FF650AF8B42CF
:1004FC0040EBC25008BF20F0010070470CF0004CDC
:10050C004CEA50207F32C2BFD2F1FF0340EAC25006
:10051C00704740F400004FF00003013A37E792F0C7
:10052C00000F00F0004C02BF400010F4000F013A25
:10053C00F9D040EA0C0093F0000F01F0004C02BF20
:10054C00490011F4000F013BF9D041EA0C0195E789
:10055C000CEAD15392EA0C0F08D142027FF47DAF22
:10056C0093EA0C0F7FF470AF084676E793EA0C0F12
:10057C0004D14B023FF44CAF08466EE730F0004C10
:10058C0018BF31F0004CCAD130F000427FF45CAFA0
:10059C0031F000437FF43CAF5FE700BF4FF0FF3C0E
:1005AC0006E000BF4FF0010C02E000BF4FF0010C61
:1005BC004DF804CD4FEA40024FEA41037FEA226C2A
:1005CC0018BF7FEA236C11D001B052EA530C18BF4C
:1005DC0090EA010F58BFB2EB030088BFC81738BFB1
:1005EC006FEAE17018BF40F0010070477FEA226C9F
:1005FC0002D15FEA402C05D17FEA236CE4D15FEA9B
:10060C00412CE1D05DF8040B704700BF84460846CE
:10061C006146FFE70FB5FFF7C9FF002848BF10F18F
:10062C00000F0FBD4DF808EDFFF7F4FF0CBF0120D4
:10063C0000205DF808FB00BF4DF808EDFFF7EAFF5E
:10064C0034BF012000205DF808FB00BF4DF808ED19
:10065C00FFF7E0FF94BF012000205DF808FB00BF0E
:10066C004DF808EDFFF7D2FF94BF012000205DF894
:10067C0008FB00BF4DF808EDFFF7C8FF34BF0120A1
:10068C0000205DF808FB00BF4FEA4002B2F1FE4FBC
:10069C000FD34FF09E03B3EB12620DD94FEA002338
:1006AC0043F0004310F0004F23FA02F018BF404211
:1006BC0070474FF00000704712F1610F01D14202F8
:1006CC0005D110F0004008BF6FF0004070474FF0AC
:1006DC000000704780B586B000AF78604FF0000125
:1006EC007868FFF7A9FF0346002B10D02A497868D9
:1006FC00FFF704FE03464FF07C511846FFF7F4FC5D
:10070C0003461846FFF7C0FF03467B610FE0224902
:10071C007868FFF7F3FD03464FF07C511846FFF75E
:10072C00E5FC03461846FFF7AFFF03467B617B6988
:10073C00002B06DA2D2002F073FC7B695B423B61D7
:10074C0001E07B693B613B69144AA2FB03239B09D3
:10075C00184602F0C3FC2E2002F062FC3B690F4AE3
:10076C00A2FB031292094FF47A7101FB02F29B1A5D
:10077C00FB60FB68632B02D8302002F051FCFB6855
:10078C00092B02D8302002F04BFCF86802F0A6FCD2
:10079C0000BF1837BD4680BD00007A44D34D6210AF
:1007AC0080B584B000AFF860B9607A60F868FFF784
:1007BC0091FF2C2002F034FCB868FFF78BFF2C2043
:1007CC0002F02EFC7868FFF785FF00BF1037BD469E
:1007DC0080BD000080B582B000AF786039607B6866
:1007EC00DB6803F01003002B11D03B6803F01003FF
:1007FC00002B47D17B68DB6803F48063002B02D0AD
:10080C00224802F051FC224802F04EFC3AE07B6890
:10081C00DB6803F02003002B08D03B6803F02003B7
:10082C00002B2FD11B4802F03FFC2BE07B68DB68D0
:10083C0003F00203002B25D03B6803F00203002BCE
:10084C0020D17B68DB6803F00403002B08D012482E
:10085C0002F008FC7B681B69184602F03FFC02E0C2
:10086C000E4802F0FFFB0E4802F0FCFB7B68586A56
:10087C007B68996A7B68DB6A1A46FFF791FF094827
:10088C0002F0F0FB00BF0837BD4680BD20400008D9
:10089C005440000888400008BC400008E4400008B0
:1008AC000C4100081C41000880B582B000AF786094
:1008BC00044B1B78DBB2002B02D1786802F0F4FBFE
:1008CC0000BFFDE71B000020B0B5E8B000AF00F0A2
:1008DC0009FC02F0E7F903461A46C04B1A70BF4BED
:1008EC001B78DBB2002B01D000BFFDE702F066FAEB
:1008FC000346184602F080FA03461A46B84B1A70A3
:10090C00B74B1B78DBB2002B01D000BFFDE702F028
:10091C005FFAC7F8980102F051FA0246D7F89831FD
:10092C00934203D0D7F898315B0001E0D7F89831A7
:10093C00C7F89431D7F8940102F01EF803461A4612
:10094C00A84B1A70A74B1B78DBB2002B01D000BF51
:10095C00FDE702F047FA03464FF4E131184602F086
:10096C00DBFA03461A46A04B1A709F4B1B78DBB27E
:10097C00002B05D19D4802F097FB9D4802F094FB9B
:10098C00D7F8980100F0DAF903461A46994B1A7019
:10099C00984B1B78DBB2002B1CD0934B1B78DBB233
:1009AC00002B14D1944802F05DFB924B1B78DBB208
:1009BC00184602F093FB914802F054FB00F058FBF0
:1009CC000346184602F08AFB8D4802F04BFB8D481B
:1009DC00FFF76AFF02F0DEFC8B4B18463C231A46ED
:1009EC00002100F0EAFB804B1B78DBB2002B02D11C
:1009FC00864802F059FB012003F09CF9844B184601
:100A0C0054231A46002100F0D8FB0023C7F89C3170
:100A1C00754B1B78DBB2002B02D17E4802F044FBF5
:100A2C00714B1B78DBB2002B19D17B4802F01AFBFF
:100A3C0000F05EFF0346184602F09CFB00F06CFFD2
:100A4C000346002B08D0754802F00CFB00F05AFF4F
:100A5C000346184602F08EFB694802F003FB624B1A
:100A6C001B78DBB2002B02D16D4802F01DFB00F0AD
:100A7C00C1F903461A465F4B1A705E4B1B78DBB20A
:100A8C00002B02D06748FFF70FFF00F0D9F903469F
:100A9C001A46584B1A70574B1B78DBB2002B40F0A0
:100AAC008A8007F5B673184600F090FA0346002BBF
:100ABC0000F081805C4B1D4607F5B6740FCC0FC55A
:100ACC000FCC0FC523682B60D7F8783103F00103E6
:100ADC00002B2CD0D7F86C31C7F85C31D7F87031BB
:100AEC00C7F86031B7F97C31A7F86431B7F97E31BA
:100AFC00A7F86631B7F98031A7F8683107F590721D
:100B0C0007F5AE731146184602F054FC0346002B51
:100B1C000DD03D4B1D4607F590740FCC0FC50FCC77
:100B2C000FC50FCC0FC594E8070085E80700D7F870
:100B3C00783103F00103002B3DD0D7F86C31C7F8A6
:100B4C001031D7F87031C7F81431B7F98431A7F8E0
:100B5C001831B7F98631A7F81A31B7F98831A7F8E7
:100B6C001C3107F1BC0207F588731146184603F0D7
:100B7C000DF9274B184607F1BC035422194600F017
:100B8C00FBFA194B1B78DBB2002B14D1D7F8C83009
:100B9C0003F03203C7F89031D7F89031002B0AD00C
:100BAC0007F1BC03D7F89C111846FFF713FED7F8D2
:100BBC00C830C7F89C311D4C3B46184600F02EFA45
:100BCC0007F5D073A3F5D0731D460FCD0FC40FCD11
:100BDC000FC42B68236000BF57E700BF180000202C
:100BEC00190000201A0000201B00002020410008E2
:100BFC00444100081C0000206C4100089041000892
:100C0C001C410008A041000868000020D4410008E5
:100C1C00A40000200C4200083C4200084C42000892
:100C2C0058420008784200082000002044000020B0
:100C3C0080B483B000AFEFF3108372B67B607B6837
:100C4C0018460C37BD4680BC704780B483B000AFEB
:100C5C0078607B6803F00103002B00D162B600BF03
:100C6C000C37BD4680BC704780B483B000AF2A4BB4
:100C7C001B68294A43F005031360274B1B68274B5D
:100C8C001B687B607B6823F00F037B607B6843F001
:100C9C0004037B60214A7B681360214B1B68204A4C
:100CAC0023F00F0313601F4B1B681E4A23F0010334
:100CBC0013601D4B1B681C4A23F0010313601B4B74
:100CCC001B681A4A43F001031360194B01221A6086
:100CDC00184B50221A70184B40221A600F4B1B688D
:100CEC0003F00F03042B0DD10D4B1B6803F00F0306
:100CFC00002B07D10D4B1B6803F00103002B01D017
:100D0C00012300E0002303F00103DBB218460C378B
:100D1C00BD4680BC704700BF18100240000801405F
:100D2C0008000140000401400C040140080401408B
:100D3C001404014006E400E000E100E080B596B048
:100D4C0000AF7860FFF774FF7865224B00221A60C1
:100D5C00214B00221A60214B00221A60204B0022EA
:100D6C001A70204B184624231A46002100F025FA4D
:100D7C001D4B184624231A46002100F01EFA1B4B6B
:100D8C0000221A70786DFFF760FF1949786801F03E
:100D9C006BFC0346002B01D0032317E0682000F006
:100DAC000FFC03461A46114B1A70104B1B78002B84
:100DBC0001D004230AE0FFF757FF034683F0010339
:100DCC00DBB2002B01D0052300E000231846583776
:100DDC00BD4680BDF8000020FC0000200001002072
:100DEC00280100202C0100200401002050010020CB
:100DFC00801A060080B500AF0E4B01221A600E4B14
:100E0C001B680D4A43F00103136000F0F5FC034628
:100E1C001A460A4B1A70094B1B78002B07D0064B4D
:100E2C001B68054A23F001031360072300E000232D
:100E3C00184680BD140401400004014050010020FC
:100E4C00B0B590B000AFFFF7F3FEF863584B1B68DA
:100E5C00BB63584B1B687B63554B00221A60F86BC5
:100E6C00FFF7F3FEBB6B002B01D101239BE0BB6BA7
:100E7C00012B06D9504B9A68BB6B1344013B4E4A6D
:100E8C0093604E4B07F10C041D460FCD0FC40FCDD4
:100E9C000FC42B682360BB6923F00503BB6107F10A
:100EAC000C031033184600F0B3FC03461A46444BAF
:100EBC001A70434B1B78002B06D03F4BDB68013379
:100ECC003D4AD36006236EE07B6B3B61BB6943F00C
:100EDC000103BB6100F020FD0346002B37D007F166
:100EEC000C031E33184600F0F9FC034687F8333028
:100EFC0097F83330002B08D101F0BAFD03467B6123
:100F0C00BB6943F00603BB612CE097F83330052B2B
:100F1C0005D1294BDB690133274AD36122E097F8CD
:100F2C003330062B09D1244B1B6A0133224A13623E
:100F3C00BB6923F00203BB6114E01F4BDB68013378
:100F4C001D4AD3601E4A97F8333013700AE007F13C
:100F5C002A0300221A609A8000237B61BB6923F06C
:100F6C000603BB61154B1B680133FB60FFF760FE8A
:100F7C00F863124B1D4607F10C040FCC0FC50FCCB8
:100F8C000FC523682B600F4B01221A700A4B5B684C
:100F9C000133094A53600C4B1B68074A1360F86B0A
:100FAC00FFF753FE002318464037BD46B0BD00BFC7
:100FBC00F8000020FC0000202C010020040100207F
:100FCC00500100202801002000010020B0B584B0A1
:100FDC0000AF78607B68002B01D1002316E0FFF78F
:100FEC0027FEF8600B4B1B78FB72FB7A002B09D0A9
:100FFC007B68094A1C4615460FCD0FC40FCD0FC494
:10100C002B682360F868FFF720FEFB7A1846103730
:10101C00BD46B0BD2801002004010020B0B58CB045
:10102C0000AF7860FFF704FEF8620F4B07F108047D
:10103C001D460FCD0FC40FCD0FC42B6823600B4B77
:10104C001B68BB60F86AFFF700FE7B681D4607F162
:10105C0008040FCC0FC50FCC0FC523682B60786824
:10106C003037BD46B0BD00BF2C0100200001002070
:10107C0080B400AF024B1B781846BD4680BC70474D
:10108C005001002080B500AF0F4B1B6803F001032B
:10109C00002B16D00C4B01221A6001F0E9FC034620
:1010AC000A4A13600A4B1B68B3F1FF3F04D0084B8C
:1010BC001B680133064A1360064B1B680133054A53
:1010CC00136000BF80BD00BF14040140FC00002071
:1010DC00F80000200001002080B400AF72B600BF01
:1010EC00FDE7000080B485B000AF0D4BBB6013234F
:1010FC007B600023FB6008E0FB689B00BA6813442C
:10110C0000221A60FB680133FB60FA687B689A4224
:10111C00F2D300BF00BF1437BD4680BC704700BF80
:10112C005401002080B500AF034B01225A60024BE2
:10113C00024A1A60FFF7D0FF540100204C5541467B
:10114C0080B500AF034B02225A60024B024A1A6070
:10115C00FFF7C2FF540100204C55414680B500AF4B
:10116C00034B03225A60024B024A1A60FFF7B4FF8A
:10117C00540100204C55414680B487B000AFF86054
:10118C00B9607A60FB687B61BB683B610CE03B69D2
:10119C001A787B691A707B6901337B613B69013377
:1011AC003B617B68013B7B607B68002BEFD1FB686C
:1011BC0018461C37BD4680BC704780B487B000AF62
:1011CC00F860B9607A60FB687B61BB68FB7408E00F
:1011DC007B69FA7C1A707B6901337B617B68013B0C
:1011EC007B607B68002BF3D1FB6818461C37BD462F
:1011FC0080BC704780B500AFFFF794FF80B500AF9F
:10120C00FFF790FF80B500AFFFF78CFF80B500AF04
:10121C00FFF788FF80B500AFFFF784FF80B500AF04
:10122C00FFF780FF80B500AFFFF77CFF80B500AF04
:10123C00FFF778FF80B500AFFFF774FF80B500AF04
:10124C00FFF770FF80B500AFFFF76CFF80B500AF04
:10125C00FFF768FF80B500AFFFF764FF80B500AF04
:10126C00FFF760FF80B500AFFFF75CFF80B500AF04
:10127C00FFF758FF80B500AFFFF754FF80B500AF04
:10128C00FFF750FF80B500AFFFF74CFF80B500AF04
:10129C00FFF748FF80B500AFFFF744FF80B500AF04
:1012AC00FFF740FF80B500AFFFF73CFF80B500AF04
:1012BC00FFF738FF80B500AFFFF734FF80B500AF04
:1012CC00FFF730FF80B500AFFFF72CFF80B500AF04
:1012DC00FFF728FF80B500AFFFF724FF80B500AF04
:1012EC00FFF720FF80B500AFFFF71CFF80B500AF04
:1012FC00FFF718FF80B500AFFFF714FF80B500AF04
:10130C00FFF710FF80B500AFFFF70CFF80B500AF03
:10131C00FFF708FF80B500AFFFF704FF80B500AF03
:10132C00FFF700FF80B500AFFFF7FCFE80B500AF04
:10133C00FFF7F8FE80B500AFFFF7F4FE80B500AF05
:10134C00FFF7F0FE80B500AFFFF7ECFE80B500AF05
:10135C00FFF7E8FE80B500AFFFF7E4FE80B500AF05
:10136C00FFF7E0FE80B500AFFFF7DCFE80B582B082
:10137C0000AF124B7B60124B3B6009E07B681A6834
:10138C003B681A607B6804337B603B6804333B60CA
:10139C003B680C4A9342F1D30B4B3B6005E03B6836
:1013AC0000221A603B6804333B603B68074A934257
:1013BC00F5D3FFF789FAFFF7B5FE00BFB842000876
:1013CC00000000201800002018000020F802002067
:1013DC0080B483B000AF03463960FB71054AFB79DA
:1013EC001370044A3B68136100BF0C37BD4680BCC8
:1013FC00704700BFA801002080B586B000AFBA606E
:10140C007B600346FB730B46BB730F4B02225A7077
:10141C000D4AFB7B13720C4ABB7B5372B97BF87B76
:10142C007B68BA6801F008FA0346FB75FB7D064A37
:10143C005360FB7D002B01D0022300E000231846F3
:10144C001837BD4680BD00BFA801002080B584B010
:10145C0000AF0346FB710B46BB7113467B71104BFF
:10146C0001225A700E4AFB7913720D4ABB795372E2
:10147C000B4A7B7993727A79B979FB79184601F02A
:10148C0061F90346FB73FB7B054A5360FB7B002B26
:10149C0001D0022300E0002318461037BD4680BD62
:1014AC00A801002090B585B000AF0446084611464F
:1014BC001A462346FB710346BB710B467B711346E0
:1014CC003B710023BB720423FB720123FB6057E0CA
:1014DC00FB79F9681846FFF77BFF2D4ABB795372ED
:1014EC002B4A7B7993722A4B0022DA72284A3B7979
:1014FC001373284B1B787A79B9791846FFF7A6FF36
:10150C000346FB72FB7A002B08D0FB68012B03D837
:10151C00012001F0DBFA30E0FB7A35E01D4B187846
:10152C0007F10A02B9790123FFF766FF0346FB7244
:10153C00FB7A002B08D0FB68012B03D8012001F0AB
:10154C00C5FA1AE0FB7A1FE0BA7A114BDA72104B2B
:10155C0003225A70BA7A7B795340DAB23B79134042
:10156C00DBB2002B01D100230EE00423FB72FB68DD
:10157C00012B02D8012001F0A9FAFB680133FB60B2
:10158C00FB68022BA4D9FB7A18461437BD4690BDD4
:10159C00A80100200000002080B483B000AF786068
:1015AC007B681B781BB21B021AB27B6801331B7859
:1015BC001BB213431BB218460C37BD4680BC704798
:1015CC0080B58AB000AF0346FB7197F90730002B4A
:1015DC0001DA012300E1824AFB791370814B00226E
:1015EC001A70814B00221A70804B00221A70804BAB
:1015FC0000210A461A800A469A707E4B1A4600232E
:10160C00136053609360D36013617A4B00225A606D
:10161C0001210120FFF7DCFE714B1B7880226B212E
:10162C001846FFF713FF0346002B01D00223D3E02B
:10163C00642001F04BFA022387F8233001237B62EC
:10164C0021E0796A0220FFF7C3FE664B00221A7074
:10165C00634B18780123634A7521FFF7CDFE0346CF
:10166C0087F8233097F82330002B03D15D4B1B7880
:10167C00702B0CD07B6A092B02D8052001F026FABE
:10168C007B6A01337B627B6A0A2BDAD900E000BFEC
:10169C0097F82330002B02D097F823309CE0514B65
:1016AC001B78702B01D0032396E0504B01221A704B
:1016BC007F2301226B210320FFF7F4FE034687F8FA
:1016CC00233097F82330002B02D097F8233083E097
:1016DC000A2001F0FBF93F2300226C210420FFF7C4
:1016EC00E1FE034687F8233097F82330002B02D015
:1016FC0097F8233070E0072303221A210520FFF707
:10170C00D1FE034687F8233097F82330002B02D004
:10171C0097F8233060E0FF23012219210620FFF700
:10172C00C1FE034687F8233097F82330002B02D0F4
:10173C0097F8233050E01B2308221B210720FFF7CA
:10174C00B1FE034687F8233097F82330002B02D0E4
:10175C0097F8233040E0182308221C210820FFF7BB
:10176C00A1FE034687F8233097F82330002B02D0D4
:10177C0097F8233030E00F2303221D210920FFF7B7
:10178C0091FE034687F8233097F82330002B02D0C4
:10179C0097F8233020E00123002238210A20FFF79C
:1017AC0081FE034687F8233097F82330002B02D0B4
:1017BC0097F8233010E0F223002237210B20FFF79B
:1017CC0071FE034687F8233097F82330002B02D0A4
:1017DC0097F8233000E0002318462837BD4680BD1B
:1017EC0000000020A0010020A1010020A201002087
:1017FC00A4010020A801002080B500AF0123012224
:10180C0038210F20FFF74EFE0346184680BD00001E
:10181C0080B586B000AF78607B68002B01D10123C6
:10182C0056E001211020FFF7D3FD2B4B187807F160
:10183C0008020E233B21FFF7DFFD0346002B01D0EE
:10184C00022345E007F108031846FFF7A5FE0346FF
:10185C001A467B681A8007F1080302331846FFF713
:10186C009BFE03461A467B685A8007F10803043333
:10187C001846FFF791FE03461A467B689A8007F1DB
:10188C00080306331846FFF787FE03461A467B68A3
:10189C00DA8007F1080308331846FFF77DFE03468C
:1018AC001A467B681A8107F108030A331846FFF7BA
:1018BC0073FE03461A467B685A8107F108030C3302
:1018CC001846FFF769FE03461A467B689A81002387
:1018DC0018461837BD4680BD0000002080B483B088
:1018EC0000AF7860072318460C37BD4680BC7047A4
:1018FC0080B400AF024B1B781846BD4680BC7047C5
:10190C00A001002080B400AF024B1B781846BD46E6
:10191C0080BC7047A101002080B400AF054B1B7840
:10192C00022B0CBF01230023DBB21846BD4680BC42
:10193C00704700BFA201002080B483B000AFEFF36A
:10194C00108372B67B607B6818460C37BD4680BC32
:10195C00704780B483B000AF78607B6803F00103FC
:10196C00002B00D162B600BF0C37BD4680BC70475F
:10197C0080B483B000AF00237B6003E000BF7B68C2
:10198C0001337B607B687F2BF8D900BF00BF0C371D
:10199C00BD4680BC7047000080B483B000AF0346E6
:1019AC00FB71044AFB7982F8313000BF0C37BD461D
:1019BC0080BC7047BC01002080B483B000AF0346EC
:1019CC000A46FB711346BB71164AFB7982F830301C
:1019DC00144ABB7982F83130124AFB7982F83830DC
:1019EC00104ABB7982F839300E4B5B6B0D4AD363CE
:1019FC000D4B1B680B4A53640C4B1B68094A9364D0
:101A0C000B4B1B68074AD3640A4B1B68054A1365CA
:101A1C00094B1B68034A536500BF0C37BD4680BC9D
:101A2C00704700BFBC01002000540040145400401B
:101A3C001854004010540040080C014080B483B08E
:101A4C0000AF0346FB71FB79033B062B3AD801A28E
:101A5C0052F823F0951A00087D1A0008891A00081C
:101A6C00A11A0008AD1A0008B91A0008C51A000816
:101A7C00174B5B690133164A536124E0144B9B6985
:101A8C000133134A93611EE0114BDB690133104A99
:101A9C00D36118E00E4B1B6A01330D4A136212E03E
:101AAC000B4B5B6A01330A4A53620CE0084B9B6A8E
:101ABC000133074A936206E0054BDB6A0133044AA3
:101ACC00D36200E000BF00BF0C37BD4680BC70473E
:101ADC00BC01002080B483B000AF78607B6803F455
:101AEC008073002B01D0062315E07B6803F4007390
:101AFC00002B01D007230EE07B6803F48063002BDE
:101B0C0001D0052307E07B6803F40063002B01D0B0
:101B1C00082300E0002318460C37BD4680BC7047F4
:101B2C0080B483B000AF074B1B687B607B6823F4E9
:101B3C0070637B60034A7B68136000BF0C37BD4643
:101B4C0080BC70471454004080B586B000AF7860FC
:101B5C000B46FB70FB781846FFF71EFF00237B61DA
:101B6C0021E0194B1B683B613869FFF7B3FF034653
:101B7C00FB73FB7B002B0BD0FA78FB7B11461846D2
:101B8C00FFF71AFFFB7B1846FFF758FFFB7B17E0AC
:101B9C003A697B6813407A689A4201D100230FE0BE
:101BAC007B6901337B617B69084A9342D9D9FB7805
:101BBC0019460420FFF700FF0420FFF73FFF042322
:101BCC0018461837BD4680BD145400403F0D030025
:101BDC0080B582B000AF0220FFF7DEFE00237B60F1
:101BEC002BE0244B1B681846FFF774FF0346BB70B1
:101BFC00BB78002B0AD0BB7802211846FFF7DCFE1D
:101C0C00BB781846FFF71AFFBB782EE01A4B1B68FF
:101C1C0003F00203002B0DD1184B1B6803F4007367
:101C2C00002B07D1164B1B6803F0C003C02B01D14E
:101C3C0000231AE07B6801337B607B68114A934276
:101C4C00CFD90F4B1B6803F0C003C02B01D103236A
:101C5C0000E00923FB70FB7802211846FFF7ACFE6D
:101C6C00FB781846FFF7EAFEFB7818460837BD46A6
:101C7C0080BD00BF14540040185400400054004074
:101C8C00080C01403F0D030080B582B000AF0F205F
:101C9C00FFF782FE00237B6010E0114B1B6803F4FE
:101CAC000073002B07D10F4B1B6803F00203002BB2
:101CBC0001D100230FE07B6801337B607B684CF221
:101CCC004F329342E9D90F210420FFF775FE04200F
:101CDC00FFF7B4FE042318460837BD4680BD00BF8D
:101CEC00005400401854004080B582B000AF07206B
:101CFC00FFF752FE054B1B687B60054B1B687B6036
:101D0C007B6800BF0837BD4680BD00BF145400403F
:101D1C001854004080B483B000AF0F4B1B680E4AC0
:101D2C0043F0C00313600D4B1B687B607B6823F092
:101D3C007F437B607B6843F07F437B60074A7B6813
:101D4C001360054B1B68044A43F0C003136000BFCB
:101D5C000C37BD4680BC70470C0C0140000C014098
:101D6C0080B483B000AF0F4B1B680E4A43F0C00326
:101D7C0013600D4B1B687B607B6823F07F437B609B
:101D8C007B6843F0CC437B60074A7B681360054B50
:101D9C001B68044A43F0C003136000BF0C37BD46F8
:101DAC0080BC70470C0C0140000C014080B485B025
:101DBC0000AF78600023FB600AE00B4B1A687B686D
:101DCC001340002B01D0012308E0FB680133FB60BA
:101DDC00FB684CF24F329342EFD90023184614376C
:101DEC00BD4680BC704700BF080C014080B582B076
:101DFC0000AF1120FFF7D0FDFFF7B2FFFFF7B8FDE2
:101E0C004020FFF7D3FF034683F00103DBB2002B26
:101E1C0008D011210920FFF7CFFD0920FFF70EFE96
:101E2C0009236AE000237B6024E0364B1B68354AAB
:101E3C0023F040031360FFF79BFD324B1B68314AC4
:101E4C0043F0400313604020FFF7B0FF034683F0DC
:101E5C000103DBB2002B08D011210920FFF7ACFDE8
:101E6C000920FFF7EBFD092347E0FFF781FD7B68B5
:101E7C0001337B607B68082B05D8234B1B6803F070
:101E8C008003002BD1D01F4B1B681E4A23F080030C
:101E9C001360FFF76DFD1B4B1B681A4A43F04003A0
:101EAC0013604020FFF782FF034683F00103DBB28F
:101EBC00002B08D011210920FFF77EFD0920FFF728
:101ECC00BDFD092319E0FFF753FD0E4B1B680D4AAE
:101EDC0043F080031360FFF74BFD0B4B1B6803F0C3
:101EEC00C003C02B08D011210920FFF765FD092084
:101EFC00FFF7A4FD092300E0002318460837BD4670
:101F0C0080BD00BF0C0C0140080C014080B489B0AE
:101F1C0000AFF860B9607A603B60FB68002B0BD0B7
:101F2C00BB68002B08D07B68002B05D03B68002BCE
:101F3C0002D0BB6A002B01D101236EE0FB68394A49
:101F4C00A2FB03239B0CBB61BB69012B11D9BB69A1
:101F5C00242B0ED8FA68334BA3FB02139B0C32498B
:101F6C0001FB03F3D31A002B03D1BB682F4A934216
:101F7C0001D9022351E07B68BA691A60BB682C4A0C
:101F8C0093421DD8BB685B003B61FA683B69134404
:101F9C005A1E3B69B2FBF3F3FB61FB69032B01D8BF
:101FAC000423FB61FB69B3F5805F01D3022334E0AA
:101FBC003B68FA691A60BB695A1CBB6A1A602BE051
:101FCC00BB69032B01D8022327E0BA6813465B00D8
:101FDC0013447B61FA687B6913445A1E7B69B2FB1C
:101FEC00F3F3FB61FB69002B03D0FB69B3F5805F56
:101FFC0001D3022311E0FB6943F400423B681A60F1
:10200C00BB694FF4967202FB03F30A4AA2FB03234B
:10201C009B095A1CBB6A1A60002318462437BD461C
:10202C0080BC704783DE1B4340420F00801A0600C1
:10203C00A0860100D34D621080B58AB002AFF86063
:10204C00B9601346FB7107F1140107F1180207F18F
:10205C00100300930B46B968F868FFF757FF034667
:10206C00FB77FB7F002B01D0FB7F3AE01F4B1B68FB
:10207C001E4A43F0080313601D4B1B681C4A43F4B3
:10208C00001313601A4B1B68FFF744FEFB79002BFF
:10209C000BD0184B1B68174A43F400131360154BF5
:1020AC001B68144A23F400131360134B00221A60AC
:1020BC00124ABB691360124B4FF480421A60114BE9
:1020CC0000221A60104A7B691360104A3B69136046
:1020DC00FFF726FD084B40F201421A60FFF778FD2E
:1020EC00034618462037BD4680BD00BF181002407D
:1020FC001C100240101002400054004004540040D8
:10210C00085400400C5400401C5400402054004023
:10211C0080B582B000AF1020FFF73EFC0D4B1B6862
:10212C007B607B6803F00103002B0BD00A4B1B6810
:10213C0003F40073002B05D1074B1B68064A43F4CC
:10214C0000731360FFF7A0FD034618460837BD4621
:10215C0080BD00BF185400400054004080B582B0D0
:10216C0000AF354B1B7883F00103DBB2002B05D09D
:10217C00324B0A2283F840200A2359E02F4BDB68AC
:10218C0001332E4AD3602D4B002283F84020FFF7F9
:10219C00BFFFFFF7C5FCFFF729FE0346FB71FB7978
:1021AC00002B0CD0254B1B690133244A1361234AA5
:1021BC00FB7982F84030FFF7ADFDFB7938E0FFF793
:1021CC00A9FD1220FFF7E8FB1D4B4FF400421A60EB
:1021DC00FFF7CEFB1A4B00221A601320FFF7DCFB33
:1021EC00184B1B68184A116800221846FFF724FF89
:1021FC000346FB71FB79002B0ED0104B1B6901338E
:10220C000E4A13610D4B0A2283F8402013210A2039
:10221C00FFF7D2FB0A230BE0084B002283F8402087
:10222C00064B002283F830200020FFF7B5FB00237B
:10223C0018460837BD4680BD24020020BC01002092
:10224C00005400401C0200202002002080B584B005
:10225C0000AF0346FB710B46BB7113467B717B7958
:10226C00002B01D00C2300E003231846FFF794FB4E
:10227C00134B1B68124A43F4807313600421012032
:10228C00FFF762FC0346FB73FB7B002B01D0FB7B4F
:10229C0012E00520FFF780FBFB795B00BA79002A7E
:1022AC0001D0012200E00022064913430B600621F5
:1022BC000220FFF749FC034618461037BD4680BD87
:1022CC00005400401054004080B584B000AF034669
:1022DC00FB710B46BB7113467B71FFF779FC034610
:1022EC00FB73FB7B002B01D0FB7B47E0FB790022CF
:1022FC0000211846FFF7AAFF0346FB73FB7B002B5C
:10230C0001D0FB7B3AE0FFF7EFFC0A218020FFF7BE
:10231C001BFC0346FB73FB7B002B01D0FB7B2DE0EE
:10232C000820FFF739FB174ABB7913600A2180207C
:10233C00FFF70AFC0346FB73FB7B002B01D0FB7BF6
:10234C001CE00920FFF728FB0E4A7B7913600B2158
:10235C000420FFF7F9FB0346FB73FB7B002B01D03A
:10236C00FB7B0BE00F20FFF717FB074B1B68064AA4
:10237C0043F400731360FFF787FC034618461037CD
:10238C00BD4680BD105400400054004080B588B05C
:10239C0000AFBA607B600346FB730B46BB73FFF761
:1023AC0017FC0346FB77FB7F002B01D0FB7F35E14D
:1023BC00FB7B002200211846FFF748FF0346FB7702
:1023CC00FB7F002B01D0FB7F28E1FFF78DFC0A215E
:1023DC008020FFF7B9FB0346FB77FB7F002B01D076
:1023EC00FB7F1BE10820FFF7D7FA8E4ABB7B1360FB
:1023FC000B210420FFF7A8FB0346FB77FB7F002B88
:10240C0001D0FB7F0AE1884B1B68874A23F40063E9
:10241C001360854B1B68844A43F480631360FB7B19
:10242C00012201211846FFF711FF0346FB77FB7FC2
:10243C00002B01D0FB7FF1E07B68012B2AD1FFF749
:10244C007BFA7861784B1B68774A23F480631360BE
:10245C00FFF74AFC744B1B68734A43F40073136018
:10246C007869FFF776FA0E214020FFF76DFB0346E3
:10247C00FB77FB7F002B40F0C1800D20FFF78CFA1F
:10248C00684B1B68DAB2BB681A70FFF7FDFB03469A
:10249C00FB77B3E07B68022B42D1634B1B68624A2B
:1024AC0043F400631360604B1B685F4A43F4806322
:1024BC001360FFF741FA7861FFF716FC5A4B1B6863
:1024CC00594A23F4806313607869FFF742FA0B21B1
:1024DC000420FFF739FB0346FB77FB7F002B40F012
:1024EC008D80FFF729FA78614F4B1B684E4A43F4F5
:1024FC00007313600D20FFF74FFA4A4B1B68DAB2DA
:10250C00BB681A70474B1A68BB680133D2B21A7099
:10251C007869FFF71EFAFFF7B7FB0346FB776DE010
:10252C00FFF7E2FB7B68BB6115E00E214020FFF753
:10253C000BFB0346FB77FB7F002B0CD10D20FFF729
:10254C002BFA384B1968BB685A1CBA60CAB21A709D
:10255C00BB69013BBB61BB69032B02D9FB7F002B21
:10256C00E3D0FB7F002B05D10B210420FFF7ECFA05
:10257C000346FB77FB7F002B2ED1FFF7DDF978614B
:10258C00294B1B68284A23F4806313600D20FFF746
:10259C0003FA244B1968BB685A1CBA60CAB21A7089
:1025AC00BB69013BBB61204B1B681F4A43F40073A2
:1025BC0013601C4B1968BB685A1CBA60CAB21A70FB
:1025CC00BB69013BBB617869FFF7C3F90E21402061
:1025DC00FFF7BAFA0346FB77FB7F002B0ED10D20D9
:1025EC00FFF7DAF90F4B1B68DAB2BB681A70BB69DC
:1025FC00013BBB61FFF748FB0346FB77FB7F002BDE
:10260C000BD1094B1B68084A23F400631360064B7B
:10261C001B68054A43F480631360FB7F1846203720
:10262C00BD4680BD105400400054004080B584B0BD
:10263C0000AF0346FB71FFF791FD0346FB73094A9C
:10264C00FB7B82F84030FB7B002B05D013210A204A
:10265C00FFF7B2F90A2300E0002318461037BD46F5
:10266C0080BD00BFBC01002080B5A0B002AF786077
:10267C003960304B184660231A460021FEF79DFD49
:10268C002D4B00221A700120FFF786F907F16C011F
:10269C0007F1700207F1680300930B4639687868FC
:1026AC00FFF734FC034687F8773097F87730002B28
:1026BC0008D097F8773001211846FFF77DF997F885
:1026CC00773033E01D4A7B6813601D4A3B6813600A
:1026DC00194B01221A70174A3B689365012239681D
:1026EC007868FFF7A9FC034687F8773097F87730BE
:1026FC00002B08D10F4B002283F830200020FFF76D
:10270C004BF9002312E0FFF729FD034687F87730D9
:10271C0097F87730002B08D097F8773013211846AC
:10272C00FFF74AF997F8773000E00023184678371E
:10273C00BD4680BDBC010020240200201C020020EC
:10274C002002002080B584B000AF0346FB710B461D
:10275C00BB7113467B710A23FB7297F90730002B70
:10276C0006DB334B1B7883F00103DBB2002B01D06B
:10277C00012358E02F4B1B6801332E4A13602D4A5E
:10278C00FB7982F85C302B4ABB7982F85D30294B9F
:10279C000122A3F85E200123FB602FE0254AFB6891
:1027AC0053637A79B979FB791846FFF78DFD0346A7
:1027BC00FB72FB7A002B0DD11E4B5B6801331D4A5B
:1027CC0053601C4B002283F830200020FFF7E4F804
:1027DC00002328E0FB68032B14D0164B9B680133B5
:1027EC00144A9360FB7A1846FFF720FF0346002B30
:1027FC0001D00A2317E0FB680133FB60FB68032B55
:10280C00CCD900E000BFFFF7A9FC0346002B05D094
:10281C00084B0A2283F830200A2304E0054AFB7A8D
:10282C0082F83030FB7A18461037BD4680BD00BFA9
:10283C0024020020BC01002080B586B000AFBA6035
:10284C007B600346FB730B46BB730A23FB7497F93F
:10285C000F30002B10DBBB68002B0DD07B68002BDE
:10286C000AD07B68B3F5803F06D2334B1B7883F0DC
:10287C000103DBB2002B01D0012359E02F4B1B6865
:10288C0001332E4A13602D4AFB7B82F85C302B4AB5
:10289C00BB7B82F85D307B689AB2284BA3F85E2034
:1028AC0001237B612FE0254A7B695363B97BF87B5D
:1028BC007B68BA68FFF76AFD0346FB74FB7C002B50
:1028CC000DD11E4B5B6801331C4A53601B4B00221D
:1028DC0083F830200020FFF75FF8002328E07B69A5
:1028EC00032B14D0154B9B680133144A9360FB7C6B
:1028FC001846FFF79BFE0346002B01D00A2317E076
:10290C007B6901337B617B69032BCCD900E000BF71
:10291C00FFF724FC0346002B05D0084B0A2283F852
:10292C0030200A2304E0054AFB7C82F83030FB7C23
:10293C0018461837BD4680BD24020020BC0100207B
:10294C0080B483B000AFEFF3108372B67B607B680A
:10295C0018460C37BD4680BC704780B483B000AFBE
:10296C0078607B6803F00103002B00D162B600BFD6
:10297C000C37BD4680BC704780B485B000AF786022
:10298C007B68002B0AD07A682D4BA3FB02139B0C9F
:10299C002C4901FB03F3D31A002B01D001234AE08D
:1029AC007B68274AA2FB03239B0CFB60FB68002B74
:1029BC0003D0FB68B3F5803F01D902233BE0224BE7
:1029CC001B68214A43F0010313601F4B1B684FF037
:1029DC00804300221A601D4B00221A601C4B0022FF
:1029EC001A601C4AFB68013B13601B4B4FF6FF72CD
:1029FC001A601A4B00221A60194B00221A604FF011
:102A0C00804304221A60174B01221A60104B1B687A
:102A1C000F4A23F001031360134B60221A70134BFF
:102A2C004FF080521A60094B01221A604FF080431C
:102A3C0005221A60002318461437BD4680BC704727
:102A4C0083DE1B4340420F001C1002400C00004070
:102A5C0010000040280000402C00004024000040E2
:102A6C0028020020140000401CE400E000E100E01B
:102A7C0080B584B000AFFFF763FF7860104B1B6824
:102A8C00FB60104B1B689BB2BB600F4B1B683B6021
:102A9C003B6803F00103002B07D0FB6803F5803380
:102AAC00FB60084B1B689BB2BB607868FFF755FF57
:102ABC00FA68BB68134418461037BD4680BD00BF8A
:102ACC0028020020240000401000004080B584B093
:102ADC0000AF78600FE0FFF7CBFFF86000E000BFBD
:102AEC00FFF7C6FF0246FB68D31AB3F57A7FF6D31D
:102AFC007B68013B7B607B68002BECD100BF00BF87
:102B0C001037BD4680BD000080B400AF0A4B1B6877
:102B1C0003F00103002B0BD0074B1B68064A23F074
:102B2C0001031360054B1B6803F58033034A1360E4
:102B3C0000BFBD4680BC704710000040280200203A
:102B4C0080B487B000AFF860B9607A6000237B6115
:102B5C000BE0FB681A68BB6813407A689A4201D193
:102B6C00012310E07B6901337B617B69084A934246
:102B7C00EFD9FB681A68BB6813407A689A420CBF9D
:102B8C0001230023DBB218461C37BD4680BC7047BE
:102B9C003F420F0080B400AF094B0A4A1A600A4B3F
:102BAC00084A1A60094B074A1A60094B054A1A6011
:102BBC00084B094A1A6000BFBD4680BC704700BF75
:102BCC000400002000127A00080000200C000020F5
:102BDC00100000201400002000093D0080B584B0D6
:102BEC0000AF0346FB712C4B1B682B4A43F00103CF
:102BFC001360022202212848FFF7A2FF034683F04C
:102C0C000103DBB2002B01D0042341E0224B5B68B3
:102C1C00214A23F00303536000220C211F48FFF7C5
:102C2C008FFF034683F00103DBB2002B01D004239A
:102C3C002EE0194B1B68184A23F080731360002296
:102C4C004FF000711448FFF77BFF034683F001033C
:102C5C00DBB2002B01D004231AE00F4B1B680E4A89
:102C6C0023F4803313600C4B5B68FB60FB6823F42C
:102C7C007F4323F0F003FB60074AFB685360084B6B
:102C8C001B68074A23F007031360FFF783FFFB79E8
:102C9C0018461037BD4680BD00100240041002409B
:102CAC000020024080B582B000AFFFF773FF374BB6
:102CBC001B68364A43F4803313604FF400324FF4F0
:102CCC0000313248FFF73CFF034683F00103DBB2CF
:102CDC00002B04D00120FFF781FF034652E02C4B60
:102CEC0012221A60294B5B687B607A68294B13406F
:102CFC007B607B6843F4EC1343F480637B60234A72
:102D0C007B685360214B1B68204A43F0807313602F
:102D1C004FF000724FF000711C48FFF711FF034693
:102D2C0083F00103DBB2002B04D00220FFF756FF27
:102D3C00034627E0154B5B6823F00303134A43F06B
:102D4C000203536008220C211348FFF7F9FE0346D7
:102D5C0083F00103DBB2002B04D00320FFF73EFF0E
:102D6C0003460FE00D4B0E4A1A600E4B0C4A1A60CC
:102D7C000D4B0E4A1A600E4B094A1A600D4B0E4A47
:102D8C001A60002318460837BD4680BD001002406B
:102D9C00002002400C00C0FF041002400400002080
:102DAC0000A24A04080000200C000020005125025B
:102DBC001000002014000020001BB70080B400AFEE
:102DCC00024B1B681846BD4680BC704708000020AB
:102DDC0080B400AF024B1B681846BD4680BC7047E0
:102DEC000C00002080B400AF024B1B681846BD4697
:102DFC0080BC70471000002080B487B000AF7860B2
:102E0C00244B00221A607B68002B01D101233CE08B
:102E1C007A68214BA3FB02139B094FF47A7101FBD7
:102E2C0003F3D31A002B01D001232EE07B681A4A3E
:102E3C00A2FB03239B097B617B69002B03D07B697D
:102E4C00B3F1807F01D902231FE07B69013B3B6119
:102E5C00124B00221A60124A3B6923F07F43136025
:102E6C00104B00221A60104B1B68FB60FB6823F0B0
:102E7C007F43FB60FB6843F07043FB600A4AFB68CE
:102E8C001360044B07221A60002318461C37BD46FA
:102E9C0080BC704710E000E0D34D62102C02002083
:102EAC0014E000E018E000E020ED00E080B400AF9A
:102EBC00044B1B680133034A136000BFBD4680BC42
:102ECC00704700BF2C02002080B483B000AF0023F9
:102EDC007B600AE00E4B1B6803F08003002B01D0D3
:102EEC0001230FE07B6801337B607B68094A9342C6
:102EFC00F0D9074B1B6803F08003002B14BF012390
:102F0C000023DBB218460C37BD4680BC704700BFAF
:102F1C00003801409F86010080B584B000AF786016
:102F2C003960384B00221A707B68002B02D03B684A
:102F3C00002B01D1012361E03B685A087B681A44DD
:102F4C003B68B2FBF3F3FB60FB680F2B03D9FB6808
:102F5C00B3F5803F01D3022350E02B4B1B682A4A68
:102F6C0043F4804343F004031360274B1B68274B47
:102F7C001B68BB60BB6823F0F003BB60BB6843F00D
:102F8C00A003BB60214ABB681360214B00221A606E
:102F9C00204B00221A60204B00221A601C4B4FF46D
:102FAC0000521A601D4AFB681360194B42F208026A
:102FBC001A60164B1B6803F0F003A02B15D1174BAE
:102FCC001B68FA689A4210D1114B1A6842F2080336
:102FDC00134042F20802934207D1FFF775FF0346F4
:102FEC0083F00103DBB2002B04D0094B00221A60E2
:102FFC00032303E0034B01221A70002318461037F9
:10300C00BD4680BD3002002018100240040801406B
:10301C000C38014010380140143801400838014088
:10302C0080B582B000AF0346FB710C4B1B7883F06C
:10303C000103DBB2002B07D1FFF746FF034683F0F9
:10304C000103DBB2002B01D0002303E0044AFB791F
:10305C001360012318460837BD4680BD300200209E
:10306C000438014080B582B000AF78607B68002BDB
:10307C0011D1002314E07B681B781846FFF7D0FFB2
:10308C00034683F00103DBB2002B01D0002307E0E1
:10309C007B6801337B607B681B78002BEBD10123B1
:1030AC0018460837BD4680BD80B582B000AF786049
:1030BC007868FFF7D7FF034683F00103DBB2002BE0
:1030CC0001D0002303E00448FFF7CCFF0346184669
:1030DC000837BD4680BD00BF9C42000880B586B055
:1030EC0000AF78607B68002B04D13020FFF798FF8D
:1030FC00034639E000237B611BE079681C4BA3FB82
:10310C000123DA0813469B0013445B00CA1AD3B29E
:10311C003033D9B207F108027B6913440A461A709E
:10312C007B6901337B617B68114AA2FB0323DB08BB
:10313C007B607B68002BE0D112E07B69013B7B61FB
:10314C0007F108027B6913441B781846FFF768FFE8
:10315C00034683F00103DBB2002B01D0002303E014
:10316C007B69002BE9D1012318461837BD4680BD79
:10317C00CDCCCCCC80B584B000AF78601648FFF7CE
:10318C0071FF034683F00103DBB2002B01D0002357
:10319C001DE01C23FB607A68FB6822FA03F303F042
:1031AC000F030E4AD35C1846FFF73AFF034683F031
:1031BC000103DBB2002B01D0002308E0FB68002BDD
:1031CC0003D0FB68043BFB60E5E700BF0123184616
:1031DC001037BD4680BD00BFA0420008A4420008C5
:1031EC0080B485B000AF0346FB800B46BB80134612
:1031FC007B80B7F90620B7F904309A4205DDFB88CD
:10320C00FB81BB88FB80FB89BB80B7F90420B7F935
:10321C0002309A4205DDBB88FB817B88BB80FB8931
:10322C007B80B7F90620B7F904309A4201DDFB88A0
:10323C00BB80B7F9043018461437BD4680BC7047C4
:10324C0090B585B000AF786039607B681B7C83F0EB
:10325C000103DBB2002B10D07B683A681A607B68E4
:10326C003A685A607B683A689A607B683A68DA60B8
:10327C007B6801221A743B6848E026493868FDF7E0
:10328C003DF803461C467B681B6823491846FDF72E
:10329C0035F8034619462046FCF728FF03461C4622
:1032AC007B685B681B491846FDF728F803461946EE
:1032BC002046FCF71BFF03461C467B689B6817499E
:1032CC001846FDF71BF8034619462046FCF70EFF7F
:1032DC0003461C467B68DB6811491846FDF70EF85F
:1032EC00034619462046FCF7FFFE0346FB607B684D
:1032FC001A687B685A607B683A681A607B689A68BF
:10330C007B68DA607B68FA689A60FB681846143749
:10331C00BD4690BD8CE05A3C8CE0DA3CF8DFD23FE5
:10332C00F96D333F80B483B000AF78607B68B3F93C
:10333C00083047F6F77293421FDC7B68B3F908300C
:10334C00134A934219DB7B68B3F90A3047F6F772DC
:10335C00934212DC7B68B3F90A300D4A93420CDBC2
:10336C007B68B3F90C3047F6F772934205DC7B6847
:10337C00B3F90C30064A934201DA012300E0002332
:10338C0003F00103DBB218460C37BD4680BC704716
:10339C000980FFFF80B596B000AF054B1846582347
:1033AC001A460021FDF709FF00BF5837BD4680BD06
:1033BC003402002080B592B000AF786039607B6831
:1033CC00002B02D03B68002B01D1002350E13B685D
:1033DC0018463C231A460021FDF7EFFE7B681A685D
:1033EC003B681A607B685A683B685A607B68B3F923
:1033FC0008203B689A817B68B3F90A203B68DA8124
:10340C007B68B3F90C203B681A829B4B93F85430C1
:10341C00002B0AD07B681A68974B1B6D9A4204D11B
:10342C003B6810229A60002322E17868FFF77AFF4C
:10343C000346002B04D03B6808229A60002317E156
:10344C007B681B688C4A13658B4B012283F85420D4
:10345C00894BDB7C002B33D17B68B3F90820864B7E
:10346C001A807B68B3F90820834B5A807B68B3F9C8
:10347C000820814B9A807B68B3F90A207E4BDA8056
:10348C007B68B3F90A207C4B1A817B68B3F90A205C
:10349C00794B5A817B68B3F90C20774B9A817B6806
:1034AC00B3F90C20744BDA817B68B3F90C20724BA6
:1034BC001A82714B0322DA746F4B01229A742EE03C
:1034CC006D4B9B7C87F8473097F847307A68B2F998
:1034DC000810694A22F8131097F847307A68B2F945
:1034EC000A10654A5B0013440A46DA8097F84730A5
:1034FC007A68B2F90C10604A04335B0013440A4634
:10350C009A8097F84730591C5C4BA3FB01235A084F
:10351C0013465B001344CA1AD2B2574B9A74564BDB
:10352C00B3F90030544AB2F90210534AB2F90420EC
:10353C001846FFF755FE03461A463B685A824E4B17
:10354C00B3F906304C4AB2F908104B4AB2F90A20CA
:10355C001846FFF745FE03461A463B689A82464BCF
:10356C00B3F90C30444AB2F90E10434AB2F91020A8
:10357C001846FFF735FE03461A463B68DA823B686D
:10358C00B3F912301846FCF765FE03463C49184661
:10359C00FCF7AAFD03463B491846FCF763FF0346BC
:1035AC001A463B689A613B68B3F914301846FCF72D
:1035BC0051FE034634491846FCF796FD0346334941
:1035CC001846FCF74FFF03461A463B68DA613B6826
:1035DC00B3F916301846FCF73DFE03462C49184645
:1035EC00FCF784FD03462B491846FCF73BFF0346CA
:1035FC001A463B681A623B689B6919462648FFF7D6
:10360C001FFE02463B685A623B68DB691946234839
:10361C00FFF716FE02463B689A623B681B6A194626
:10362C001F48FFF70DFE02463B68DA623B685B6A97
:10363C001C491846FCF762FE03461A463B681A639F
:10364C003B689B6A17491846FCF758FE03461A4616
:10365C003B685A633B68DB6A12491846FCF74EFE1E
:10366C0003461A463B689A633B6807229A6001231B
:10367C0018464837BD4680BD34020020ABAAAAAA22
:10368C00DE13BB41BC2AFF4593A912418DDDFF45DA
:10369C00DA7BDE4283A50046480200205C02002053
:1036AC00700200200AE81C4180B483B000AF78603F
:1036BC007B68B3F9083047F6F77293421FDC7B68DE
:1036CC00B3F90830134A934219DB7B68B3F90A301B
:1036DC0047F6F772934212DC7B68B3F90A300D4A55
:1036EC0093420CDB7B68B3F90C3047F6F7729342CC
:1036FC0005DC7B68B3F90C30064A934201DA0123EE
:10370C0000E0002303F00103DBB218460C37BD4682
:10371C0080BC70470980FFFF80B483B000AF786035
:10372C0039607B681A683B681A607B685A683B682A
:10373C005A607B68B3F908203B681A837B68B3F93D
:10374C000A203B685A837B68B3F90C203B689A8348
:10375C000C4B9A6C3B685A620A4BDA6C3B689A6267
:10376C00084B1A6D3B68DA62064B1A6C3B681A619F
:10377C00044B5A6C3B685A6100BF0C37BD4680BC89
:10378C00704700BF9002002080B483B000AF786017
:10379C001D4B01221A701C4A7B6853601A4B012284
:1037AC001A7219494FF000024FF00003C1E90423CB
:1037BC0015494FF000024FF00003C1E906231249EE
:1037CC004FF000024FF00003C1E908230E494FF0FF
:1037DC0000024FF00003C1E90A230B494FF000022D
:1037EC004FF00003C1E90C2307494FF000024FF0E2
:1037FC000003C1E90E23044B00221A6400BF0C37EE
:10380C00BD4680BC704700BF9002002080B483B0DE
:10381C0000AF78601D4B02221A701C4A7B68536003
:10382C001A4B01221A7219494FF000024FF0000393
:10383C00C1E9042315494FF000024FF00003C1E920
:10384C00062312494FF000024FF00003C1E9082390
:10385C000E494FF000024FF00003C1E90A230B4957
:10386C004FF000024FF00003C1E90C2307494FF061
:10387C0000024FF00003C1E90E23044B00221A642E
:10388C0000BF0C37BD4680BC704700BF90020020C3
:10389C002DE9F00F9AB000AFF864FB6CB3F9083067
:1038AC001BB2DA173B617A61D7E90434C7E91834E3
:1038BC00FB6CB3F90A301BB2DA17BB60FA60D7E9BC
:1038CC000234C7E91634FB6CB3F90C301BB2DA17AF
:1038DC003B607A60D7E90034C7E91434464BD3E92E
:1038EC000401D7E9182384183C6441EB03037B647F
:1038FC00414BD7E91012C3E904123F4BD3E906013F
:10390C00D7E916238418BC6341EB0303FB633A4BE2
:10391C00D7E90E12C3E90612374BD3E90801D7E9F0
:10392C00142384183C6341EB03037B63324BD7E9CC
:10393C000C12C3E90812304BD3E90A017A6E3B6EC4
:10394C0003FB02F47A6E3B6E02FB03F3E2183B6E50
:10395C00A3FB035693191E464319BB6241EB0603A6
:10396C00FB62254BD7E90A12C3E90A12224BD3E9B1
:10397C000C23F96DB86D01FB00F0F96DBC6D04FB07
:10398C0001F10844B96DA1FB01AB00EB0B018B46B7
:10399C0012EB0A01396243EB0B037B62164BD7E93E
:1039AC000812C3E90C12144BD3E90E23796D386D50
:1039BC0001FB00F0796D3C6D04FB01F10844396D9D
:1039CC00A1FB018900EB0901894612EB0801B961E1
:1039DC0043EB0903FB61084BD7E90612C3E90E124E
:1039EC00054B1B6C0133044A136400BF6837BD469A
:1039FC00BDE8F00F704700BF900200202DE9B00F1A
:103A0C0097B000AFC7E90E01C7E90C233F4B1B6C05
:103A1C0000223B627A62D7E90823C7E914237A6D46
:103A2C003B6B03FB02F17A6B3B6D02FB03F3194416
:103A3C003A6D3B6BA2FB0332FA62BB62FB6ACB189A
:103A4C00FB62FA6BBB6B03FB02F1FA6BBB6B02FB09
:103A5C0003F3CA18BB6BA3FB03AB02EB0B039B4634
:103A6C00D7E90A231146B1EB0A01B96163EB0B03E9
:103A7C00FB61D7E90623C7E912237B6D3A6D03FB83
:103A8C0002F27B6D396D01FB03F31A443B6DA3FB12
:103A9C00034553191D4622462B46911839615B414B
:103AAC007B61D7E9042312EB040843EB05094FF0C3
:103ABC0000024FF000034FEA491343EAD8634FEA80
:103ACC00481218EB0201B96049EB0303FB60D7E91C
:103ADC0002120B461B193B60134645EB03037B603C
:103AEC00D7E90034C7E91034D7E91223D7E910011C
:103AFC00904271EB0303ACBF01230023DBB21846E9
:103B0C005C37BD46BDE8B00F704700BF9002002087
:103B1C0080B500AF144BD3E90401134BD3E90A234E
:103B2C00FFF76CFF0346002B17D00F4BD3E90601B0
:103B3C000D4BD3E90C23FFF761FF0346002B0CD090
:103B4C00094BD3E90801084BD3E90E23FFF756FFC5
:103B5C000346002B01D0012300E0002303F00103F6
:103B6C00DBB2184680BD00BF9002002080B582B049
:103B7C0000AF214B1B6C1846FCF768FB03467B60BF
:103B8C001D4BD3E9042310461946FCF779FB034679
:103B9C0079681846FCF766FC03461A46164B9A647D
:103BAC00154BD3E9062310461946FCF769FB03466F
:103BBC0079681846FCF756FC03461A460E4BDA6435
:103BCC000D4BD3E9082310461946FCF759FB034665
:103BDC0079681846FCF746FC03461A46064B1A65EC
:103BEC00054B03221A70044B002283F8602000BF9F
:103BFC000837BD4680BD00BF9002002080B584B060
:103C0C0000AF78603960494B1B7A83F00103DBB25B
:103C1C00002B04D07B685B681846FFF7B5FD434B5F
:103C2C001B78012B13D17B685A68404B5B68D31A05
:103C3C00FB60FB683E4A934204D83B681022DA6072
:103C4C0000236EE07B685B681846FFF7DFFD374B9F
:103C5C001B78022B64D17868FFF71AFE7B685A68D0
:103C6C00324B5B68D31AFB60FB68314A934208D82D
:103C7C003B682022DA602D4B1A6C3B681A610023DA
:103C8C004FE02A4B1B6CB3F5166F12D2274B5B6CB3
:103C9C000133264A53647B685B681846FFF774FD52
:103CAC003B681022DA60214B5A6C3B685A61002346
:103CBC0037E0FFF72DFF034683F00103DBB2002B47
:103CCC0017D01A4B1A6C3B681A61184B5B6C01339A
:103CDC00164A53647B685B681846FFF755FD3B68D2
:103CEC004FF48262DA60114B5A6C3B685A610023C4
:103CFC0017E0FFF73BFF0D4B9A6C3B685A620B4B7E
:103D0C00DA6C3B689A62094B1A6D3B68DA62074BB6
:103D1C001A6C3B681A613B680622DA60002300E0EB
:103D2C00012318461037BD4680BD00BF900200200D
:103D3C003F4B4C0080B59CB000AF0346FB710F4B62
:103D4C00184668231A460021FDF737FAFB79002B39
:103D5C0003D00A4B01221A700BE0084B00221A7098
:103D6C00064B074A9A64054B064ADA64034B064A2B
:103D7C001A6500BF7037BD4680BD00BF90020020A1
:103D8C00D7A30C4333333543F628084180B59AB09A
:103D9C0000AF786039607B68002B02D03B68002B49
:103DAC0001D100232AE13B68184654231A4600210E
:103DBC00FDF703FA39687868FFF7AEFC00237B66E1
:103DCC00904B93F85830002B0AD07B681A688D4BB7
:103DDC005B6D9A4204D13B688022DA6000230DE1CE
:103DEC00884B93F85830002B0AD07B681A68854BA7
:103DFC005B6D01339A4203D07B6E43F400637B66A8
:103E0C007868FFF751FC0346002B06D07B6E43F01D
:103E1C0040023B68DA600023F0E07B681B68794A5B
:103E2C005365784B012283F85820764B1B78012B75
:103E3C0003D0744B1B78022B11D139687868FFF7CB
:103E4C00DDFE034683F00103DBB2002B07D03B6899
:103E5C00DA687B6E1A433B68DA600023CEE07B6E37
:103E6C0043F002023B68DA60664B1B78002B06D1EC
:103E7C003B68DB6843F008023B68DA6005E03B68AE
:103E8C00DB6843F004023B68DA605E4B93F8603009
:103E9C00002B29D07B685A685A4BDB6DD31A3B66D2
:103EAC003B683A6E9A60386EFCF7D0F90346564977
:103EBC001846FCF723FA03461A463B681A623B681D
:103ECC00DB6843F400723B68DA603B6EB3F5E16F7C
:103EDC0004D33B6E40F69802934205D93B68DB68ED
:103EEC0043F480723B68DA607B685B68454AD36553
:103EFC00444B012283F86020424B9A6C3B685A6217
:103F0C00404BDA6C3B689A623E4B1A6D3B68DA6246
:103F1C007B68B3F908301846FCF79CF90246394B1C
:103F2C009B6C19461046FCF7DFF803461A463B68B3
:103F3C001A637B68B3F90A301846FCF78BF9024612
:103F4C00304BDB6C19461046FCF7CEF803461A468C
:103F5C003B685A637B68B3F90C301846FCF77AF966
:103F6C000246284B1B6D19461046FCF7BDF803465C
:103F7C001A463B689A633B681B6B24491846FCF74E
:103F8C0071FA03461A463B68DA633B685B6B1F4960
:103F9C001846FCF767FA03461A463B681A643B68F6
:103FAC009B6B1A491846FCF75DFA03461A463B68A8
:103FBC005A643B68DB6B16491846FCF79FF90346BD
:103FCC001A463B689A643B681B6C11491846FCF70F
:103FDC0095F903461A463B68DA643B685B6C0C49FE
:103FEC001846FCF78BF903461A463B681A653B6882
:103FFC00DB6843F001023B68DA600123184668373E
:10400C00BD4680BD90020020BD378635000083423E
:10401C0035FA8E3C5B4759524F2043414C5D204D45
:10402C006F74696F6E2064657465637465643B209E
:10403C0072657374617274696E672063616C696216
:10404C00726174696F6E00005B4759524F20434197
:10405C004C5D20536574746C696E6720666F7220BA
:10406C0035207365636F6E64733B206B65657020E0
:10407C0073746174696F6E61727900005B47595299
:10408C004F2043414C5D20436F6C6C656374696ECB
:10409C00672035207365636F6E64733B206B6565B9
:1040AC00702073746174696F6E6172790000000026
:1040BC005B4759524F2043414C5D205374617274DD
:1040CC007570206269617320726561647920736117
:1040DC006D706C65733D00005B4759524F20434136
:1040EC004C5D205573696E67206669786564203273
:1040FC00302D6D696E757465206269617300000006
:10410C0020626961735F636F756E74733D000000AC
:10411C000D0A00005B424F4F545D20466C69676886
:10412C007420636F6E74726F6C6C65722073746143
:10413C007274696E670000005B4143515D204D5005
:10414C00553635303020616363656C2F6779726F3B
:10415C00206163717569736974696F6E000000008A
:10416C005B4552524F525D2041637175697369749E
:10417C00696F6E20696E6974207374617475733D18
:10418C0000000000206472697665725F737461745C
:10419C0075733D005B48414C545D20436865636B0F
:1041AC0020706F7765722C20776972696E672C208E
:1041BC006164647265737320616E642070756C6CDD
:1041CC002D757073000000005B414343454C20503B
:1041DC004950455D206D656469616E33202D3E202C
:1041EC0063616C6962726174696F6E202D3E20325E
:1041FC0030487A204C5046202D3E206D2F733200D3
:10420C005B4759524F20504950455D2076616C698F
:10421C0064617465202D3E2062696173202D3E20FF
:10422C00647073202D3E207261642F7300000000B7
:10423C005B49445D204D5055363530303D00000013
:10424C0020414B383936333D000000005B5245416C
:10425C0044595D205374617274696E67205041300B
:10426C0020444154415F5244590000005B48414C8A
:10427C00545D20436F756C64206E6F742073746191
:10428C00727420494D5520444154415F52445900A9
:10429C000D0A0000307800003031323334353637B7
:0C42AC0038394142434445460000000000
:1042B8006800000000127A0000127A0000127A00EA
:0842C80000127A0000093D001C
:040000050800137963
:00000001FF
