:020000040800F2
:100000000050002091100008A50E0008C10E000845
:10001000170F00081F0F0008270F0008000000003E
:100020000000000000000000000000002F0F00088A
:10003000370F0008000000003F0F0008492D00089E
:10004000470F00084F0F0008570F00085F0F000808
:10005000670F00086F0F0008E90D0008770F000810
:100060007F0F0008870F00088F0F0008970F000808
:100070009F0F0008A70F0008AF0F0008B70F000878
:10008000BF0F0008C70F0008CF0F0008D70F0008E8
:10009000DF0F0008E70F0008EF0F0008F70F000858
:1000A000FF0F0008071000080F10000817100008C5
:1000B000912900081F100008271000082F100008C1
:1000C000371000083F100008471000084F100008C4
:1000D000571000085F100008671000086F10000834
:0C00E000771000087F100008871000084F
:1000EC0080B584B000AF0346FB80B7F90630FB60E7
:1000FC00FB68002B05DA2D2002F0DAFEFB685B4270
:10010C00FB60FB68184602F031FF00BF1037BD469C
:10011C0080BD80B500AF2C2002F0CAFE00BF80BDB0
:10012C0080B582B000AF7860374802F0E3FE7B68A0
:10013C001B68184602F01AFF344802F0DBFE7B689D
:10014C005B68184602F012FF314802F0D3FE7B6860
:10015C00B3F910301846FFF7C3FFFFF7DAFF7B68DF
:10016C00B3F912301846FFF7BBFFFFF7D2FF7B68DD
:10017C00B3F914301846FFF7B3FF264802F0BAFE65
:10018C007B68B3F918301846FFF7AAFFFFF7C1FFD9
:10019C007B68B3F91A301846FFF7A2FFFFF7B9FFD7
:1001AC007B68B3F91C301846FFF79AFF01F040FA50
:1001BC000346002B18D0184802F09CFE7B68B3F95C
:1001CC001E301846FFF78CFFFFF7A3FF7B68B3F9CF
:1001DC0020301846FFF784FFFFF79BFF7B68B3F9CD
:1001EC0022301846FFF77CFF0C4802F083FE7B6838
:1001FC00DB68184602F006FF094802F07BFE00BFE0
:10020C000837BD4680BD00BF7C3000088830000830
:10021C009030000894300008983000089C3000089A
:10022C00A430000880B582B000AF7860304802F08E
:10023C0061FE7B681B68184602F098FE2D4802F0A0
:10024C0059FE7B685B68184602F090FE2A4802F063
:10025C0051FE7B689B68184602F088FE274802F026
:10026C0049FE7B68DB68184602F080FE244802F0E9
:10027C0041FE7B681B69184602F078FE214802F0AB
:10028C0039FE7B6893F83830184602F06FFE1E4832
:10029C0002F030FE7B6893F83930184602F066FEA7
:1002AC001A4802F027FE7B68DB6B184602F05EFEF4
:1002BC00174802F01FFE7B689B6C184602F0A2FEEA
:1002CC00144802F017FE7B68DB6C184602F09AFEAD
:1002DC00114802F00FFE7B685B6D184602F092FE2F
:1002EC000E4802F007FE00BF0837BD4680BD00BFB8
:1002FC00A8300008B4300008BC300008C430000836
:10030C00D0300008DC300008E8300008F03000087D
:10031C00003100080831000810310008A430000832
:10032C0080B582B000AF7860104802F0E3FD7B68C6
:10033C001B68184602F01AFE0D4802F0DBFD0D4B4F
:10034C001B78DBB2184602F011FE0B4802F0D2FD0E
:10035C0000F03AFD0346184602F008FE074802F08A
:10036C00C9FD00BF0837BD4680BD00BF1C31000869
:10037C00303100089000002040310008A430000803
:10038C0080B582B000AF7860044B1B78DBB2002BD9
:10039C0002D1786802F0D0FD00BFFDE78F0000208D
:1003AC00B0B5B8B000AF00F049FD02F0B9FB0346A0
:1003BC001A461E4B1A701D4B1B78DBB2002B01D05A
:1003CC0000BFFDE702F038FC0346184602F052FC71
:1003DC0003461A46164B1A70154B1B78DBB2002BD2
:1003EC0001D000BFFDE702F031FCC7F8CC0002F0F1
:1003FC0023FC0246D7F8CC30934203D0D7F8CC304C
:10040C005B0001E0D7F8CC30C7F8C830D7F8C8008B
:10041C0002F0F0F903461A46064B1A70054B1B788E
:10042C00DBB2002B08D000BFFDE700BF8C00002022
:10043C008D0000208E00002002F012FC03464FF4C9
:10044C00E131184602F0B0FC03461A46B44B1A7060
:10045C00B34B1B78DBB2002B05D1B24802F06CFD1C
:10046C00B14802F069FDD7F8CC0000F013FB03464D
:10047C001A46AE4B1A70AD4B1B78DBB2002B00F05A
:10048C00A581A74B1B78DBB2002B40F04581A84817
:10049C0002F030FDA54B1B78DBB2184602F066FD6E
:1004AC00A44802F027FD00F08FFC0346184602F02A
:1004BC005DFDA14C07F12803184601F0C9F825464B
:1004CC0007F128040FCC0FC523682B609B4802F062
:1004DC0011FD994B1B78184602F048FD984802F024
:1004EC0009FD954B5B78184602F040FD954802F0EB
:1004FC0001FD914B5B68184602F038FD924802F002
:10050C00F9FC8D4B1B69184602F030FD8F4802F048
:10051C00F1FC894B1B7A184602F074FD8C4802F0F2
:10052C00E9FC854B5B7A184602F06CFD894802F0B9
:10053C00E1FC814B9B7A184602F064FD864802F080
:10054C00D9FC7D4BDB7A184602F05CFD834802F047
:10055C00D1FC794B1B7B184602F054FD804802F00D
:10056C008FF8804802F0C6FC7D4B93F8313018466A
:10057C0002F0FCFC7C4802F0BDFC794B93F8303067
:10058C00184602F0F3FC704802F0B4FC744B5B6B41
:10059C00184602F0EBFC754802F0ACFC704B5B6C3F
:1005AC00184602F02FFD724802F0A4FC6C4B9B6CB9
:1005BC00184602F027FD6F4802F09CFC684BDB6C80
:1005CC00184602F01FFD6C4802F094FC644B1B6D46
:1005DC00184602F017FD694802F08CFC604B93F84A
:1005EC003830184602F0C2FC654802F083FC5C4BC4
:1005FC0093F83930184602F0B9FC624802F07AFCE4
:10060C00574BDB6B184602F0B1FC5F4802F072FCF2
:10061C00534B93F84030184602F0A8FC5B4802F0AC
:10062C0069FC4F4B5B6D184602F0ECFC584802F02D
:10063C0061FC4B4B9B6D184602F098FC554802F040
:10064C0059FC474B93F85C30184602F0DBFC4048F1
:10065C0002F050FC424B93F85D30184602F0D2FC8D
:10066C004D4802F047FC3E4BB3F85E30184602F0A2
:10067C007DFC4A4802F03EFC394B9B68184602F060
:10068C0075FC474802F036FC354BDB68184602F027
:10069C006DFC444802F02EFC314B1B69184602F0ED
:1006AC0065FC414802F026FC2D4B5B69184602F0B4
:1006BC005DFC3E4802F01EFC294B9B69184602F07B
:1006CC0055FC3B4802F016FC254BDB69184602F042
:1006DC004DFC384802F00EFC214B1B6A184602F008
:1006EC0045FC354802F006FC1D4B5B6A184602F0CF
:1006FC003DFC324802F0FEFB194B9B6A184602F097
:10070C0035FC2F4802F0F6FB154BDB6A184602F05D
:10071C002DFC2C4802F0EEFB2B48FFF731FE00BFFE
:10072C008F00002050310008743100089000002028
:10073C009C3100084031000818000020C03100082E
:10074C00D8310008E0310008F0310008FC31000815
:10075C00143200081C320008343200084032000801
:10076C002C00002048320008603200086C3200086F
:10077C000031000808310008803200088832000877
:10078C00AC320008F0300008C0320008D03200084B
:10079C00EC320008F8320008003300080833000877
:1007AC0020330008D0300008303300083C330008F8
:1007BC00443300084C330008543300085C33000801
:1007CC0064330008A430000870330008654B1B78B4
:1007DC00DBB2002B19D1644802F08CFB00F014FF43
:1007EC000346184602F00EFC00F022FF0346002BD5
:1007FC0008D05E4802F07EFB00F010FF034618465E
:10080C0002F000FC5A4802F075FB02F08DFAC7F8B2
:10081C00DC000023C7F8D8300023C7F8D4300023FD
:10082C00C7F8D0304F4B1B78DBB2002B02D15148AC
:10083C0002F082FB00F08AF903461A464E4B1A70FE
:10084C004D4B1B78DBB2002B02D04C48FFF798FDC8
:10085C0000F0A2F903461A46474B1A70464B1B7818
:10086C00DBB2002B11D107F14003184600F05AFA05
:10087C000346002B09D0424B1D4607F140040FCC18
:10088C000FC50FCC0FC523682B603E4C3B4618465A
:10089C0000F070FA25463C460FCC0FC50FCC0FC5A7
:1008AC0023682B6002F040FA0246D7F8DC30D31AEA
:1008BC00B3F57A7F53D302F037FAC7F8DC00294B33
:1008CC001B78DBB2002B4AD107F16403184601F008
:1008DC00D7FEBA6FFB6F1A44D7F880301A44D7F89A
:1008EC0084301A44D7F888301A44D7F88C301A441C
:1008FC00D7F890301344C7F8C430D7F8C420D7F8D1
:10090C00D4309A4204D13B6FD7F8D0209A420BD006
:10091C0007F164031846FFF785FCD7F8C430C7F815
:10092C00D4303B6FC7F8D03007F14003184600F0C5
:10093C00F9F90346002B12D03B6CD7F8D8209A4219
:10094C0008D007F140031846FFF7EAFB3B6CC7F8E9
:10095C00D83004E007F140031846FFF7E1FC00BF74
:10096C0076E700BF8F000020A4330008B4330008E2
:10097C00A4300008C033000890000020E0330008C9
:10098C0094000020B800002080B483B000AFEFF3D7
:10099C00108372B67B607B6818460C37BD4680BCF2
:1009AC00704780B483B000AF78607B6803F00103BC
:1009BC00002B00D162B600BF0C37BD4680BC70471F
:1009CC0080B483B000AF2A4B1B68294A43F005035F
:1009DC001360274B1B68274B1B687B607B6823F0DD
:1009EC000F037B607B6843F004037B60214A7B68C8
:1009FC001360214B1B68204A23F00F0313601F4B1D
:100A0C001B681E4A23F0010313601D4B1B681C4A14
:100A1C0023F0010313601B4B1B681A4A43F00103BC
:100A2C001360194B01221A60184B50221A70184B84
:100A3C0040221A600F4B1B6803F00F03042B0DD1DF
:100A4C000D4B1B6803F00F03002B07D10D4B1B68DC
:100A5C0003F00103002B01D0012300E0002303F07D
:100A6C000103DBB218460C37BD4680BC704700BF93
:100A7C001810024000080140080001400004014029
:100A8C000C040140080401401404014006E400E099
:100A9C0000E100E080B596B000AF7860FFF774FF1E
:100AAC007865224B00221A60214B00221A60214BE0
:100ABC0000221A60204B00221A70204B1846242367
:100ACC001A46002100F004FA1D4B184624231A463E
:100ADC00002100F0FDF91B4B00221A70786DFFF716
:100AEC0060FF1949786801F05FFC0346002B01D0C8
:100AFC00032317E0682000F0EFFB03461A46114B66
:100B0C001A70104B1B78002B01D004230AE0FFF75E
:100B1C0057FF034683F00103DBB2002B01D0052302
:100B2C0000E0002318465837BD4680BDDC0000208D
:100B3C00E0000020E40000200C0100201001002047
:100B4C00E800002034010020801A060080B500AFB8
:100B5C000E4B01221A600E4B1B680D4A43F0010329
:100B6C00136000F0D5FC03461A460A4B1A70094B69
:100B7C001B78002B07D0064B1B68054A23F001039A
:100B8C001360072300E00023184680BD14040140C5
:100B9C000004014034010020B0B590B000AFFFF765
:100BAC00F3FEF863584B1B68BB63584B1B687B63A5
:100BBC00554B00221A60F86BFFF7F3FEBB6B002B52
:100BCC0001D101239BE0BB6B012B06D9504B9A68DA
:100BDC00BB6B1344013B4E4A93604E4B07F10C0424
:100BEC001D460FCD0FC40FCD0FC42B682360BB69FE
:100BFC0023F00503BB6107F10C031033184600F01A
:100C0C0093FC03461A46444B1A70434B1B78002B3B
:100C1C0006D03F4BDB6801333D4AD36006236EE0C0
:100C2C007B6B3B61BB6943F00103BB6100F000FDD2
:100C3C000346002B37D007F10C031E33184600F087
:100C4C00D9FC034687F8333097F83330002B08D1A2
:100C5C0001F04CFE03467B61BB6943F00603BB61AC
:100C6C002CE097F83330052B05D1294BDB69013388
:100C7C00274AD36122E097F83330062B09D1244B55
:100C8C001B6A0133224A1362BB6923F00203BB6166
:100C9C0014E01F4BDB6801331D4AD3601E4A97F8E2
:100CAC00333013700AE007F12A0300221A609A808D
:100CBC0000237B61BB6923F00603BB61154B1B68EA
:100CCC000133FB60FFF760FEF863124B1D4607F122
:100CDC000C040FCC0FC50FCC0FC523682B600F4B2A
:100CEC0001221A700A4B5B680133094A53600C4BA2
:100CFC001B68074A1360F86BFFF753FE0023184676
:100D0C004037BD46B0BD00BFDC000020E000002035
:100D1C0010010020E8000020340100200C0100200C
:100D2C00E4000020B0B584B000AF78607B68002B85
:100D3C0001D1002316E0FFF727FEF8600B4B1B7860
:100D4C00FB72FB7A002B09D07B68094A1C461546BE
:100D5C000FCD0FC40FCD0FC42B682360F868FFF7BD
:100D6C0020FEFB7A18461037BD46B0BD0C010020A2
:100D7C00E8000020B0B58CB000AF7860FFF704FE3F
:100D8C00F8620F4B07F108041D460FCD0FC40FCDB1
:100D9C000FC42B6823600B4B1B68BB60F86AFFF712
:100DAC0000FE7B681D4607F108040FCC0FC50FCC65
:100DBC000FC523682B6078683037BD46B0BD00BFC7
:100DCC0010010020E400002080B400AF024B1B781F
:100DDC001846BD4680BC70473401002080B500AF7A
:100DEC000F4B1B6803F00103002B16D00C4B012298
:100DFC001A6001F07BFD03460A4A13600A4B1B681C
:100E0C00B3F1FF3F04D0084B1B680133064A136053
:100E1C00064B1B680133054A136000BF80BD00BF41
:100E2C0014040140E0000020DC000020E40000205D
:100E3C0080B400AF72B600BFFDE7000080B485B08F
:100E4C0000AF0D4BBB6013237B600023FB6008E0FD
:100E5C00FB689B00BA68134400221A60FB680133DC
:100E6C00FB60FA687B689A42F2D300BF00BF14376C
:100E7C00BD4680BC704700BF3801002080B500AF74
:100E8C00034B01225A60024B024A1A60FFF7D0FF53
:100E9C00380100204C55414680B500AF034B02226F
:100EAC005A60024B024A1A60FFF7C2FF3801002059
:100EBC004C55414680B500AF034B03225A60024BA0
:100ECC00024A1A60FFF7B4FF380100204C55414626
:100EDC0080B487B000AFF860B9607A60FB687B6162
:100EEC00BB68FB7408E07B69FA7C1A707B69013380
:100EFC007B617B68013B7B607B68002BF3D1FB68DB
:100F0C0018461C37BD4680BC704780B500AFFFF754
:100F1C00B5FF80B500AFFFF7B1FF80B500AFFFF7AD
:100F2C00ADFF80B500AFFFF7A9FF80B500AFFFF7AD
:100F3C00A5FF80B500AFFFF7A1FF80B500AFFFF7AD
:100F4C009DFF80B500AFFFF799FF80B500AFFFF7AD
:100F5C0095FF80B500AFFFF791FF80B500AFFFF7AD
:100F6C008DFF80B500AFFFF789FF80B500AFFFF7AD
:100F7C0085FF80B500AFFFF781FF80B500AFFFF7AD
:100F8C007DFF80B500AFFFF779FF80B500AFFFF7AD
:100F9C0075FF80B500AFFFF771FF80B500AFFFF7AD
:100FAC006DFF80B500AFFFF769FF80B500AFFFF7AD
:100FBC0065FF80B500AFFFF761FF80B500AFFFF7AD
:100FCC005DFF80B500AFFFF759FF80B500AFFFF7AD
:100FDC0055FF80B500AFFFF751FF80B500AFFFF7AD
:100FEC004DFF80B500AFFFF749FF80B500AFFFF7AD
:100FFC0045FF80B500AFFFF741FF80B500AFFFF7AD
:10100C003DFF80B500AFFFF739FF80B500AFFFF7AC
:10101C0035FF80B500AFFFF731FF80B500AFFFF7AC
:10102C002DFF80B500AFFFF729FF80B500AFFFF7AC
:10103C0025FF80B500AFFFF721FF80B500AFFFF7AC
:10104C001DFF80B500AFFFF719FF80B500AFFFF7AC
:10105C0015FF80B500AFFFF711FF80B500AFFFF7AC
:10106C000DFF80B500AFFFF709FF80B500AFFFF7AC
:10107C0005FF80B500AFFFF701FF80B500AFFFF7AC
:10108C00FDFE000080B582B000AF124B7B60124BAE
:10109C003B6009E07B681A683B681A607B68043324
:1010AC007B603B6804333B603B680C4A9342F1D352
:1010BC000B4B3B6005E03B6800221A603B68043335
:1010CC003B603B68074A9342F5D3FFF769F9FFF79A
:1010DC00D5FE00BF203400080000002018000020BE
:1010EC00180000201802002080B483B000AF034623
:1010FC003960FB71054AFB791370044A3B68136134
:10110C0000BF0C37BD4680BC704700BF8C0100206F
:10111C0080B586B000AFBA607B600346FB730B46AC
:10112C00BB730F4B02225A700D4AFB7B13720C4A95
:10113C00BB7B5372B97BF87B7B68BA6801F01CFAF5
:10114C000346FB75FB7D064A5360FB7D002B01D0EB
:10115C00022300E0002318461837BD4680BD00BFAF
:10116C008C01002080B584B000AF0346FB710B46A8
:10117C00BB7113467B71104B01225A700E4AFB79DE
:10118C0013720D4ABB7953720B4A7B7993727A793D
:10119C00B979FB79184601F075F90346FB73FB7BB3
:1011AC00054A5360FB7B002B01D0022300E0002397
:1011BC0018461037BD4680BD8C01002090B585B017
:1011CC0000AF0446084611461A462346FB710346F7
:1011DC00BB710B467B7113463B710023BB7204231E
:1011EC00FB720123FB6057E0FB79F9681846FFF7A7
:1011FC007BFF2D4ABB7953722B4A7B7993722A4B16
:10120C000022DA72284A3B791373284B1B787A79BF
:10121C00B9791846FFF7A6FF0346FB72FB7A002B41
:10122C0008D0FB68012B03D8012001F08DFB30E0C6
:10123C00FB7A35E01D4B187807F10A02B9790123C6
:10124C00FFF766FF0346FB72FB7A002B08D0FB68A6
:10125C00012B03D8012001F077FB1AE0FB7A1FE089
:10126C00BA7A114BDA72104B03225A70BA7A7B7924
:10127C005340DAB23B791340DBB2002B01D100238F
:10128C000EE00423FB72FB68012B02D8012001F055
:10129C005BFBFB680133FB60FB68022BA4D9FB7A78
:1012AC0018461437BD4690BD8C010020000000206C
:1012BC0080B483B000AF78607B681B781BB21B02D4
:1012CC001AB27B6801331B781BB213431BB218464E
:1012DC000C37BD4680BC704780B58AB000AF034662
:1012EC00FB7197F90730002B01DA012300E1824AE8
:1012FC00FB791370814B00221A70814B00221A70FB
:10130C00804B00221A70804B00210A461A800A4634
:10131C009A707E4B1A460023136053609360D3601F
:10132C0013617A4B00225A6001210120FFF7DCFE89
:10133C00714B1B7880226B211846FFF713FF034675
:10134C00002B01D00223D3E0642001F0FDFA02232C
:10135C0087F8233001237B6221E0796A0220FFF7B2
:10136C00C3FE664B00221A70634B18780123634A44
:10137C007521FFF7CDFE034687F8233097F823300D
:10138C00002B03D15D4B1B78702B0CD07B6A092B87
:10139C0002D8052001F0D8FA7B6A01337B627B6AA4
:1013AC000A2BDAD900E000BF97F82330002B02D0CB
:1013BC0097F823309CE0514B1B78702B01D0032302
:1013CC0096E0504B01221A707F2301226B210320DF
:1013DC00FFF7F4FE034687F8233097F82330002BF1
:1013EC0002D097F8233083E00A2001F0ADFA3F23B6
:1013FC0000226C210420FFF7E1FE034687F823301E
:10140C0097F82330002B02D097F8233070E0072395
:10141C0003221A210520FFF7D1FE034687F823305B
:10142C0097F82330002B02D097F8233060E0FF238D
:10143C00012219210620FFF7C1FE034687F823304D
:10144C0097F82330002B02D097F8233050E01B2361
:10145C0008221B210720FFF7B1FE034687F8233033
:10146C0097F82330002B02D097F8233040E0182354
:10147C0008221C210820FFF7A1FE034687F8233021
:10148C0097F82330002B02D097F8233030E00F234D
:10149C0003221D210920FFF791FE034687F8233014
:1014AC0097F82330002B02D097F8233020E001234B
:1014BC00002238210A20FFF781FE034687F82330EB
:1014CC0097F82330002B02D097F8233010E0F2234A
:1014DC00002237210B20FFF771FE034687F82330DB
:1014EC0097F82330002B02D097F8233000E000232C
:1014FC0018462837BD4680BD00000020840100201E
:10150C008501002086010020880100208C0100202C
:10151C0080B500AF0123012238210F20FFF74EFECA
:10152C000346184680BD000080B586B000AF7860D9
:10153C007B68002B01D1012356E001211020FFF71D
:10154C00D3FD2B4B187807F108020E233B21FFF734
:10155C00DFFD0346002B01D0022345E007F1080311
:10156C001846FFF7A5FE03461A467B681A8007F15A
:10157C00080302331846FFF79BFE03461A467B68A6
:10158C005A8007F1080304331846FFF791FE03460F
:10159C001A467B689A8007F1080306331846FFF752
:1015AC0087FE03461A467B68DA8007F10803083386
:1015BC001846FFF77DFE03461A467B681A8107F131
:1015CC0008030A331846FFF773FE03461A467B6876
:1015DC005A8107F108030C331846FFF769FE0346DE
:1015EC001A467B689A81002318461837BD4680BD81
:1015FC000000002080B483B000AF78600723184649
:10160C000C37BD4680BC704780B400AF024B1B78D2
:10161C001846BD4680BC70478401002080B400AFE2
:10162C00024B1B781846BD4680BC704785010020D4
:10163C0080B400AF054B1B78022B0CBF0123002399
:10164C00DBB21846BD4680BC704700BF8601002047
:10165C00B0B483B000AF78607B68064A1C46154670
:10166C000FCD0FC42B68236078680C37BD46B0BC17
:10167C00704700BF8C01002080B483B000AFEFF343
:10168C00108372B67B607B6818460C37BD4680BCF5
:10169C00704780B483B000AF78607B6803F00103BF
:1016AC00002B00D162B600BF0C37BD4680BC704722
:1016BC0080B483B000AF00237B6003E000BF7B6885
:1016CC0001337B607B687F2BF8D900BF00BF0C37E0
:1016DC00BD4680BC7047000080B483B000AF0346A9
:1016EC00FB71044AFB7982F8313000BF0C37BD46E0
:1016FC0080BC7047A001002080B483B000AF0346CB
:10170C000A46FB711346BB71164AFB7982F83030DE
:10171C00144ABB7982F83130124AFB7982F838309E
:10172C00104ABB7982F839300E4B5B6B0D4AD36390
:10173C000D4B1B680B4A53640C4B1B68094A936492
:10174C000B4B1B68074AD3640A4B1B68054A13658D
:10175C00094B1B68034A536500BF0C37BD4680BC60
:10176C00704700BFA00100200054004014540040FA
:10177C001854004010540040080C014080B483B051
:10178C0000AF0346FB71FB79033B062B3AD801A251
:10179C0052F823F0D5170008BD170008C917000828
:1017AC00E1170008ED170008F917000805180008E4
:1017BC00174B5B690133164A536124E0144B9B6948
:1017CC000133134A93611EE0114BDB690133104A5C
:1017DC00D36118E00E4B1B6A01330D4A136212E001
:1017EC000B4B5B6A01330A4A53620CE0084B9B6A51
:1017FC000133074A936206E0054BDB6A0133044A66
:10180C00D36200E000BF00BF0C37BD4680BC704700
:10181C00A001002080B483B000AF78607B6803F433
:10182C008073002B01D0062315E07B6803F4007352
:10183C00002B01D007230EE07B6803F48063002BA0
:10184C0001D0052307E07B6803F40063002B01D073
:10185C00082300E0002318460C37BD4680BC7047B7
:10186C0080B483B000AF074B1B687B607B6823F4AC
:10187C0070637B60034A7B68136000BF0C37BD4606
:10188C0080BC70471454004080B586B000AF7860BF
:10189C000B46FB70FB781846FFF71EFF00237B619D
:1018AC0021E0194B1B683B613869FFF7B3FF034616
:1018BC00FB73FB7B002B0BD0FA78FB7B1146184695
:1018CC00FFF71AFFFB7B1846FFF758FFFB7B17E06F
:1018DC003A697B6813407A689A4201D100230FE081
:1018EC007B6901337B617B69084A9342D9D9FB78C8
:1018FC0019460420FFF700FF0420FFF73FFF0423E5
:10190C0018461837BD4680BD145400403F0D0300E7
:10191C0080B582B000AF0220FFF7DEFE00237B60B3
:10192C002BE0244B1B681846FFF774FF0346BB7073
:10193C00BB78002B0AD0BB7802211846FFF7DCFEDF
:10194C00BB781846FFF71AFFBB782EE01A4B1B68C2
:10195C0003F00203002B0DD1184B1B6803F400732A
:10196C00002B07D1164B1B6803F0C003C02B01D111
:10197C0000231AE07B6801337B607B68114A934239
:10198C00CFD90F4B1B6803F0C003C02B01D103232D
:10199C0000E00923FB70FB7802211846FFF7ACFE30
:1019AC00FB781846FFF7EAFEFB7818460837BD4669
:1019BC0080BD00BF14540040185400400054004037
:1019CC00080C01403F0D030080B582B000AF0F2022
:1019DC00FFF782FE00237B6010E0114B1B6803F4C1
:1019EC000073002B07D10F4B1B6803F00203002B75
:1019FC0001D100230FE07B6801337B607B684CF2E4
:101A0C004F329342E9D90F210420FFF775FE0420D1
:101A1C00FFF7B4FE042318460837BD4680BD00BF4F
:101A2C00005400401854004080B582B000AF07202D
:101A3C00FFF752FE054B1B687B60054B1B687B60F8
:101A4C007B6800BF0837BD4680BD00BF1454004002
:101A5C001854004080B483B000AF0F4B1B680E4A83
:101A6C0043F0C00313600D4B1B687B607B6823F055
:101A7C007F437B607B6843F07F437B60074A7B68D6
:101A8C001360054B1B68044A43F0C003136000BF8E
:101A9C000C37BD4680BC70470C0C0140000C01405B
:101AAC0080B483B000AF0F4B1B680E4A43F0C003E9
:101ABC0013600D4B1B687B607B6823F07F437B605E
:101ACC007B6843F0CC437B60074A7B681360054B13
:101ADC001B68044A43F0C003136000BF0C37BD46BB
:101AEC0080BC70470C0C0140000C014080B485B0E8
:101AFC0000AF78600023FB600AE00B4B1A687B6830
:101B0C001340002B01D0012308E0FB680133FB607C
:101B1C00FB684CF24F329342EFD90023184614372E
:101B2C00BD4680BC704700BF080C014080B582B038
:101B3C0000AF1120FFF7D0FDFFF7B2FFFFF7B8FDA4
:101B4C004020FFF7D3FF034683F00103DBB2002BE9
:101B5C0008D011210920FFF7CFFD0920FFF70EFE59
:101B6C0009236AE000237B6024E0364B1B68354A6E
:101B7C0023F040031360FFF79BFD324B1B68314A87
:101B8C0043F0400313604020FFF7B0FF034683F09F
:101B9C000103DBB2002B08D011210920FFF7ACFDAB
:101BAC000920FFF7EBFD092347E0FFF781FD7B6878
:101BBC0001337B607B68082B05D8234B1B6803F033
:101BCC008003002BD1D01F4B1B681E4A23F08003CF
:101BDC001360FFF76DFD1B4B1B681A4A43F0400363
:101BEC0013604020FFF782FF034683F00103DBB252
:101BFC00002B08D011210920FFF77EFD0920FFF7EB
:101C0C00BDFD092319E0FFF753FD0E4B1B680D4A70
:101C1C0043F080031360FFF74BFD0B4B1B6803F085
:101C2C00C003C02B08D011210920FFF765FD092046
:101C3C00FFF7A4FD092300E0002318460837BD4632
:101C4C0080BD00BF0C0C0140080C014080B489B071
:101C5C0000AFF860B9607A603B60FB68002B0BD07A
:101C6C00BB68002B08D07B68002B05D03B68002B91
:101C7C0002D0BB6A002B01D101236EE0FB68394A0C
:101C8C00A2FB03239B0CBB61BB69012B11D9BB6964
:101C9C00242B0ED8FA68334BA3FB02139B0C32494E
:101CAC0001FB03F3D31A002B03D1BB682F4A9342D9
:101CBC0001D9022351E07B68BA691A60BB682C4ACF
:101CCC0093421DD8BB685B003B61FA683B691344C7
:101CDC005A1E3B69B2FBF3F3FB61FB69032B01D882
:101CEC000423FB61FB69B3F5805F01D3022334E06D
:101CFC003B68FA691A60BB695A1CBB6A1A602BE014
:101D0C00BB69032B01D8022327E0BA6813465B009A
:101D1C0013447B61FA687B6913445A1E7B69B2FBDE
:101D2C00F3F3FB61FB69002B03D0FB69B3F5805F18
:101D3C0001D3022311E0FB6943F400423B681A60B3
:101D4C00BB694FF4967202FB03F30A4AA2FB03230E
:101D5C009B095A1CBB6A1A60002318462437BD46DF
:101D6C0080BC704783DE1B4340420F00801A060084
:101D7C00A0860100D34D621080B58AB002AFF86026
:101D8C00B9601346FB7107F1140107F1180207F152
:101D9C00100300930B46B968F868FFF757FF03462A
:101DAC00FB77FB7F002B01D0FB7F3AE01F4B1B68BE
:101DBC001E4A43F0080313601D4B1B681C4A43F476
:101DCC00001313601A4B1B68FFF744FEFB79002BC2
:101DDC000BD0184B1B68174A43F400131360154BB8
:101DEC001B68144A23F400131360134B00221A606F
:101DFC00124ABB691360124B4FF480421A60114BAC
:101E0C0000221A60104A7B691360104A3B69136008
:101E1C00FFF726FD084B40F201421A60FFF778FDF0
:101E2C00034618462037BD4680BD00BF181002403F
:101E3C001C1002401010024000540040045400409A
:101E4C00085400400C5400401C54004020540040E6
:101E5C0080B582B000AF1020FFF73EFC0D4B1B6825
:101E6C007B607B6803F00103002B0BD00A4B1B68D3
:101E7C0003F40073002B05D1074B1B68064A43F48F
:101E8C0000731360FFF7A0FD034618460837BD46E4
:101E9C0080BD00BF185400400054004080B582B093
:101EAC0000AF354B1B7883F00103DBB2002B05D060
:101EBC00324B0A2283F840200A2359E02F4BDB686F
:101ECC0001332E4AD3602D4B002283F84020FFF7BC
:101EDC00BFFFFFF7C5FCFFF729FE0346FB71FB793B
:101EEC00002B0CD0254B1B690133244A1361234A68
:101EFC00FB7982F84030FFF7ADFDFB7938E0FFF756
:101F0C00A9FD1220FFF7E8FB1D4B4FF400421A60AD
:101F1C00FFF7CEFB1A4B00221A601320FFF7DCFBF5
:101F2C00184B1B68184A116800221846FFF724FF4B
:101F3C000346FB71FB79002B0ED0104B1B69013350
:101F4C000E4A13610D4B0A2283F8402013210A20FC
:101F5C00FFF7D2FB0A230BE0084B002283F840204A
:101F6C00064B002283F830200020FFF7B5FB00233E
:101F7C0018460837BD4680BD08020020A00100208D
:101F8C0000540040000200200402002080B584B000
:101F9C0000AF0346FB710B46BB7113467B717B791B
:101FAC00002B01D00C2300E003231846FFF794FB11
:101FBC00134B1B68124A43F48073136004210120F5
:101FCC00FFF762FC0346FB73FB7B002B01D0FB7B12
:101FDC0012E00520FFF780FBFB795B00BA79002A41
:101FEC0001D0012200E00022064913430B600621B8
:101FFC000220FFF749FC034618461037BD4680BD4A
:10200C00005400401054004080B584B000AF03462B
:10201C00FB710B46BB7113467B71FFF779FC0346D2
:10202C00FB73FB7B002B01D0FB7B47E0FB79002291
:10203C0000211846FFF7AAFF0346FB73FB7B002B1E
:10204C0001D0FB7B3AE0FFF7EFFC0A218020FFF781
:10205C001BFC0346FB73FB7B002B01D0FB7B2DE0B1
:10206C000820FFF739FB174ABB7913600A2180203F
:10207C00FFF70AFC0346FB73FB7B002B01D0FB7BB9
:10208C001CE00920FFF728FB0E4A7B7913600B211B
:10209C000420FFF7F9FB0346FB73FB7B002B01D0FD
:1020AC00FB7B0BE00F20FFF717FB074B1B68064A67
:1020BC0043F400731360FFF787FC03461846103790
:1020CC00BD4680BD105400400054004080B588B01F
:1020DC0000AFBA607B600346FB730B46BB73FFF724
:1020EC0017FC0346FB77FB7F002B01D0FB7F35E110
:1020FC00FB7B002200211846FFF748FF0346FB77C5
:10210C00FB7F002B01D0FB7F28E1FFF78DFC0A2120
:10211C008020FFF7B9FB0346FB77FB7F002B01D038
:10212C00FB7F1BE10820FFF7D7FA8E4ABB7B1360BD
:10213C000B210420FFF7A8FB0346FB77FB7F002B4A
:10214C0001D0FB7F0AE1884B1B68874A23F40063AC
:10215C001360854B1B68844A43F480631360FB7BDC
:10216C00012201211846FFF711FF0346FB77FB7F85
:10217C00002B01D0FB7FF1E07B68012B2AD1FFF70C
:10218C007BFA7861784B1B68774A23F48063136081
:10219C00FFF74AFC744B1B68734A43F400731360DB
:1021AC007869FFF776FA0E214020FFF76DFB0346A6
:1021BC00FB77FB7F002B40F0C1800D20FFF78CFAE2
:1021CC00684B1B68DAB2BB681A70FFF7FDFB03465D
:1021DC00FB77B3E07B68022B42D1634B1B68624AEE
:1021EC0043F400631360604B1B685F4A43F48063E5
:1021FC001360FFF741FA7861FFF716FC5A4B1B6826
:10220C00594A23F4806313607869FFF742FA0B2173
:10221C000420FFF739FB0346FB77FB7F002B40F0D4
:10222C008D80FFF729FA78614F4B1B684E4A43F4B7
:10223C00007313600D20FFF74FFA4A4B1B68DAB29C
:10224C00BB681A70474B1A68BB680133D2B21A705C
:10225C007869FFF71EFAFFF7B7FB0346FB776DE0D3
:10226C00FFF7E2FB7B68BB6115E00E214020FFF716
:10227C000BFB0346FB77FB7F002B0CD10D20FFF7EC
:10228C002BFA384B1968BB685A1CBA60CAB21A7060
:10229C00BB69013BBB61BB69032B02D9FB7F002BE4
:1022AC00E3D0FB7F002B05D10B210420FFF7ECFAC8
:1022BC000346FB77FB7F002B2ED1FFF7DDF978610E
:1022CC00294B1B68284A23F4806313600D20FFF709
:1022DC0003FA244B1968BB685A1CBA60CAB21A704C
:1022EC00BB69013BBB61204B1B681F4A43F4007365
:1022FC0013601C4B1968BB685A1CBA60CAB21A70BE
:10230C00BB69013BBB617869FFF7C3F90E21402023
:10231C00FFF7BAFA0346FB77FB7F002B0ED10D209B
:10232C00FFF7DAF90F4B1B68DAB2BB681A70BB699E
:10233C00013BBB61FFF748FB0346FB77FB7F002BA0
:10234C000BD1094B1B68084A23F400631360064B3E
:10235C001B68054A43F480631360FB7F18462037E3
:10236C00BD4680BD105400400054004080B584B080
:10237C0000AF0346FB71FFF791FD0346FB73094A5F
:10238C00FB7B82F84030FB7B002B05D013210A200D
:10239C00FFF7B2F90A2300E0002318461037BD46B8
:1023AC0080BD00BFA001002080B5A0B002AF786056
:1023BC003960304B184660231A460021FEF788FD21
:1023CC002D4B00221A700120FFF786F907F16C01E2
:1023DC0007F1700207F1680300930B4639687868BF
:1023EC00FFF734FC034687F8773097F87730002BEB
:1023FC0008D097F8773001211846FFF77DF997F848
:10240C00773033E01D4A7B6813601D4A3B681360CC
:10241C00194B01221A70174A3B68936501223968DF
:10242C007868FFF7A9FC034687F8773097F8773080
:10243C00002B08D10F4B002283F830200020FFF72F
:10244C004BF9002312E0FFF729FD034687F877309C
:10245C0097F87730002B08D097F87730132118466F
:10246C00FFF74AF997F8773000E0002318467837E1
:10247C00BD4680BDA0010020080200200002002003
:10248C000402002080B584B000AF0346FB710B46FC
:10249C00BB7113467B710A23FB7297F90730002B33
:1024AC0006DB334B1B7883F00103DBB2002B01D02E
:1024BC00012358E02F4B1B6801332E4A13602D4A21
:1024CC00FB7982F85C302B4ABB7982F85D30294B62
:1024DC000122A3F85E200123FB602FE0254AFB6854
:1024EC0053637A79B979FB791846FFF78DFD03466A
:1024FC00FB72FB7A002B0DD11E4B5B6801331D4A1E
:10250C0053601C4B002283F830200020FFF7E4F8C6
:10251C00002328E0FB68032B14D0164B9B68013377
:10252C00144A9360FB7A1846FFF720FF0346002BF2
:10253C0001D00A2317E0FB680133FB60FB68032B17
:10254C00CCD900E000BFFFF7A9FC0346002B05D057
:10255C00084B0A2283F830200A2304E0054AFB7A50
:10256C0082F83030FB7A18461037BD4680BD00BF6C
:10257C0008020020A001002080B586B000AFBA6030
:10258C007B600346FB730B46BB730A23FB7497F902
:10259C000F30002B10DBBB68002B0DD07B68002BA1
:1025AC000AD07B68B3F5803F06D2334B1B7883F09F
:1025BC000103DBB2002B01D0012359E02F4B1B6828
:1025CC0001332E4A13602D4AFB7B82F85C302B4A78
:1025DC00BB7B82F85D307B689AB2284BA3F85E20F7
:1025EC0001237B612FE0254A7B695363B97BF87B20
:1025FC007B68BA68FFF76AFD0346FB74FB7C002B13
:10260C000DD11E4B5B6801331C4A53601B4B0022DF
:10261C0083F830200020FFF75FF8002328E07B6967
:10262C00032B14D0154B9B680133144A9360FB7C2D
:10263C001846FFF79BFE0346002B01D00A2317E038
:10264C007B6901337B617B69032BCCD900E000BF34
:10265C00FFF724FC0346002B05D0084B0A2283F815
:10266C0030200A2304E0054AFB7C82F83030FB7CE6
:10267C0018461837BD4680BD08020020A001002076
:10268C0080B584B000AF78607B68002B00F08F8041
:10269C00FEF7F2FFF860484B1A687B681A60464BED
:1026AC005A687B685A60444B9A687B689A60424BC4
:1026BC00DA687B68DA60404B1A697B681A613E4BBA
:1026CC005A697B685A613C4B9A697B689A613A4BB0
:1026DC00DA697B68DA61384B1A6A7B681A62364BA6
:1026EC005A6A7B685A62344B9A6A7B689A62324B9C
:1026FC00DA6A7B68DA62304B93F83030DAB27B6896
:10270C0083F830202C4B93F83130DAB27B6883F8A5
:10271C003120294B5A6B7B685A63274B93F838301E
:10272C00DAB27B6883F83820234B93F83930DAB26D
:10273C007B6883F83920204BDA6B7B68DA631E4B9D
:10274C0093F84030DAB27B6883F840201A4B5A6C0D
:10275C007B685A64184B9A6C7B689A64164BDA6CDB
:10276C007B68DA64144B1A6D7B681A65124B5A6DD0
:10277C007B685A65104B9A6D7B689A650E4B93F883
:10278C005C30DAB27B6883F85C200B4B93F85D30DD
:10279C00DAB27B6883F85D20074BB3F85E309AB2EF
:1027AC007B68A3F85E20F868FEF773FF00E000BFBB
:1027BC001037BD4680BD00BFA001002080B483B09F
:1027CC0000AFEFF3108372B67B607B6818460C3752
:1027DC00BD4680BC704780B483B000AF78607B6826
:1027EC0003F00103002B00D162B600BF0C37BD46CD
:1027FC0080BC704780B485B000AF78607B68002BDC
:10280C000AD07A682D4BA3FB02139B0C2C4901FBBD
:10281C0003F3D31A002B01D001234AE07B68274A2B
:10282C00A2FB03239B0CFB60FB68002B03D0FB6813
:10283C00B3F5803F01D902233BE0224B1B68214AB0
:10284C0043F0010313601F4B1B684FF080430022C1
:10285C001A601D4B00221A601C4B00221A601C4A85
:10286C00FB68013B13601B4B4FF6FF721A601A4B4F
:10287C0000221A60194B00221A604FF08043042288
:10288C001A60174B01221A60104B1B680F4A23F079
:10289C0001031360134B60221A70134B4FF08052DC
:1028AC001A60094B01221A604FF0804305221A600E
:1028BC00002318461437BD4680BC704783DE1B438B
:1028CC0040420F001C1002400C0000401000004061
:1028DC00280000402C000040240000400C02002086
:1028EC00140000401CE400E000E100E080B584B07E
:1028FC0000AFFFF763FF7860104B1B68FB60104B59
:10290C001B689BB2BB600F4B1B683B603B6803F0C2
:10291C000103002B07D0FB6803F58033FB60084BE9
:10292C001B689BB2BB607868FFF755FFFA68BB6801
:10293C00134418461037BD4680BD00BF0C02002062
:10294C00240000401000004080B584B000AF7860D7
:10295C000FE0FFF7CBFFF86000E000BFFFF7C6FF0A
:10296C000246FB68D31AB3F57A7FF6D37B68013B3A
:10297C007B607B68002BECD100BF00BF1037BD46DD
:10298C0080BD000080B400AF0A4B1B6803F001034C
:10299C00002B0BD0074B1B68064A23F00103136076
:1029AC00054B1B6803F58033034A136000BFBD461B
:1029BC0080BC7047100000400C02002080B487B02F
:1029CC0000AFF860B9607A6000237B610BE0FB68B4
:1029DC001A68BB6813407A689A4201D1012310E04F
:1029EC007B6901337B617B69084A9342EFD9FB68B1
:1029FC001A68BB6813407A689A420CBF0123002303
:102A0C00DBB218461C37BD4680BC70473F420F00F6
:102A1C0080B400AF094B0A4A1A600A4B084A1A6084
:102A2C00094B074A1A60094B054A1A60084B094AB8
:102A3C001A6000BFBD4680BC704700BF0400002078
:102A4C0000127A00080000200C000020100000206A
:102A5C001400002000093D0080B584B000AF03468F
:102A6C00FB712C4B1B682B4A43F0010313600222B1
:102A7C0002212848FFF7A2FF034683F00103DBB2D3
:102A8C00002B01D0042341E0224B5B68214A23F048
:102A9C000303536000220C211F48FFF78FFF0346EE
:102AAC0083F00103DBB2002B01D004232EE0194B81
:102ABC001B68184A23F08073136000224FF00071DA
:102ACC001448FFF77BFF034683F00103DBB2002BB6
:102ADC0001D004231AE00F4B1B680E4A23F48033F9
:102AEC0013600C4B5B68FB60FB6823F47F4323F0A3
:102AFC00F003FB60074AFB685360084B1B68074AEE
:102B0C0023F007031360FFF783FFFB791846103798
:102B1C00BD4680BD0010024004100240002002405F
:102B2C0080B582B000AFFFF773FF374B1B68364A96
:102B3C0043F4803313604FF400324FF400313248C9
:102B4C00FFF73CFF034683F00103DBB2002B04D0FC
:102B5C000120FFF781FF034652E02C4B12221A6032
:102B6C00294B5B687B607A68294B13407B607B68E0
:102B7C0043F4EC1343F480637B60234A7B6853601B
:102B8C00214B1B68204A43F0807313604FF0007296
:102B9C004FF000711C48FFF711FF034683F001034F
:102BAC00DBB2002B04D00220FFF756FF034627E0D0
:102BBC00154B5B6823F00303134A43F00203536085
:102BCC0008220C211348FFF7F9FE034683F001039A
:102BDC00DBB2002B04D00320FFF73EFF03460FE0CF
:102BEC000D4B0E4A1A600E4B0C4A1A600D4B0E4AD6
:102BFC001A600E4B094A1A600D4B0E4A1A600023DC
:102C0C0018460837BD4680BD001002400020024027
:102C1C000C00C0FF041002400400002000A24A0473
:102C2C00080000200C00002000512502100000209C
:102C3C0014000020001BB70080B400AF024B1B68CF
:102C4C001846BD4680BC70470800002080B400AF19
:102C5C00024B1B681846BD4680BC70470C00002018
:102C6C0080B400AF024B1B681846BD4680BC704751
:102C7C001000002080B487B000AF7860244B002295
:102C8C001A607B68002B01D101233CE07A68214B50
:102C9C00A3FB02139B094FF47A7101FB03F3D31AC4
:102CAC00002B01D001232EE07B681A4AA2FB0323E0
:102CBC009B097B617B69002B03D07B69B3F1807F1F
:102CCC0001D902231FE07B69013B3B61124B0022BF
:102CDC001A60124A3B6923F07F431360104B0022A9
:102CEC001A60104B1B68FB60FB6823F07F43FB6092
:102CFC00FB6843F07043FB600A4AFB681360044BAB
:102D0C0007221A60002318461C37BD4680BC70474A
:102D1C0010E000E0D34D62101002002014E000E03F
:102D2C0018E000E020ED00E080B400AF024B1B681F
:102D3C001846BD4680BC70471002002080B400AF1E
:102D4C00044B1B680133034A136000BFBD4680BCB3
:102D5C00704700BF1002002080B483B000AF002386
:102D6C007B600AE00E4B1B6803F08003002B01D044
:102D7C0001230FE07B6801337B607B68094A934237
:102D8C00F0D9074B1B6803F08003002B14BF012301
:102D9C000023DBB218460C37BD4680BC704700BF21
:102DAC00003801409F86010080B584B000AF786088
:102DBC003960384B00221A707B68002B02D03B68BC
:102DCC00002B01D1012361E03B685A087B681A444F
:102DDC003B68B2FBF3F3FB60FB680F2B03D9FB687A
:102DEC00B3F5803F01D3022350E02B4B1B682A4ADA
:102DFC0043F4804343F004031360274B1B68274BB9
:102E0C001B68BB60BB6823F0F003BB60BB6843F07E
:102E1C00A003BB60214ABB681360214B00221A60DF
:102E2C00204B00221A60204B00221A601C4B4FF4DE
:102E3C0000521A601D4AFB681360194B42F20802DB
:102E4C001A60164B1B6803F0F003A02B15D1174B1F
:102E5C001B68FA689A4210D1114B1A6842F20803A7
:102E6C00134042F20802934207D1FFF775FF034665
:102E7C0083F00103DBB2002B04D0094B00221A6053
:102E8C00032303E0034B01221A700023184610376A
:102E9C00BD4680BD140200201810024004080140F9
:102EAC000C380140103801401438014008380140FA
:102EBC0080B582B000AF0346FB710C4B1B7883F0DE
:102ECC000103DBB2002B07D1FFF746FF034683F06B
:102EDC000103DBB2002B01D0002303E0044AFB7991
:102EEC001360012318460837BD4680BD140200202C
:102EFC000438014080B582B000AF78607B68002B4D
:102F0C0011D1002314E07B681B781846FFF7D0FF23
:102F1C00034683F00103DBB2002B01D0002307E052
:102F2C007B6801337B607B681B78002BEBD1012322
:102F3C0018460837BD4680BD80B582B000AF7860BA
:102F4C007868FFF7D7FF034683F00103DBB2002B51
:102F5C0001D0002303E00448FFF7CCFF03461846DA
:102F6C000837BD4680BD00BF0434000880B586B06C
:102F7C0000AF78607B68002B04D13020FFF798FFFE
:102F8C00034639E000237B611BE079681C4BA3FBF3
:102F9C000123DA0813469B0013445B00CA1AD3B210
:102FAC003033D9B207F108027B6913440A461A7010
:102FBC007B6901337B617B68114AA2FB0323DB082D
:102FCC007B607B68002BE0D112E07B69013B7B616D
:102FDC0007F108027B6913441B781846FFF768FF5A
:102FEC00034683F00103DBB2002B01D0002303E086
:102FFC007B69002BE9D1012318461837BD4680BDEB
:10300C00CDCCCCCC80B584B000AF78601648FFF73F
:10301C0071FF034683F00103DBB2002B01D00023C8
:10302C001DE01C23FB607A68FB6822FA03F303F0B3
:10303C000F030E4AD35C1846FFF73AFF034683F0A2
:10304C000103DBB2002B01D0002308E0FB68002B4E
:10305C0003D0FB68043BFB60E5E700BF0123184687
:10306C001037BD4680BD00BF083400080C34000882
:10307C005B5241575D207365713D000020745F7594
:10308C00733D000020413D0020473D00204D3D0098
:10309C0020666C6167733D000D0A00005B4932438A
:1030AC005D2074783D000000206F6B3D0000000037
:1030BC002072657472793D00207265636F7665725B
:1030CC003D000000207265635F6661696C3D000025
:1030DC00206C6173745F6572723D000020737461C3
:1030EC0067653D00206572725F617474656D707404
:1030FC003D000000205352313D000000205352325D
:10310C003D000000204750494F425F4944523D006A
:10311C005B524157205354414C455D207365713DC2
:10312C0000000000206163715F7374617475733DFE
:10313C0000000000206472697665725F73746174BC
:10314C0075733D005B424F4F545D20466C69676858
:10315C007420636F6E74726F6C6C65722073746123
:10316C007274696E670000005B4143515D204D50E5
:10317C00553635303020616363656C2F6779726F1B
:10318C00206163717569736974696F6E000000006A
:10319C005B4552524F525D2041637175697369747E
:1031AC00696F6E20696E6974207374617475733DF8
:1031BC00000000000D0A5B494D552044454255471F
:1031CC005D2073746167653D0000000020706861CC
:1031DC0073653D00206932635F7374617475733D70
:1031EC000000000020617474656D70743D00000077
:1031FC000D0A5B494D552044454255475D20646599
:10320C00766963653D000000207265673D00000033
:10321C000D0A5B494D552044454255475D20777258
:10322C00697474656E3D000020726561646261634F
:10323C006B3D0000206D61736B3D00000D0A5B4916
:10324C0032432044454255475D2073746167653DA8
:10325C0000000000207374617475733D0000000061
:10326C000D0A5B4932432044454255475D20435289
:10327C00313D00002044523D000000000D0A5B4926
:10328C0032432044454255475D206C6173745F6541
:10329C0072726F725F7374617475733D000000001D
:1032AC00206C6173745F6572726F725F73746167A7
:1032BC00653D0000206C6173745F7265636F7665A9
:1032CC0072793D000D0A5B49324320444542554713
:1032DC005D204750494F425F4944523D0000000079
:1032EC00206275735F687A3D00000000206465768B
:1032FC003D000000206C656E3D0000000D0A5B492E
:10330C0032432044454255475D20726574726965AD
:10331C00733D0000207265636F7665726965733D5D
:10332C00000000002074696D656F7574733D0000BA
:10333C00206E61636B733D0020627573793D0000F4
:10334C0020626572723D00002061726C6F3D00005E
:10335C00206F76723D000000206C696E655F6C6FAB
:10336C00773D00005B48414C545D20436865636BBE
:10337C0020706F7765722C20776972696E672C20CC
:10338C006164647265737320616E642070756C6C1B
:10339C002D757073000000005B49445D204D505545
:1033AC00363530303D00000020414B383936333D46
:1033BC00000000005B52454144595D20537461721A
:1033CC0074696E672050413020444154415F52442F
:1033DC00590000005B48414C545D20436F756C6490
:1033EC00206E6F7420737461727420494D552044A3
:1033FC004154415F524459000D0A000030780000DE
:10340C00303132333435363738394142434445460E
:04341C0000000000AC
:103420006800000000127A0000127A0000127A0090
:0834300000127A0000093D00C2
:04000005080010914E
:00000001FF
