:020000040800F2
:10000000005000209D080008790D0008B10D00087F
:10001000230700082B070008330700080000000032
:100020000000000000000000000000003B07000886
:1000300043070008000000004B070008A50F000858
:10004000530700085B070008630700086B070008F8
:10005000730700087B070008830700088B07000868
:10006000930700089B070008A3070008AB070008D8
:10007000B3070008BB070008C3070008CB07000848
:10008000D3070008111D0008DB070008E30700087C
:10009000EB070008F3070008FB0700080308000847
:1000A0000B080008130800081B08000823080008B4
:1000B0002B080008330800083B0800084308000824
:1000C0004B080008530800085B0800086308000894
:1000D0006B08000873080008991D00087B080008D9
:0C00E000830800088B0800089308000843
:1000EC0080B483B000AF0346FB71FB7983F001034E
:1000FC00DBB2002B02D0044B00221A6000BF0C377D
:10010C00BD4680BC704700BF3400002080B584B071
:10011C0000AFF860B9607A60F86801F019F803462E
:10012C001846FFF7DDFFB86801F04EF80346184695
:10013C00FFF7D6FF786801F00BF803461846FFF777
:10014C00CFFF054801F004F803461846FFF7C8FF37
:10015C0000BF1037BD4680BDAC1E000880B582B014
:10016C0000AF00F0F9F900F0D3FD00F017FA0346E8
:10017C0083F00103DBB2002B01D000BFFDE700F0E0
:10018C0055FE00F069FC03461A46AF4B1A7000F09E
:10019C00EFFC0346AD4A136000F0F4FC0346AC4A96
:1001AC00136000F0F9FC0346AA4A136000F0FEFC51
:1001BC000346A94A136000F003FD0346A74A1360E7
:1001CC00A14B1B78DBB2002B03D000F0C5F900BFAC
:1001DC00FDE7A14B1B684FF4E131184600F012FF0C
:1001EC0003461A469E4B1A709D4B1B78DBB2002BB4
:1001FC0001D1012300E000239A4A1360984B1B782D
:10020C00DBB2002B29D1984800F0C4FF03461846F6
:10021C00FFF766FF954800F0BDFF03461846FFF751
:10022C005FFF8A4B1B68924A19469248FFF76EFF94
:10023C00874B1B688E4A19468F48FFF767FF854B23
:10024C001B688B4A19468D48FFF760FF824B1B6871
:10025C00874A19468A48FFF759FF00F056FA00F012
:10026C009DF90346002B01D0012300E00023854AB1
:10027C001360844B1B68002B0FD100F06DF9784B89
:10028C001B78DBB2002B06D17F4800F083FF0346BE
:10029C001846FFF725FF00BFFDE7714B1B78DBB25B
:1002AC00002B06D1794800F075FF03461846FFF77E
:1002BC0017FF00F067FC0346184600F009FE0346E2
:1002CC001A46734B1A70724B1B78DBB2002B11D091
:1002DC0000F042F900F0DEFD614B1B78DBB2002B25
:1002EC0006D16C4800F056FF03461846FFF7F8FE9F
:1002FC0000BFFDE75A4B1B78DBB2002B06D16648DA
:10030C0000F048FF03461846FFF7EAFE00F09CF9A0
:10031C00034683F00103DBB2002B11D000F01CF973
:10032C0000F0B8FD4E4B1B78DBB2002B06D15B48BE
:10033C0000F030FF03461846FFF7D2FE00BFFDE782
:10034C00474B1B78DBB2002B06D1554800F022FF3F
:10035C0003461846FFF7C4FE01F0ACF83D4B186895
:10036C00012300224FF4613101F08AFB03461A4647
:10037C004C4B1A704B4B1B78DBB2002B11D000F09E
:10038C00EBF800F087FD364B1B78DBB2002B06D167
:10039C00454800F0FFFE03461846FFF7A1FE00BFDC
:1003AC00FDE72F4B1B78DBB2002B0CD13F4A4FF4EF
:1003BC0061313F48FFF7AAFE3E4800F0EBFE0346D2
:1003CC001846FFF78DFE3C4B01221A6000F056FDDB
:1003DC0000F0D8FD7860224B1B78DBB2002B06D1E5
:1003EC00364800F0D7FE03461846FFF779FE00F0BA
:1003FC0057F9034683F00103DBB2002B11D000F058
:10040C00ABF800F047FD164B1B78DBB2002B06D186
:10041C002B4800F0BFFE03461846FFF761FE00BFF5
:10042C00FDE700F0AFFD3860386801F027F93A6855
:10043C007B68D31AB3F5FA7F03D33B687B6000F07B
:10044C0035FD00BFD3E700BF1400002018000020CA
:10045C001C00002020000020240000202800002088
:10046C003100002034000020B01E0008CC1E000813
:10047C00E81E0008EC1E0008001F0008141F0008EE
:10048C00281F0008400000203C1F0008601F0008C7
:10049C0030000020801F0008A81F0008C41F00089F
:1004AC00E81F00083800002004200008382000084D
:1004BC0040200008642000082C0000209820000830
:1004CC00B420000880B400AF054B1B68044A43F00D
:1004DC000C031360024B1B6800BFBD4680BC704709
:1004EC001810024080B400AF054B4FF440021A6064
:1004FC00044B4FF440321A6000BFBD4680BC7047BD
:10050C0010080140100C014080B483B000AF104BB8
:10051C001B687B600F4B1B683B607B6823F07F4341
:10052C007B607B6843F008537B60094A7B681360EF
:10053C003B6823F0FF033B603B6843F022033B60C6
:10054C00044A3B68136000BF0C37BD4680BC704743
:10055C0000080140000C014080B500AF0D4B01229A
:10056C001A600D4B00221A60FFF7ACFFFFF7BAFFC1
:10057C00FFF7CAFFFFF7B6FFBFF34F8F00F00EF87F
:10058C000346002B01D0012300E00023024A136034
:10059C0000BF80BD3C0000204000002080B485B02E
:1005AC0000AF154B1B6803F07F43FB60134B1B68BC
:1005BC00DBB2BB60124B1B6803F0C0037B60114BBA
:1005CC001B6803F003033B60FB68B3F1085F0AD1BF
:1005DC00BB68222B07D17B68002B04D13B68002B16
:1005EC0001D1012300E0002303F00103DBB2184624
:1005FC001437BD4680BC704700080140000C014018
:10060C000C0801400C0C014080B500AFFFF7A4FFB3
:10061C000B4B1B6801330A4A1360FFF7BFFF0346FD
:10062C0083F00103DBB2002B06D0064B1B680133B1
:10063C00044A1360002300E00123184680BD00BF6C
:10064C004C0000205000002080B582B000AF0F4B52
:10065C0000221A600E4B00221A600E4B00221A6008
:10066C000D4B00221A600D4B00221A70FFF7CCFFC5
:10067C000346FB71FB79002B02D0044B01221A605C
:10068C00FB7918460837BD4680BD00BF48000020E6
:10069C004C0000205000002054000020440000209A
:1006AC0080B500AF084B1B78DBB2002B07D0074B93
:1006BC001B680133054A1360034B00221A70FFF7C5
:1006CC00A3FF0346184680BD4400002054000020C0
:1006DC0080B487B000AFF860B9607A60FB687B616A
:1006EC00BB68FB7408E07B69FA7C1A707B69013388
:1006FC007B617B68013B7B607B68002BF3D1FB68E3
:10070C0018461C37BD4680BC704780B400AF00BF94
:10071C00BD4680BC704780B500AF00F019FB80B5BA
:10072C0000AF00F015FB80B500AF00F011FB80B5F9
:10073C0000AF00F00DFB80B500AF00F009FB80B5F9
:10074C0000AF00F005FB80B500AF00F001FB80B5F9
:10075C0000AF00F0FDFA80B500AF00F0F9FA80B5FB
:10076C0000AF00F0F5FA80B500AF00F0F1FA80B5FB
:10077C0000AF00F0EDFA80B500AF00F0E9FA80B5FB
:10078C0000AF00F0E5FA80B500AF00F0E1FA80B5FB
:10079C0000AF00F0DDFA80B500AF00F0D9FA80B5FB
:1007AC0000AF00F0D5FA80B500AF00F0D1FA80B5FB
:1007BC0000AF00F0CDFA80B500AF00F0C9FA80B5FB
:1007CC0000AF00F0C5FA80B500AF00F0C1FA80B5FB
:1007DC0000AF00F0BDFA80B500AF00F0B9FA80B5FB
:1007EC0000AF00F0B5FA80B500AF00F0B1FA80B5FB
:1007FC0000AF00F0ADFA80B500AF00F0A9FA80B5FB
:10080C0000AF00F0A5FA80B500AF00F0A1FA80B5FA
:10081C0000AF00F09DFA80B500AF00F099FA80B5FA
:10082C0000AF00F095FA80B500AF00F091FA80B5FA
:10083C0000AF00F08DFA80B500AF00F089FA80B5FA
:10084C0000AF00F085FA80B500AF00F081FA80B5FA
:10085C0000AF00F07DFA80B500AF00F079FA80B5FA
:10086C0000AF00F075FA80B500AF00F071FA80B5FA
:10087C0000AF00F06DFA80B500AF00F069FA80B5FA
:10088C0000AF00F065FA80B500AF00F061FA00002F
:10089C0080B582B000AF124B7B60124B3B6009E01D
:1008AC007B681A683B681A607B6804337B603B6822
:1008BC0004333B603B680C4A9342F1D30B4B3B60D7
:1008CC0005E03B6800221A603B6804333B603B68E0
:1008DC00074A9342F5D3FFF741FC00F039FA00BF09
:1008EC00E820000800000020140000201400002064
:1008FC001002002080B487B000AFF860B9607A6055
:10090C0000237B610BE0FB681A68BB6813407A68B4
:10091C009A4201D1012310E07B6901337B617B6931
:10092C00084A9342EFD9FB681A68BB6813407A688F
:10093C009A420CBF01230023DBB218461C37BD467C
:10094C0080BC70473F420F0080B400AF094B0A4A8D
:10095C001A600A4B084A1A60094B074A1A60094B7D
:10096C00054A1A60084B094A1A6000BFBD4680BC94
:10097C00704700BF0000002000127A000400002025
:10098C00080000200C0000201000002000093D0091
:10099C0080B584B000AF0346FB712C4B1B682B4A0F
:1009AC0043F001031360022202212848FFF7A2FF43
:1009BC00034683F00103DBB2002B01D0042341E09A
:1009CC00224B5B68214A23F00303536000220C2165
:1009DC001F48FFF78FFF034683F00103DBB2002BA8
:1009EC0001D004232EE0194B1B68184A23F08073A6
:1009FC00136000224FF000711448FFF77BFF034691
:100A0C0083F00103DBB2002B01D004231AE00F4B5F
:100A1C001B680E4A23F4803313600C4B5B68FB603D
:100A2C00FB6823F47F4323F0F003FB60074AFB6869
:100A3C005360084B1B68074A23F007031360FFF74A
:100A4C0083FFFB7918461037BD4680BD001002406D
:100A5C00041002400020024080B582B000AFFFF7C6
:100A6C0073FF374B1B68364A43F4803313604FF4E3
:100A7C0000324FF400313248FFF73CFF034683F05D
:100A8C000103DBB2002B04D00120FFF781FF0346EA
:100A9C0052E02C4B12221A60294B5B687B607A68FF
:100AAC00294B13407B607B6843F4EC1343F4806365
:100ABC007B60234A7B685360214B1B68204A43F0C0
:100ACC00807313604FF000724FF000711C48FFF7F9
:100ADC0011FF034683F00103DBB2002B04D002208C
:100AEC00FFF756FF034627E0154B5B6823F0030323
:100AFC00134A43F00203536008220C211348FFF7FA
:100B0C00F9FE034683F00103DBB2002B04D0032073
:100B1C00FFF73EFF03460FE00D4B0E4A1A600E4BDB
:100B2C000C4A1A600D4B0E4A1A600E4B094A1A6099
:100B3C000D4B0E4A1A60002318460837BD4680BD7F
:100B4C0000100240002002400C00C0FF04100240C4
:100B5C000000002000A24A0404000020080000202D
:100B6C00005125020C00002010000020001BB700D3
:100B7C0080B400AF024B1B681846BD4680BC704762
:100B8C000000002080B400AF024B1B681846BD4625
:100B9C0080BC70470400002080B400AF024B1B687F
:100BAC001846BD4680BC70470800002080B400AFDA
:100BBC00024B1B681846BD4680BC70470C000020D9
:100BCC0080B400AF024B1B681846BD4680BC704712
:100BDC001000002080B400AF72B600BFBD4680BCD0
:100BEC00704780B483B000AFEFF305837B607B6804
:100BFC00C3F3080318460C37BD4680BC7047000091
:100C0C0080B400AF0D4B0022DA620C4B00221A6349
:100C1C000A4B00225A63094B00229A63074B0022AD
:100C2C00DA63064B00221A64044B00225A64034B0D
:100C3C0000229A6400BFBD4680BC7047580000205B
:100C4C0080B400AF0F4B1B680F4A13610F4B1B682E
:100C5C000D4A53610E4B1B680B4A93610D4B1B687D
:100C6C00094AD3610C4B1B68074A13620B4B1B6878
:100C7C00054A53620A4B1B68034A936200BFBD4688
:100C8C0080BC70472CED00E05800002028ED00E0FF
:100C9C0024ED00E030ED00E034ED00E038ED00E054
:100CAC003CED00E080B582B000AF0346FB710B4B0E
:100CBC0000221A60FB79094A5360FFF792FF034642
:100CCC00064A9360054B0022DA60FFF7B9FFFFF785
:100CDC0097FF00BF0837BD4680BD00BF58000020FD
:100CEC0080B400AFBFF35F8F054B064A1A60BFF3A9
:100CFC004F8FBFF36F8F00BFBD4680BC704700BFE6
:100D0C00580000204C55414680B400AF00BFFDE7B1
:100D1C0080B485B000AF0D4BBB6013237B60002308
:100D2C00FB6008E0FB689B00BA68134400221A6061
:100D3C00FB680133FB60FA687B689A42F2D3BFF31D
:100D4C005F8F00BF1437BD4680BC70475800002031
:100D5C0080B500AFFFF73EFFFFF7FEFB0120FFF76A
:100D6C00A1FFFFF7BDFFFFF7CFFF000080B500AF7D
:100D7C00FFF730FFFFF7F0FB094B1B6803F0800314
:100D8C00002B05D0064B1B68054A43F40003136087
:100D9C000220FFF787FFFFF7A3FFFFF7B5FF00BFA8
:100DAC00081002401EF0040F0CBFEFF30880EFF3A5
:100DBC000980714600F002B800BF000080B582B017
:100DCC0000AF78603960FFF705FFFFF7C5FB032024
:100DDC00FFF768FF144A3B68D3607B68002B1FD079
:100DEC007B681B68104AD3627B685B680E4A13638E
:100DFC007B689B680C4A53637B68DB680A4A936385
:100E0C007B681B69084AD3637B685B69064A136479
:100E1C007B689B69044A53647B68DB69024A936470
:100E2C00FFF75EFFFFF770FF5800002080B483B01F
:100E3C0000AF0F4B1B680E4A43F0100313600C4BB2
:100E4C001B680C4B4FF400521A600B4B1B687B60F9
:100E5C007B6823F470037B607B6843F400137B6036
:100E6C00054A7B68136000BF0C37BD4680BC7047D9
:100E7C0018100240101001400410014080B400AF63
:100E8C00034B4FF000521A6000BFBD4680BC704748
:100E9C001010014080B400AF034B4FF400521A60A5
:100EAC0000BFBD4680BC70471010014080B500AF3C
:100EBC00064B1B6803F40053002B02D1FFF7EAFF2B
:100ECC0001E0FFF7DBFF00BF80BD00BF0C1001404D
:100EDC0080B487B000AF7860244B00221A607B6826
:100EEC00002B01D101233CE07A68214BA3FB0213B8
:100EFC009B094FF47A7101FB03F3D31A002B01D039
:100F0C0001232EE07B681A4AA2FB03239B097B6119
:100F1C007B69002B03D07B69B3F1807F01D902235D
:100F2C001FE07B69013B3B61124B00221A60124AA5
:100F3C003B6923F07F431360104B00221A60104B67
:100F4C001B68FB60FB6823F07F43FB60FB6843F08E
:100F5C007043FB600A4AFB681360044B07221A605B
:100F6C00002318461C37BD4680BC704710E000E0DB
:100F7C00D34D6210A400002014E000E018E000E063
:100F8C0020ED00E080B400AF024B1B681846BD4654
:100F9C0080BC7047A400002080B400AF044B1B68D9
:100FAC000133034A136000BFBD4680BC704700BFCD
:100FBC00A400002080B483B000AF00237B600AE063
:100FCC000E4B1B6803F08003002B01D001230FE0B4
:100FDC007B6801337B607B68094A9342F0D9074BED
:100FEC001B6803F08003002B14BF01230023DBB22A
:100FFC0018460C37BD4680BC704700BF0038014016
:10100C009F86010080B584B000AF78603960384BA2
:10101C0000221A707B68002B02D03B68002B01D198
:10102C00012361E03B685A087B681A443B68B2FBB9
:10103C00F3F3FB60FB680F2B03D9FB68B3F5803F20
:10104C0001D3022350E02B4B1B682A4A43F4804304
:10105C0043F004031360274B1B68274B1B68BB60D2
:10106C00BB6823F0F003BB60BB6843F0A003BB601C
:10107C00214ABB681360214B00221A60204B0022CE
:10108C001A60204B00221A601C4B4FF400521A605D
:10109C001D4AFB681360194B42F208021A60164B8A
:1010AC001B6803F0F003A02B15D1174B1B68FA68D3
:1010BC009A4210D1114B1A6842F20803134042F2C3
:1010CC000802934207D1FFF775FF034683F0010333
:1010DC00DBB2002B04D0094B00221A60032303E07F
:1010EC00034B01221A70002318461037BD4680BDF1
:1010FC00A800002018100240040801400C380140E0
:10110C0010380140143801400838014080B582B0D5
:10111C0000AF0346FB710C4B1B7883F00103DBB271
:10112C00002B07D1FFF746FF034683F00103DBB228
:10113C00002B01D0002303E0044AFB791360012348
:10114C0018460837BD4680BDA80000200438014071
:10115C0080B582B000AF78607B68002B11D1002382
:10116C0014E07B681B781846FFF7D0FF034683F02A
:10117C000103DBB2002B01D0002307E07B680133B5
:10118C007B607B681B78002BEBD10123184608375A
:10119C00BD4680BD80B582B000AF78607868FFF73F
:1011AC00D7FF034683F00103DBB2002B01D00023F1
:1011BC0003E00448FFF7CCFF034618460837BD464A
:1011CC0080BD00BFE020000880B586B000AF78601D
:1011DC007B68002B04D13020FFF798FF034639E0E1
:1011EC0000237B611BE079681C4BA3FB0123DA080D
:1011FC0013469B0013445B00CA1AD3B23033D9B2E6
:10120C0007F108027B6913440A461A707B690133A3
:10121C007B617B68114AA2FB0323DB087B607B6844
:10122C00002BE0D112E07B69013B7B6107F10802E6
:10123C007B6913441B781846FFF768FF034683F05D
:10124C000103DBB2002B01D0002303E07B69002BF0
:10125C00E9D1012318461837BD4680BDCDCCCCCC86
:10126C0080B400AF034B00221A6000BFBD4680BCA7
:10127C00704700BF2401002080B584B000AF01236B
:10128C00FB6030E0294AFB6813441B78A52B27D15F
:10129C00FB680133254AD35C5A2B21D1244B1A68A5
:1012AC00FB68D31A7B600023BB600CE0FA68BB6858
:1012BC0013441E4AD15C1D4ABB6813440A461A707B
:1012CC00BB680133BB60BA687B689A42EED3184A9C
:1012DC007B681360174BDB6B0133164AD36321E039
:1012EC00FB680133FB60FB685A1C114B1B689A426C
:1012FC00C8D30F4B1B68002B12D00D4B1B68013B46
:10130C000A4AD35CA52B0BD1084BA5221A70084BAB
:10131C0001221A60074BDB6B0133064AD36301E0F1
:10132C00FFF79EFF1037BD4680BD00BF10010020A7
:10133C0024010020C000002080B483B000AF03461D
:10134C00FB71214B1B6901331F4A1361FB79033B72
:10135C00052B33D801A252F823F000BF81130008EB
:10136C008D13000899130008A5130008B113000889
:10137C00BD130008144B5B690133134A53611EE023
:10138C00114B9B690133104A936118E00E4BDB69DA
:10139C0001330D4AD36112E00B4B1B6A01330A4A2D
:1013AC0013620CE0084B5B6A0133074A536206E098
:1013BC00054B9B6A0133044A936200E000BF00BFF7
:1013CC000C37BD4680BC7047C000002080B485B08F
:1013DC0000AF78603960154B1B7883F00103DBB2EA
:1013EC00002B07D03B68002B02D03B6801221A600F
:1013FC00012316E00E4B1B687A68D31AFB603B681E
:10140C00002B02D03B68FA681A60FB68002B04D0F2
:10141C00FB68002B01DB012300E0002303F0010338
:10142C00DBB218461437BD4680BC7047280100203B
:10143C002C010020B0B489B000AF786039607B68B3
:10144C001B68FB607B689B883B827B68DB887B82AC
:10145C007B681B89BB827B685B89FB823B68BB61B9
:10146C0001233B770F4B1D4607F10C040FCC0FC526
:10147C0023682B600C4BDB6801330B4AD3607B6811
:10148C001B68094A5364084A3B6893647B681B6871
:10149C00064A1360064B01221A7000BF2437BD4662
:1014AC00B0BC7047AC000020C00000202C01002014
:1014BC002801002080B59AB000AF0E4B00221A60B4
:1014CC000D4B00221A700D4B00221A600C4B1A4661
:1014DC000023136053609360D3601361094B18466B
:1014EC0050231A460021FFF7F3F800BF6837BD46BA
:1014FC0080BD00BF24010020280100202C01002009
:10150C00AC000020C000002080B588B000AF0346BE
:10151C003960FB71554B1B680133544A1360544BB3
:10152C001B68002B11D1FB79A52B06D04F4B5B68A8
:10153C0001334E4A5360002393E04E4AFB791370FB
:10154C004B4B01221A6000238BE0494B1B68012B8B
:10155C0020D1FB795A2B07D1464AFB795370444B67
:10156C0002221A6000237CE0FB79A52B09D1414AA9
:10157C00FB7913703D4B5B6801333C4A536000238D
:10158C006FE03A4B5B680233384A5360FFF768FEF2
:10159C00002366E0364B1B683649FA79CA54344B43
:1015AC001B680133324A1360314B1B68122B01D874
:1015BC00002356E02D4B9B6801332C4A936007F1B6
:1015CC0010031A4613212B4800F00EF90346FB7743
:1015DC00FB7F002B07D0FB7F1846FFF7ADFEFFF714
:1015EC004BFE00233DE03B6907F10C021146184607
:1015FC00FFF7ECFE034683F00103DBB2002B14D0A3
:10160C003B691A4AD364FB68002B05D1174BDB6A84
:10161C000133164AD36204E0144B1B6B0133134A9B
:10162C001363FFF71DFE00231BE0134B1B78002BED
:10163C000ED0FB68012B0BD90C4B5B6B01330B4AA7
:10164C0053630A4B9A6BFB681344013B074A936341
:10165C0007F1100339681846FFF7ECFEFFF700FEA0
:10166C00012318462037BD4680BD00BFC0000020B6
:10167C0024010020100100202801002080B584B036
:10168C0000AF78600023FB600AE0FB7A79681846AB
:10169C00FFF73AFF0346002B02D0FB680133FB60D7
:1016AC0007F10B03184600F0E3FA0346002BECD1CC
:1016BC00FB6818461037BD4680BD80B483B000AFC0
:1016CC0078607B681B781AB27B6801331B781BB27D
:1016DC001B021BB213431BB29BB218460C37BD4600
:1016EC0080BC704780B483B000AF78607B681B7897
:1016FC001A467B6801331B781B021A437B68023342
:10170C001B781B041A437B6803331B781B0613439B
:10171C0018460C37BD4680BC704780B483B000AF10
:10172C0078607B68002B01D1002316E07B689B88D6
:10173C00B3F57A7F10D87B68DB88B3F57A7F0BD84A
:10174C007B681B89B3F57A7F06D87B685B89B3F518
:10175C007A7F01D8012300E0002318460C37BD46E0
:10176C0080BC704780B487B000AF786039604FF6AA
:10177C00FF73FB827B68002B04D13B68002B01D0EC
:10178C0000232CE000233B6124E07A683B6913447E
:10179C001B781B029AB2FB8A5340FB820023FB602E
:1017AC0012E0B7F91630002B08DAFB8A5B009BB20B
:1017BC0083F4815383F00103FB8202E0FB8A5B001C
:1017CC00FB82FB680133FB60FB68072BE9D93B69A3
:1017DC0001333B613A693B689A42D6D3FB8A18467F
:1017EC001C37BD4680BC704790B589B000AFF8601F
:1017FC00B9607A60FB68002B02D07B68002B01D1AA
:10180C0001236FE0BB68132B01D002236AE0FB6855
:10181C001B78A52B04D1FB6801331B785A2B01D004
:10182C0003235FE0FB6802331B78012B01D00423F8
:10183C0058E0FB6803331B78012B01D0052351E0E2
:10184C00FB6804331B780C2B01D006234AE0FB68A1
:10185C0011331846FFF731FF0346FB83FB68023355
:10186C000F211846FFF77EFF0346BB83FA8BBB8B19
:10187C009A4201D0072335E0FB6805331846FFF781
:10188C0031FF03463B61FB6809331846FFF715FF30
:10189C000346BB82FB680B331846FFF70EFF03466B
:1018AC00FB82FB680D331846FFF707FF03463B83AB
:1018BC00FB680F331846FFF700FF03467B8307F1E5
:1018CC0010031846FFF729FF0346002B01D108230C
:1018DC0008E07B681C4607F1100393E8070084E8D6
:1018EC000700002318462437BD4690BD80B483B052
:1018FC0000AFEFF3108372B67B607B6818460C3731
:10190C00BD4680BC704780B483B000AF78607B6804
:10191C0003F00103002B00D162B600BF0C37BD46AB
:10192C0080BC704780B485B000AF03460A46FB719B
:10193C001346BB71144B1B68134A43F0040313602A
:10194C00114B1B68114B1B68FB60FB79002B07D0FC
:10195C00FB6823F47063FB60FB6843F42063FB605B
:10196C00BB79002B07D0FB6823F47043FB60FB684A
:10197C0043F48043FB60054AFB68136000BF1437D7
:10198C00BD4680BC704700BF1810024000080140E3
:10199C0080B483B000AF03460A46FB711346BB719B
:1019AC00FB79002B08D00D4B1B6803F47063B3F567
:1019BC00206F01D000230CE0BB79002B08D0074B23
:1019CC001B6803F47043B3F5804F01D0002300E093
:1019DC00012318460C37BD4680BC704700080140F7
:1019EC0080B400AF144B1B68134A43F0010313601F
:1019FC00114B1B68114B1B68104A23F00103136039
:101A0C000F4B4FF070621A600E4B0F4A1A600F4B5F
:101A1C000F4A1A600F4B00221A60084B42F29A02CE
:101A2C001A600D4BA0221A700C4B4FF400321A6046
:101A3C0000BFBD4680BC70471410024080000240BD
:101A4C000400024088000240044400408C00024024
:101A5C006C0100208400024011E400E000E100E091
:101A6C0080B400AF044B80221A70044B40221A60E1
:101A7C0000BFBD4680BC704726E400E004E100E0F6
:101A8C0080B596B000AFF860B96011461A460B46A7
:101A9C00FB711346BB71694B00221A70684B002214
:101AAC001A70684B00221A70674B00221A70FB6880
:101ABC00002B0ED0BB68002B0BD0FB7983F00103FD
:101ACC00DBB2002B07D0BB7983F00103DBB2002B18
:101ADC0001D00123AEE0BB685A08FB681A44BB680E
:101AEC00B2FBF3F3FB64FB6C0F2B03D9FB6CB3F56C
:101AFC00803F01D302239DE0FFF7F8FEB864534BFF
:101B0C00184638231A460021FEF7E2FD4F4B0122FE
:101B1C001A604F4B00221A804E4B00221A80B86C70
:101B2C00FFF7F1FEBA79FB7911461846FFF7FAFE7A
:101B3C00494B1B68484A43F400331360464B1B68FF
:101B4C00464B00221A60464B00221A60454B00227D
:101B5C001A60454AFB6C1360FB79002B01D0FFF730
:101B6C003FFFBB79002B01D0FFF77AFF00233B65C9
:101B7C00FB79002B03D03B6D43F080033B65BB79B5
:101B8C00002B03D03B6D43F001033B65354A3B6DA5
:101B9C0013604FF400537B65FB79002B03D07B6DF6
:101BAC0043F008037B65BB79002B03D07B6D43F0BE
:101BBC0024037B65294A7B6D1360BA79FB79114646
:101BCC001846FFF7E5FE034683F00103DBB2002B5A
:101BDC0012D1254B1B68FA6C9A420DD11F4B1A6817
:101BEC007B6D13407A6D9A4206D11E4B1A683B6D81
:101BFC0013403A6D9A4213D0184B00221A60184BBE
:101C0C0000221A60174B00221A60FB79002B05D0BA
:101C1C00164B1B68154A23F001031360032309E0DC
:101C2C00074AFB791370074ABB791370034B0122E7
:101C3C001A70002318465837BD4680BD6801002035
:101C4C00690100206A0100206B0100203001002096
:101C5C008C0100208E0100201C1002400C4400401E
:101C6C0010440040144400400844004080000240EE
:101C7C0080B584B000AF78601D4B1B78DBB283F06D
:101C8C000103DBB2002B0AD11A4B1B78DBB283F0B9
:101C9C000103DBB2002B02D17B68002B01D10023A6
:101CAC0021E0FFF723FEF860134B1B887B81134B5D
:101CBC001B889BB27A899A4204D1F868FFF723FEFD
:101CCC00002310E07B890E4AD25C7B681A707B89FA
:101CDC0001339BB203F07F039AB2074B1A80F8686A
:101CEC00FFF711FE012318461037BD4680BD00BF1B
:101CFC00680100206A0100208E0100208C01002068
:101D0C009001002080B483B000AF1B4B1B687B603C
:101D1C007B6803F00063002B12D0184B1B68174A2A
:101D2C0023F001031360164B4FF070621A60154BD1
:101D3C0000221A70144B5B690133134A536116E08D
:101D4C007B6803F00073002B11D00C4B1B680B4A03
:101D5C0023F0010313600A4B4FF070621A60094BB9
:101D6C0000221A70084B9B680133074A93600C37AA
:101D7C00BD4680BC704700BF00000240800002409E
:101D8C00040002406B0100203001002080B485B0BB
:101D9C0000AF3B4B1B68FB60FB6803F02F03002B71
:101DAC0064D0384B1B68FB72FB6803F00103002BFB
:101DBC0004D0354B5B6A0133334A5362FB6803F042
:101DCC000203002B04D0304B9B6A01332E4A9362E2
:101DDC00FB6803F00403002B04D02B4BDB6A0133AC
:101DEC00294AD362FB6803F00803002B04D0264B6E
:101DFC001B6B0133244A1363FB6803F00F03002BA6
:101E0C0036D1224B1B78DBB283F00103DBB2002B03
:101E1C0030D11F4B1B78DBB283F00103DBB2002BFC
:101E2C0028D11C4B1B883B813B8901339BB203F0AF
:101E3C007F03FB80184B1B889BB2FA889A4205D112
:101E4C00114B1B6A0133104A136214E03B8913498E
:101E5C00FA7ACA540F4AFB8813800B4BDB690133A7
:101E6C00094AD361FB7A084A536304E000BF02E0DD
:101E7C0000BF00E000BF1437BD4680BC704700BFF8
:101E8C000044004004440040300100206801002060
:101E9C006A0100208C0100208E010020900100209E
:101EAC000D0A00005B424F4F545D204D6F746F72F2
:101EBC00206E6F6465207374617274696E670000C4
:101ECC005B434C4F434B5D20496E697469616C698F
:101EDC007A6174696F6E204F4B00000020487A00C5
:101EEC005B434C4F434B5D20535953434C4B203D6C
:101EFC00200000005B434C4F434B5D2048434C4B50
:101F0C002020203D200000005B434C4F434B5D20C4
:101F1C0050434C4B3120203D200000005B434C4F84
:101F2C00434B5D2050434C4B3220203D20000000A1
:101F3C005B4552524F525D204D6F746F72206F751E
:101F4C00747075747320617265206E6F7420736188
:101F5C00666500005B534146455D204D6F746F72A2
:101F6C00206F75747075747320617265204C4F57B7
:101F7C00000000005B4552524F525D205379735460
:101F8C0069636B20696E697469616C697A617469E3
:101F9C006F6E206661696C65640000005B54494D8E
:101FAC00455D205379735469636B20696E6974695C
:101FBC00616C697A656400005B4552524F525D203A
:101FCC004661696C656420746F20656E746572205F
:101FDC0044495341524D4544000000005B53544169
:101FEC0054455D20456E74657265642044495341C7
:101FFC00524D4544000000005B4552524F525D204B
:10200C00555341525432206D6F746F722D636F6D46
:10201C006D616E6420726563656976657220696EA8
:10202C006974206661696C656400000020626175EA
:10203C00640000005B4C494E4B5D2055534152549B
:10204C0032206D6F746F722D636F6D6D616E6420D5
:10205C005258203D200000005B4C494E4B5D2052F5
:10206C006563656976652F76616C6964617465205A
:10207C006F6E6C793B2050574D2072656D61696EA7
:10208C00732064697361626C656400005B52454146
:10209C0044595D204D61696E206C6F6F70207374B4
:1020AC0061727465640000005B4552524F525D20B2
:1020BC0044495341524D45442073616665747920FF
:1020CC00656E666F7263656D656E74206661696CB2
:0C20DC00656400000D0A00003078000070
:1020E80000127A0000127A0000127A0000127A00B8
:0420F80000093D009E
:040000050800089D4A
:00000001FF
