:020000040800F2
:100000000050002091040008B9080008F108000819
:1000100001030008090300081103000800000000A4
:1000200000000000000000000000000019030008AC
:100030002103000800000000290300083103000824
:100040003903000841030008490300085103000870
:1000500059030008610300086903000871030008E0
:100060007903000881030008890300089103000850
:1000700099030008A1030008A9030008B1030008C0
:10008000B9030008C1030008C9030008D103000830
:10009000D9030008E1030008E9030008F1030008A0
:1000A000F90300080104000809040008110400080D
:1000B000190400082104000829040008310400087C
:1000C00039040008410400084904000851040008EC
:1000D000590400086104000869040008710400085C
:0C00E0007904000881040008890400086D
:1000EC0080B500AF00F0A8F800F0B2FB00F0C6F845
:1000FC00034683F00103DBB2002B01D000BFFDE708
:10010C0000F040FA03461A461E4B1A7000F0D0FA63
:10011C0003461D4A136000F0D5FA03461B4A1360D0
:10012C0000F0DAFA03461A4A136000F0DFFA0346CD
:10013C00184A136000F0E4FA0346174A1360114B97
:10014C001B78DBB2002B03D000F076F800BFFDE784
:10015C0000F0CAF800F092F80346002B01D00123FE
:10016C0000E000230D4A13600C4B1B68002B03D1DD
:10017C0000F062F800BFFDE7094B01221A6000BFD6
:10018C00FDE700BF14000020180000201C00002018
:10019C002000002024000020280000203400002033
:1001AC002C00002080B400AF054B1B68044A43F0C0
:1001BC000C031360024B1B6800BFBD4680BC70472C
:1001CC001810024080B400AF054B4FF440021A6087
:1001DC00044B4FF440321A6000BFBD4680BC7047E0
:1001EC0010080140100C014080B483B000AF104BDC
:1001FC001B687B600F4B1B683B607B6823F07F4365
:10020C007B607B6843F008537B60094A7B68136012
:10021C003B6823F0FF033B603B6843F022033B60E9
:10022C00044A3B68136000BF0C37BD4680BC704766
:10023C0000080140000C014080B500AF0D4B0122BD
:10024C001A600D4B00221A60FFF7ACFFFFF7BAFFE4
:10025C00FFF7CAFFFFF7B6FFBFF34F8F00F00EF8A2
:10026C000346002B01D0012300E00023024A136057
:10027C0000BF80BD300000203400002080B485B069
:10028C0000AF154B1B6803F07F43FB60134B1B68DF
:10029C00DBB2BB60124B1B6803F0C0037B60114BDD
:1002AC001B6803F003033B60FB68B3F1085F0AD1E2
:1002BC00BB68222B07D17B68002B04D13B68002B39
:1002CC0001D1012300E0002303F00103DBB2184647
:1002DC001437BD4680BC704700080140000C01403B
:1002EC000C0801400C0C014080B400AF00BFBD46AF
:1002FC0080BC704780B500AF00F0CAFA80B500AF83
:10030C0000F0C6FA80B500AF00F0C2FA80B500AFBD
:10031C0000F0BEFA80B500AF00F0BAFA80B500AFBD
:10032C0000F0B6FA80B500AF00F0B2FA80B500AFBD
:10033C0000F0AEFA80B500AF00F0AAFA80B500AFBD
:10034C0000F0A6FA80B500AF00F0A2FA80B500AFBD
:10035C0000F09EFA80B500AF00F09AFA80B500AFBD
:10036C0000F096FA80B500AF00F092FA80B500AFBD
:10037C0000F08EFA80B500AF00F08AFA80B500AFBD
:10038C0000F086FA80B500AF00F082FA80B500AFBD
:10039C0000F07EFA80B500AF00F07AFA80B500AFBD
:1003AC0000F076FA80B500AF00F072FA80B500AFBD
:1003BC0000F06EFA80B500AF00F06AFA80B500AFBD
:1003CC0000F066FA80B500AF00F062FA80B500AFBD
:1003DC0000F05EFA80B500AF00F05AFA80B500AFBD
:1003EC0000F056FA80B500AF00F052FA80B500AFBD
:1003FC0000F04EFA80B500AF00F04AFA80B500AFBD
:10040C0000F046FA80B500AF00F042FA80B500AFBC
:10041C0000F03EFA80B500AF00F03AFA80B500AFBC
:10042C0000F036FA80B500AF00F032FA80B500AFBC
:10043C0000F02EFA80B500AF00F02AFA80B500AFBC
:10044C0000F026FA80B500AF00F022FA80B500AFBC
:10045C0000F01EFA80B500AF00F01AFA80B500AFBC
:10046C0000F016FA80B500AF00F012FA80B500AFBC
:10047C0000F00EFA80B500AF00F00AFA80B500AFBC
:10048C0000F006FA80B582B000AF124B7B60124BC5
:10049C003B6009E07B681A683B681A607B68043330
:1004AC007B603B6804333B603B680C4A9342F1D35E
:1004BC000B4B3B6005E03B6800221A603B68043341
:1004CC003B603B68074A9342F5D3FFF709FE00F007
:1004DC00DFF900BF7809000800000020140000209C
:1004EC00140000208400002080B487B000AFF860B6
:1004FC00B9607A6000237B610BE0FB681A68BB680B
:10050C0013407A689A4201D1012310E07B690133D0
:10051C007B617B69084A9342EFD9FB681A68BB6818
:10052C0013407A689A420CBF01230023DBB21846B1
:10053C001C37BD4680BC70473F420F0080B400AFF3
:10054C00094B0A4A1A600A4B084A1A60094B074AB7
:10055C001A60094B054A1A60084B094A1A6000BF19
:10056C00BD4680BC704700BF0000002000127A001E
:10057C0004000020080000200C00002010000020C7
:10058C0000093D0080B582B000AFFFF7D7FF3C4BB0
:10059C001B683B4A43F4803313604FF400324FF432
:1005AC0000313748FFF7A0FF034683F00103DBB2AD
:1005BC00002B07D0324B1B68314A23F48033136075
:1005CC00012358E02F4B12221A602D4B5B687B6085
:1005DC007A682D4B13407B607B6843F4EC1343F437
:1005EC0080637B60264A7B685360254B1B68244ADA
:1005FC0043F0807313604FF000724FF0007120488D
:10060C00FFF772FF034683F00103DBB2002B07D028
:10061C001B4B1B681A4A23F08073136002232AE0D9
:10062C00174B5B6823F00303154A43F00203536036
:10063C0008220C211548FFF757FF034683F00103EE
:10064C00DBB2002B07D00E4B5B680D4A23F0030383
:10065C00536003230FE00E4B0E4A1A600E4B0D4AEB
:10066C001A600E4B0E4A1A600E4B0A4A1A600E4B59
:10067C000E4A1A60002318460837BD4680BD00BFDD
:10068C0000100240002002400C00C0FF0410024089
:10069C000000002000A24A040400002008000020F2
:1006AC00005125020C00002010000020001BB70098
:1006BC0080B400AF024B1B681846BD4680BC704727
:1006CC000000002080B400AF024B1B681846BD46EA
:1006DC0080BC70470400002080B400AF024B1B6844
:1006EC001846BD4680BC70470800002080B400AF9F
:1006FC00024B1B681846BD4680BC70470C0000209E
:10070C0080B400AF024B1B681846BD4680BC7047D6
:10071C001000002080B400AF72B600BFBD4680BC94
:10072C00704780B483B000AFEFF305837B607B68C8
:10073C00C3F3080318460C37BD4680BC7047000055
:10074C0080B400AF0D4B0022DA620C4B00221A630E
:10075C000A4B00225A63094B00229A63074B002272
:10076C00DA63064B00221A64044B00225A64034BD2
:10077C0000229A6400BFBD4680BC70473800002040
:10078C0080B400AF0F4B1B680F4A13610F4B1B68F3
:10079C000D4A53610E4B1B680B4A93610D4B1B6842
:1007AC00094AD3610C4B1B68074A13620B4B1B683D
:1007BC00054A53620A4B1B68034A936200BFBD464D
:1007CC0080BC70472CED00E03800002028ED00E0E4
:1007DC0024ED00E030ED00E034ED00E038ED00E019
:1007EC003CED00E080B582B000AF0346FB710B4BD3
:1007FC0000221A60FB79094A5360FFF792FF034607
:10080C00064A9360054B0022DA60FFF7B9FFFFF749
:10081C0097FF00BF0837BD4680BD00BF38000020E1
:10082C0080B400AFBFF35F8F054B064A1A60BFF36D
:10083C004F8FBFF36F8F00BFBD4680BC704700BFAA
:10084C00380000204C55414680B400AF00BFFDE796
:10085C0080B485B000AF0D4BBB6013237B600023CD
:10086C00FB6008E0FB689B00BA68134400221A6026
:10087C00FB680133FB60FA687B689A42F2D3BFF3E2
:10088C005F8F00BF1437BD4680BC70473800002016
:10089C0080B500AFFFF73EFFFFF7CEFC0120FFF75E
:1008AC00A1FFFFF7BDFFFFF7CFFF000080B500AF42
:1008BC00FFF730FFFFF7C0FC094B1B6803F0800308
:1008CC00002B05D0064B1B68054A43F4000313604C
:1008DC000220FFF787FFFFF7A3FFFFF7B5FF00BF6D
:1008EC00081002401EF0040F0CBFEFF30880EFF36A
:1008FC000980714600F002B800BF000080B582B0DC
:10090C0000AF78603960FFF705FFFFF795FC032017
:10091C00FFF768FF144A3B68D3607B68002B1FD03D
:10092C007B681B68104AD3627B685B680E4A136352
:10093C007B689B680C4A53637B68DB680A4A936349
:10094C007B681B69084AD3637B685B69064A13643E
:10095C007B689B69044A53647B68DB69024A936435
:0C096C00FFF75EFFFFF770FF380000206F
:1009780000127A0000127A0000127A0000127A003F
:0409880000093D0025
:04000005080004915A
:00000001FF
