:020000040800F2
:1000000000500020F9070008D50C00080D0D00086D
:10001000710600087906000881060008000000004B
:100020000000000000000000000000008906000839
:10003000910600080000000099060008010F000862
:10004000A1060008A9060008B1060008B9060008C4
:10005000C1060008C9060008D1060008D906000834
:10006000E1060008E9060008F1060008F9060008A4
:100070000107000809070008110700081907000810
:100080002107000829070008310700083907000880
:1000900041070008490700085107000859070008F0
:1000A0006107000869070008710700087907000860
:1000B00081070008890700089107000899070008D0
:1000C000A1070008A9070008B1070008B907000840
:1000D000C1070008C9070008D1070008D9070008B0
:0C00E000E1070008E9070008F10700082C
:1000EC0080B483B000AF0346FB71FB7983F001034E
:1000FC00DBB2002B02D0044B00221A6000BF0C377D
:10010C00BD4680BC704700BF3400002080B584B071
:10011C0000AFF860B9607A60F86800F0C7FF03467A
:10012C001846FFF7DDFFB86800F0FCFF03461846E1
:10013C00FFF7D6FF786800F0B9FF03461846FFF7C3
:10014C00CFFF054800F0B2FF03461846FFF7C8FF83
:10015C0000BF1037BD4680BDC811000880B582B005
:10016C0000AF00F0BDF900F081FD00F0DBF90346B3
:10017C0083F00103DBB2002B01D000BFFDE700F0E0
:10018C0003FE00F017FC03461A46964B1A7000F05B
:10019C009DFC0346944A136000F0A2FC0346934A6C
:1001AC00136000F0A7FC0346914A136000F0ACFC0E
:1001BC000346904A136000F0B1FC03468E4A13606C
:1001CC00884B1B78DBB2002B03D000F089F900BF01
:1001DC00FDE7844B1B78DBB2002B03D000F080F9D9
:1001EC0000BFFDE7834B1B684FF4E131184600F06C
:1001FC00B7FE03461A46814B1A70804B1B78DBB254
:10020C00002B01D1012300E000237D4A13607B4BBE
:10021C001B78DBB2002B29D17A4800F069FF03462A
:10022C001846FFF75DFF784800F062FF034618465A
:10023C00FFF756FF6C4B1B68744A19467448FFF75E
:10024C0065FF6A4B1B68714A19467248FFF75EFFDF
:10025C00674B1B686D4A19466F48FFF757FF654B94
:10026C001B686A4A19466D48FFF750FF00F0F4F915
:10027C0000F058F90346002B01D0012300E00023C5
:10028C00674A1360664B1B68002B0FD100F028F9EE
:10029C005A4B1B78DBB2002B06D1624800F028FFCA
:1002AC0003461846FFF71CFF00BFFDE7534B1B78B6
:1002BC00DBB2002B06D15C4800F01AFF034618464F
:1002CC00FFF70EFF00F00CFC0346184600F0AEFDE5
:1002DC0003461A46554B1A70544B1B78DBB2002B55
:1002EC0011D000F0FDF800F083FD444B1B78DBB21D
:1002FC00002B06D14E4800F0FBFE03461846FFF7D4
:10030C00EFFE00BFFDE73D4B1B78DBB2002B06D1A7
:10031C00484800F0EDFE03461846FFF7E1FE00F0FA
:10032C0057F9034683F00103DBB2002B11D000F028
:10033C00D7F800F05DFD314B1B78DBB2002B06D1FA
:10034C003D4800F0D5FE03461846FFF7C9FE00BF36
:10035C00FDE72A4B1B78DBB2002B06D1374800F0A7
:10036C00C7FE03461846FFF7BBFE354B01221A6049
:10037C0000F032FD00F0B4FD7860204B1B78DBB24E
:10038C00002B06D12F4800F0B3FE03461846FFF7AA
:10039C00A7FE00F049F9034683F00103DBB2002B02
:1003AC0011D000F09DF800F023FD144B1B78DBB24C
:1003BC00002B06D1244800F09BFE03461846FFF79D
:1003CC008FFE00BFFDE700F08BFD38603A687B685C
:1003DC00D31AB3F5FA7F03D33B687B6000F014FDAE
:1003EC0000BFD6E714000020180000201C000020DD
:1003FC0020000020240000202800002031000020D4
:10040C0034000020CC110008E81100080412000888
:10041C00081200081C1200083012000844120008D0
:10042C003C000020581200087C120008300000200C
:10043C009C120008C4120008E01200080413000803
:10044C002C000020201300083C13000880B400AFDF
:10045C00054B1B68044A43F00C031360024B1B68EA
:10046C0000BFBD4680BC70471810024080B400AF7E
:10047C00054B4FF440021A60044B4FF440321A60A3
:10048C0000BFBD4680BC704710080140100C0140F5
:10049C0080B483B000AF104B1B687B600F4B1B68A4
:1004AC003B607B6823F07F437B607B6843F00853A1
:1004BC007B60094A7B6813603B6823F0FF033B6059
:1004CC003B6843F022033B60044A3B68136000BF67
:1004DC000C37BD4680BC704700080140000C014041
:1004EC0080B500AF0D4B01221A600D4B00221A6033
:1004FC00FFF7ACFFFFF7BAFFFFF7CAFFFFF7B6FF36
:10050C00BFF34F8F00F00EF80346002B01D00123F0
:10051C0000E00023024A136000BF80BD38000020B9
:10052C003C00002080B485B000AF154B1B6803F075
:10053C007F43FB60134B1B68DBB2BB60124B1B6829
:10054C0003F0C0037B60114B1B6803F003033B609B
:10055C00FB68B3F1085F0AD1BB68222B07D17B681B
:10056C00002B04D13B68002B01D1012300E00023B8
:10057C0003F00103DBB218461437BD4680BC70474C
:10058C0000080140000C01400C0801400C0C01401B
:10059C0080B500AFFFF7A4FF0B4B1B6801330A4A71
:1005AC001360FFF7BFFF034683F00103DBB2002BA0
:1005BC0006D0064B1B680133044A1360002300E08D
:1005CC000123184680BD00BF480000204C000020CD
:1005DC0080B582B000AF0F4B00221A600E4B002288
:1005EC001A600E4B00221A600D4B00221A600D4B44
:1005FC0000221A70FFF7CCFF0346FB71FB79002B2E
:10060C0002D0044B01221A60FB7918460837BD460C
:10061C0080BD00BF44000020480000204C0000209A
:10062C00500000204000002080B500AF084B1B7824
:10063C00DBB2002B07D0074B1B680133054A136054
:10064C00034B00221A70FFF7A3FF0346184680BD28
:10065C00400000205000002080B400AF00BFBD4619
:10066C0080BC704780B500AF00F020FB80B500AFB8
:10067C0000F01CFB80B500AF00F018FB80B500AF9C
:10068C0000F014FB80B500AF00F010FB80B500AF9C
:10069C0000F00CFB80B500AF00F008FB80B500AF9C
:1006AC0000F004FB80B500AF00F000FB80B500AF9C
:1006BC0000F0FCFA80B500AF00F0F8FA80B500AF9E
:1006CC0000F0F4FA80B500AF00F0F0FA80B500AF9E
:1006DC0000F0ECFA80B500AF00F0E8FA80B500AF9E
:1006EC0000F0E4FA80B500AF00F0E0FA80B500AF9E
:1006FC0000F0DCFA80B500AF00F0D8FA80B500AF9E
:10070C0000F0D4FA80B500AF00F0D0FA80B500AF9D
:10071C0000F0CCFA80B500AF00F0C8FA80B500AF9D
:10072C0000F0C4FA80B500AF00F0C0FA80B500AF9D
:10073C0000F0BCFA80B500AF00F0B8FA80B500AF9D
:10074C0000F0B4FA80B500AF00F0B0FA80B500AF9D
:10075C0000F0ACFA80B500AF00F0A8FA80B500AF9D
:10076C0000F0A4FA80B500AF00F0A0FA80B500AF9D
:10077C0000F09CFA80B500AF00F098FA80B500AF9D
:10078C0000F094FA80B500AF00F090FA80B500AF9D
:10079C0000F08CFA80B500AF00F088FA80B500AF9D
:1007AC0000F084FA80B500AF00F080FA80B500AF9D
:1007BC0000F07CFA80B500AF00F078FA80B500AF9D
:1007CC0000F074FA80B500AF00F070FA80B500AF9D
:1007DC0000F06CFA80B500AF00F068FA80B500AF9D
:1007EC0000F064FA80B500AF00F060FA80B582B01A
:1007FC0000AF124B7B60124B3B6009E07B681A68C0
:10080C003B681A607B6804337B603B6804333B6055
:10081C003B680C4A9342F1D30B4B3B6005E03B68C1
:10082C0000221A603B6804333B603B68074A9342E2
:10083C00F5D3FFF793FC00F039FA00BF70130008F2
:10084C00000000201400002014000020A80000204C
:10085C0080B487B000AFF860B9607A6000237B6128
:10086C000BE0FB681A68BB6813407A689A4201D1A6
:10087C00012310E07B6901337B617B69084A934259
:10088C00EFD9FB681A68BB6813407A689A420CBFB0
:10089C0001230023DBB218461C37BD4680BC7047D1
:1008AC003F420F0080B400AF094B0A4A1A600A4B52
:1008BC00084A1A60094B074A1A60094B054A1A6024
:1008CC00084B094A1A6000BFBD4680BC704700BF88
:1008DC000000002000127A00040000200800002014
:1008EC000C0000201000002000093D0080B584B0F1
:1008FC0000AF0346FB712C4B1B682B4A43F00103E2
:10090C001360022202212848FFF7A2FF034683F05E
:10091C000103DBB2002B01D0042341E0224B5B68C6
:10092C00214A23F00303536000220C211F48FFF7D8
:10093C008FFF034683F00103DBB2002B01D00423AD
:10094C002EE0194B1B68184A23F0807313600022A9
:10095C004FF000711448FFF77BFF034683F001034F
:10096C00DBB2002B01D004231AE00F4B1B680E4A9C
:10097C0023F4803313600C4B5B68FB60FB6823F43F
:10098C007F4323F0F003FB60074AFB685360084B7E
:10099C001B68074A23F007031360FFF783FFFB79FB
:1009AC0018461037BD4680BD0010024004100240AE
:1009BC000020024080B582B000AFFFF773FF374BC9
:1009CC001B68364A43F4803313604FF400324FF403
:1009DC0000313248FFF73CFF034683F00103DBB2E2
:1009EC00002B04D00120FFF781FF034652E02C4B73
:1009FC0012221A60294B5B687B607A68294B134082
:100A0C007B607B6843F4EC1343F480637B60234A84
:100A1C007B685360214B1B68204A43F08073136042
:100A2C004FF000724FF000711C48FFF711FF0346A6
:100A3C0083F00103DBB2002B04D00220FFF756FF3A
:100A4C00034627E0154B5B6823F00303134A43F07E
:100A5C000203536008220C211348FFF7F9FE0346EA
:100A6C0083F00103DBB2002B04D00320FFF73EFF21
:100A7C0003460FE00D4B0E4A1A600E4B0C4A1A60DF
:100A8C000D4B0E4A1A600E4B094A1A600D4B0E4A5A
:100A9C001A60002318460837BD4680BD001002407E
:100AAC00002002400C00C0FF041002400000002097
:100ABC0000A24A0404000020080000200051250276
:100ACC000C00002010000020001BB70080B400AF09
:100ADC00024B1B681846BD4680BC704700000020C6
:100AEC0080B400AF024B1B681846BD4680BC7047F3
:100AFC000400002080B400AF024B1B681846BD46B2
:100B0C0080BC70470800002080B400AF024B1B680B
:100B1C001846BD4680BC70470C00002080B400AF66
:100B2C00024B1B681846BD4680BC70471000002065
:100B3C0080B400AF72B600BFBD4680BC704780B4B5
:100B4C0083B000AFEFF305837B607B68C3F30803CE
:100B5C0018460C37BD4680BC7047000080B400AF0F
:100B6C000D4B0022DA620C4B00221A630A4B002256
:100B7C005A63094B00229A63074B0022DA63064B37
:100B8C0000221A64044B00225A64034B00229A641C
:100B9C0000BFBD4680BC70475400002080B400AF3D
:100BAC000F4B1B680F4A13610F4B1B680D4A5361A7
:100BBC000E4B1B680B4A93610D4B1B68094AD361A2
:100BCC000C4B1B68074A13620B4B1B68054A53629C
:100BDC000A4B1B68034A936200BFBD4680BC70473A
:100BEC002CED00E05400002028ED00E024ED00E0A6
:100BFC0030ED00E034ED00E038ED00E03CED00E0DD
:100C0C0080B582B000AF0346FB710B4B00221A601B
:100C1C00FB79094A5360FFF792FF0346064A93603B
:100C2C00054B0022DA60FFF7B9FFFFF797FF00BF13
:100C3C000837BD4680BD00BF5400002080B400AF13
:100C4C00BFF35F8F054B064A1A60BFF34F8FBFF39C
:100C5C006F8F00BFBD4680BC704700BF54000020A2
:100C6C004C55414680B400AF00BFFDE780B485B061
:100C7C0000AF0D4BBB6013237B600023FB6008E0CF
:100C8C00FB689B00BA68134400221A60FB680133AE
:100C9C00FB60FA687B689A42F2D3BFF35F8F00BFA8
:100CAC001437BD4680BC70475400002080B500AF9F
:100CBC00FFF73EFFFFF714FC0120FFF7A1FFFFF742
:100CCC00BDFFFFF7CFFF000080B500AFFFF730FF8F
:100CDC00FFF706FC094B1B6803F08003002B05D0C3
:100CEC00064B1B68054A43F4000313600220FFF710
:100CFC0087FFFFF7A3FFFFF7B5FF00BF0810024007
:100D0C001EF0040F0CBFEFF30880EFF3098071465F
:100D1C0000F002B800BF000080B582B000AF786070
:100D2C003960FFF705FFFFF7DBFB0320FFF768FFD8
:100D3C00144A3B68D3607B68002B1FD07B681B6810
:100D4C00104AD3627B685B680E4A13637B689B68AE
:100D5C000C4A53637B68DB680A4A93637B681B69A4
:100D6C00084AD3637B685B69064A13647B689B699A
:100D7C00044A53647B68DB69024A9364FFF75EFFA5
:100D8C00FFF770FF5400002080B483B000AF0F4B0E
:100D9C001B680E4A43F0100313600C4B1B680C4B82
:100DAC004FF400521A600B4B1B687B607B6823F47A
:100DBC0070037B607B6843F400137B60054A7B689F
:100DCC00136000BF0C37BD4680BC70471810024042
:100DDC00101001400410014080B400AF034B4FF0E1
:100DEC0000521A6000BFBD4680BC70471010014015
:100DFC0080B400AF034B4FF400521A6000BFBD46E5
:100E0C0080BC70471010014080B500AF064B1B68CA
:100E1C0003F40053002B02D1FFF7EAFF01E0FFF7C8
:100E2C00DBFF00BF80BD00BF0C10014080B487B059
:100E3C0000AF7860244B00221A607B68002B01D134
:100E4C0001233CE07A68214BA3FB02139B094FF46E
:100E5C007A7101FB03F3D31A002B01D001232EE08E
:100E6C007B681A4AA2FB03239B097B617B69002BDD
:100E7C0003D07B69B3F1807F01D902231FE07B692A
:100E8C00013B3B61124B00221A60124A3B6923F072
:100E9C007F431360104B00221A60104B1B68FB60E1
:100EAC00FB6823F07F43FB60FB6843F07043FB60FF
:100EBC000A4AFB681360044B07221A600023184689
:100ECC001C37BD4680BC704710E000E0D34D62106B
:100EDC00A000002014E000E018E000E020ED00E0AD
:100EEC0080B400AF024B1B681846BD4680BC7047EF
:100EFC00A000002080B400AF044B1B680133034AF0
:100F0C00136000BFBD4680BC704700BFA00000202E
:100F1C0080B483B000AF00237B600AE00E4B1B68EB
:100F2C0003F08003002B01D001230FE07B68013319
:100F3C007B607B68094A9342F0D9074B1B6803F02E
:100F4C008003002B14BF01230023DBB218460C379F
:100F5C00BD4680BC704700BF003801409F86010031
:100F6C0080B584B000AF78603960384B00221A70BD
:100F7C007B68002B02D03B68002B01D1012361E080
:100F8C003B685A087B681A443B68B2FBF3F3FB607E
:100F9C00FB680F2B03D9FB68B3F5803F01D3022309
:100FAC0050E02B4B1B682A4A43F4804343F0040364
:100FBC001360274B1B68274B1B68BB60BB6823F077
:100FCC00F003BB60BB6843F0A003BB60214ABB6865
:100FDC001360214B00221A60204B00221A60204B18
:100FEC0000221A601C4B4FF400521A601D4AFB6819
:100FFC001360194B42F208021A60164B1B6803F07F
:10100C00F003A02B15D1174B1B68FA689A4210D12C
:10101C00114B1A6842F20803134042F20802934241
:10102C0007D1FFF775FF034683F00103DBB2002BFA
:10103C0004D0094B00221A60032303E0034B012266
:10104C001A70002318461037BD4680BDA40000203E
:10105C0018100240040801400C38014010380140BF
:10106C00143801400838014080B582B000AF034607
:10107C00FB710C4B1B7883F00103DBB2002B07D107
:10108C00FFF746FF034683F00103DBB2002B01D0D0
:10109C00002303E0044AFB79136001231846083748
:1010AC00BD4680BDA40000200438014080B582B04C
:1010BC0000AF78607B68002B11D1002314E07B68B3
:1010CC001B781846FFF7D0FF034683F00103DBB211
:1010DC00002B01D0002307E07B6801337B607B6829
:1010EC001B78002BEBD1012318460837BD4680BD79
:1010FC0080B582B000AF78607868FFF7D7FF034601
:10110C0083F00103DBB2002B01D0002303E0044881
:10111C00FFF7CCFF034618460837BD4680BD00BF1D
:10112C006813000880B586B000AF78607B68002B30
:10113C0004D13020FFF798FF034639E000237B6190
:10114C001BE079681C4BA3FB0123DA0813469B00B8
:10115C0013445B00CA1AD3B23033D9B207F1080278
:10116C007B6913440A461A707B6901337B617B6887
:10117C00114AA2FB0323DB087B607B68002BE0D1C8
:10118C0012E07B69013B7B6107F108027B69134428
:10119C001B781846FFF768FF034683F00103DBB2A8
:1011AC00002B01D0002303E07B69002BE9D1012344
:1011BC0018461837BD4680BDCDCCCCCC0D0A0000EE
:1011CC005B424F4F545D204D6F746F72206E6F6495
:1011DC0065207374617274696E6700005B434C4FD9
:1011EC00434B5D20496E697469616C697A617469FD
:1011FC006F6E204F4B00000020487A005B434C4F31
:10120C00434B5D20535953434C4B203D2000000071
:10121C005B434C4F434B5D2048434C4B2020203DBF
:10122C00200000005B434C4F434B5D2050434C4B24
:10123C003120203D200000005B434C4F434B5D2090
:10124C0050434C4B3220203D200000005B45525255
:10125C004F525D204D6F746F72206F757470757482
:10126C007320617265206E6F742073616665000077
:10127C005B534146455D204D6F746F72206F7574E2
:10128C007075747320617265204C4F57000000001C
:10129C005B4552524F525D205379735469636B20F6
:1012AC00696E697469616C697A6174696F6E2066C4
:1012BC0061696C65640000005B54494D455D2053C9
:1012CC0079735469636B20696E697469616C697AAE
:1012DC00656400005B4552524F525D204661696C5B
:1012EC00656420746F20656E7465722044495341A7
:1012FC00524D4544000000005B53544154455D2061
:10130C00456E74657265642044495341524D4544A1
:10131C00000000005B52454144595D204D61696EEF
:10132C00206C6F6F702073746172746564000000C0
:10133C005B4552524F525D2044495341524D4544F6
:10134C002073616665747920656E666F7263656D76
:10135C00656E74206661696C656400000D0A00009E
:04136C0030780000D5
:1013700000127A0000127A0000127A0000127A003D
:0413800000093D0023
:04000005080007F9EF
:00000001FF
