:020000040800F2
:1000000000500020E1040008BD090008F5090008BF
:10001000590300086103000869030008000000009C
:100020000000000000000000000000007103000854
:10003000790300080000000081030008E90B0008B4
:10004000890300089103000899030008A103000830
:10005000A9030008B1030008B9030008C1030008A0
:10006000C9030008D1030008D9030008E103000810
:10007000E9030008F1030008F9030008010400087F
:1000800009040008110400081904000821040008EC
:10009000290400083104000839040008410400085C
:1000A00049040008510400085904000861040008CC
:1000B000690400087104000879040008810400083C
:1000C000890400089104000899040008A1040008AC
:1000D000A9040008B1040008B9040008C10400081C
:0C00E000C9040008D1040008D90400087D
:1000EC0080B582B000AF00F0D3F800F033FC00F024
:1000FC00F1F8034683F00103DBB2002B01D000BF03
:10010C00FDE700F0B5FC00F0C9FA03461A46324B85
:10011C001A7000F04FFB0346304A136000F054FB9A
:10012C0003462F4A136000F059FB03462D4A136017
:10013C0000F05EFB03462C4A136000F063FB0346A1
:10014C002A4A1360244B1B78DBB2002B03D000F03F
:10015C009FF800BFFDE700F0F3F800F0BBF8034692
:10016C00002B01D0012300E00023214A1360204B17
:10017C001B68002B03D100F08BF800BFFDE700F0EB
:10018C0023FB0346184600F0C5FC03461A46194BE0
:10019C001A70184B1B78DBB2002B05D000F078F8E6
:1001AC0000F09AFC00BFFDE7134B01221A6000F02F
:1001BC0087FC00F009FD786000F006FD38603A68B5
:1001CC007B68D31AB3F5FA7F03D33B687B6000F0EE
:1001DC008FFC00BFF0E700BF1400002018000020C7
:1001EC001C000020200000202400002028000020FB
:1001FC0038000020300000202C00002080B400AF1C
:10020C00054B1B68044A43F00C031360024B1B683C
:10021C0000BFBD4680BC70471810024080B400AFD0
:10022C00054B4FF440021A60044B4FF440321A60F5
:10023C0000BFBD4680BC704710080140100C014047
:10024C0080B483B000AF104B1B687B600F4B1B68F6
:10025C003B607B6823F07F437B607B6843F00853F3
:10026C007B60094A7B6813603B6823F0FF033B60AB
:10027C003B6843F022033B60044A3B68136000BFB9
:10028C000C37BD4680BC704700080140000C014093
:10029C0080B500AF0D4B01221A600D4B00221A6085
:1002AC00FFF7ACFFFFF7BAFFFFF7CAFFFFF7B6FF88
:1002BC00BFF34F8F00F00EF80346002B01D0012343
:1002CC0000E00023024A136000BF80BD3400002010
:1002DC003800002080B485B000AF154B1B6803F0CC
:1002EC007F43FB60134B1B68DBB2BB60124B1B687C
:1002FC0003F0C0037B60114B1B6803F003033B60EE
:10030C00FB68B3F1085F0AD1BB68222B07D17B686D
:10031C00002B04D13B68002B01D1012300E000230A
:10032C0003F00103DBB218461437BD4680BC70479E
:10033C0000080140000C01400C0801400C0C01406D
:10034C0080B400AF00BFBD4680BC704780B500AF25
:10035C0000F020FB80B500AF00F01CFB80B500AFB7
:10036C0000F018FB80B500AF00F014FB80B500AFB7
:10037C0000F010FB80B500AF00F00CFB80B500AFB7
:10038C0000F008FB80B500AF00F004FB80B500AFB7
:10039C0000F000FB80B500AF00F0FCFA80B500AFB8
:1003AC0000F0F8FA80B500AF00F0F4FA80B500AFB9
:1003BC0000F0F0FA80B500AF00F0ECFA80B500AFB9
:1003CC0000F0E8FA80B500AF00F0E4FA80B500AFB9
:1003DC0000F0E0FA80B500AF00F0DCFA80B500AFB9
:1003EC0000F0D8FA80B500AF00F0D4FA80B500AFB9
:1003FC0000F0D0FA80B500AF00F0CCFA80B500AFB9
:10040C0000F0C8FA80B500AF00F0C4FA80B500AFB8
:10041C0000F0C0FA80B500AF00F0BCFA80B500AFB8
:10042C0000F0B8FA80B500AF00F0B4FA80B500AFB8
:10043C0000F0B0FA80B500AF00F0ACFA80B500AFB8
:10044C0000F0A8FA80B500AF00F0A4FA80B500AFB8
:10045C0000F0A0FA80B500AF00F09CFA80B500AFB8
:10046C0000F098FA80B500AF00F094FA80B500AFB8
:10047C0000F090FA80B500AF00F08CFA80B500AFB8
:10048C0000F088FA80B500AF00F084FA80B500AFB8
:10049C0000F080FA80B500AF00F07CFA80B500AFB8
:1004AC0000F078FA80B500AF00F074FA80B500AFB8
:1004BC0000F070FA80B500AF00F06CFA80B500AFB8
:1004CC0000F068FA80B500AF00F064FA80B500AFB8
:1004DC0000F060FA80B582B000AF124B7B60124B1B
:1004EC003B6009E07B681A683B681A607B680433E0
:1004FC007B603B6804333B603B680C4A9342F1D30E
:10050C000B4B3B6005E03B6800221A603B680433F0
:10051C003B603B68074A9342F5D3FFF7E1FD00F0DF
:10052C0039FA00BF040C0008000000201400002061
:10053C00140000208C00002080B487B000AFF8605D
:10054C00B9607A6000237B610BE0FB681A68BB68BA
:10055C0013407A689A4201D1012310E07B69013380
:10056C007B617B69084A9342EFD9FB681A68BB68C8
:10057C0013407A689A420CBF01230023DBB2184661
:10058C001C37BD4680BC70473F420F0080B400AFA3
:10059C00094B0A4A1A600A4B084A1A60094B074A67
:1005AC001A60094B054A1A60084B094A1A6000BFC9
:1005BC00BD4680BC704700BF0000002000127A00CE
:1005CC0004000020080000200C0000201000002077
:1005DC0000093D0080B584B000AF0346FB712C4B85
:1005EC001B682B4A43F001031360022202212848A6
:1005FC00FFF7A2FF034683F00103DBB2002B01D00F
:10060C00042341E0224B5B68214A23F0030353602F
:10061C0000220C211F48FFF78FFF034683F00103D4
:10062C00DBB2002B01D004232EE0194B1B68184AB7
:10063C0023F08073136000224FF000711448FFF711
:10064C007BFF034683F00103DBB2002B01D00423B4
:10065C001AE00F4B1B680E4A23F4803313600C4BCB
:10066C005B68FB60FB6823F47F4323F0F003FB60C3
:10067C00074AFB685360084B1B68074A23F00703C3
:10068C001360FFF783FFFB7918461037BD4680BD1A
:10069C0000100240041002400020024080B582B0DD
:1006AC0000AFFFF773FF374B1B68364A43F48033B8
:1006BC0013604FF400324FF400313248FFF73CFF27
:1006CC00034683F00103DBB2002B04D00120FFF7BB
:1006DC0081FF034652E02C4B12221A60294B5B68B7
:1006EC007B607A68294B13407B607B6843F4EC1386
:1006FC0043F480637B60234A7B685360214B1B6807
:10070C00204A43F0807313604FF000724FF0007179
:10071C001C48FFF711FF034683F00103DBB2002BEB
:10072C0004D00220FFF756FF034627E0154B5B6809
:10073C0023F00303134A43F00203536008220C21F5
:10074C001348FFF7F9FE034683F00103DBB2002BDD
:10075C0004D00320FFF73EFF03460FE00D4B0E4A7B
:10076C001A600E4B0C4A1A600D4B0E4A1A600E4B57
:10077C00094A1A600D4B0E4A1A60002318460837B6
:10078C00BD4680BD00100240002002400C00C0FF9E
:10079C00041002400000002000A24A0404000020C3
:1007AC0008000020005125020C0000201000002041
:1007BC00001BB70080B400AF024B1B681846BD4647
:1007CC0080BC70470000002080B400AF024B1B6857
:1007DC001846BD4680BC70470400002080B400AFB2
:1007EC00024B1B681846BD4680BC704708000020B1
:1007FC0080B400AF024B1B681846BD4680BC7047E6
:10080C000C00002080B400AF024B1B681846BD469C
:10081C0080BC70471000002080B400AF72B600BFDF
:10082C00BD4680BC704780B483B000AFEFF3058346
:10083C007B607B68C3F3080318460C37BD4680BC4D
:10084C007047000080B400AF0D4B0022DA620C4BF5
:10085C0000221A630A4B00225A63094B00229A6346
:10086C00074B0022DA63064B00221A64044B002269
:10087C005A64034B00229A6400BFBD4680BC70478B
:10088C003C00002080B400AF0F4B1B680F4A136173
:10089C000F4B1B680D4A53610E4B1B680B4A93613F
:1008AC000D4B1B68094AD3610C4B1B68074A13623A
:1008BC000B4B1B68054A53620A4B1B68034A936235
:1008CC0000BFBD4680BC70472CED00E03C00002012
:1008DC0028ED00E024ED00E030ED00E034ED00E028
:1008EC0038ED00E03CED00E080B582B000AF03468F
:1008FC00FB710B4B00221A60FB79094A5360FFF71E
:10090C0092FF0346064A9360054B0022DA60FFF71C
:10091C00B9FFFFF797FF00BF0837BD4680BD00BF8A
:10092C003C00002080B400AFBFF35F8F054B064A3C
:10093C001A60BFF34F8FBFF36F8F00BFBD4680BCF3
:10094C00704700BF3C0000204C55414680B400AFBE
:10095C0000BFFDE780B485B000AF0D4BBB60132327
:10096C007B600023FB6008E0FB689B00BA681344C3
:10097C0000221A60FB680133FB60FA687B689A42BC
:10098C00F2D3BFF35F8F00BF1437BD4680BC7047F6
:10099C003C00002080B500AFFFF73EFFFFF778FC6E
:1009AC000120FFF7A1FFFFF7BDFFFFF7CFFF00000E
:1009BC0080B500AFFFF730FFFFF76AFC094B1B68EF
:1009CC0003F08003002B05D0064B1B68054A43F44B
:1009DC00000313600220FFF787FFFFF7A3FFFFF769
:1009EC00B5FF00BF081002401EF0040F0CBFEFF360
:1009FC000880EFF30980714600F002B800BF0000D8
:100A0C0080B582B000AF78603960FFF705FFFFF763
:100A1C003FFC0320FFF768FF144A3B68D3607B68F8
:100A2C00002B1FD07B681B68104AD3627B685B6805
:100A3C000E4A13637B689B680C4A53637B68DB68C4
:100A4C000A4A93637B681B69084AD3637B685B69BA
:100A5C00064A13647B689B69044A53647B68DB69B0
:100A6C00024A9364FFF75EFFFFF770FF3C00002023
:100A7C0080B483B000AF0F4B1B680E4A43F01003D9
:100A8C0013600C4B1B680C4B4FF400521A600B4B51
:100A9C001B687B607B6823F470037B607B6843F48A
:100AAC0000137B60054A7B68136000BF0C37BD46A2
:100ABC0080BC704718100240101001400410014017
:100ACC0080B400AF034B4FF000521A6000BFBD461C
:100ADC0080BC70471010014080B400AF034B4FF442
:100AEC0000521A6000BFBD4680BC70471010014018
:100AFC0080B500AF064B1B6803F40053002B02D1EA
:100B0C00FFF7EAFF01E0FFF7DBFF00BF80BD00BF8E
:100B1C000C10014080B487B000AF7860244B0022E9
:100B2C001A607B68002B01D101233CE07A68214BD1
:100B3C00A3FB02139B094FF47A7101FB03F3D31A45
:100B4C00002B01D001232EE07B681A4AA2FB032361
:100B5C009B097B617B69002B03D07B69B3F1807FA0
:100B6C0001D902231FE07B69013B3B61124B002240
:100B7C001A60124A3B6923F07F431360104B00222A
:100B8C001A60104B1B68FB60FB6823F07F43FB6013
:100B9C00FB6843F07043FB600A4AFB681360044B2C
:100BAC0007221A60002318461C37BD4680BC7047CC
:100BBC0010E000E0D34D62108800002014E000E04B
:100BCC0018E000E020ED00E080B400AF024B1B68A1
:100BDC001846BD4680BC70478800002080B400AF2A
:100BEC00044B1B680133034A136000BFBD4680BC35
:080BFC00704700BF88000020D3
:100C040000127A0000127A0000127A0000127A00B0
:040C140000093D0096
:04000005080004E10A
:00000001FF
