:020000040800F2
:1000000000500020650C000841110008791100081B
:10001000EB0A0008F30A0008FB0A000800000000D1
:10002000000000000000000000000000030B0008BA
:100030000B0B000800000000130B00086D130008F4
:100040001B0B0008230B00082B0B0008330B0008C8
:100050003B0B0008430B00084B0B0008530B000838
:100060005B0B0008630B00086B0B0008730B0008A8
:100070007B0B0008830B00088B0B0008930B000818
:100080009B0B000885210008A30B0008AB0B0008A0
:10009000B30B0008BB0B0008C30B0008CB0B000818
:1000A000D30B0008DB0B0008E30B0008EB0B000888
:1000B000F30B0008FB0B0008030C00080B0C0008F6
:1000C000130C00081B0C0008230C00082B0C000864
:1000D000330C00083B0C00080D220008430C0008FC
:0C00E0004B0C0008530C00085B0C0008DF
:1000EC0080B483B000AF0346FB71FB7983F001034E
:1000FC00DBB2002B02D0044B00221A6000BF0C377D
:10010C00BD4680BC704700BF3400002080B584B071
:10011C0000AFF860B9607A60F86801F0FDF9034649
:10012C001846FFF7DDFFB86801F032FA03461846AF
:10013C00FFF7D6FF786801F0EFF903461846FFF792
:10014C00CFFF054801F0E8F903461846FFF7C8FF52
:10015C0000BF1037BD4680BDEC24000880B582B0CE
:10016C0000AF78607B68002B67D0364801F0D4F97B
:10017C0003461846FFF7B4FF7B681B68184601F06E
:10018C0007FA03461846FFF7ABFF2F4801F0C4F9F6
:10019C0003461846FFF7A4FF7B689B88184601F0BE
:1001AC00F7F903461846FFF79BFF2C2001F092F954
:1001BC0003461846FFF794FF7B68DB88184601F06E
:1001CC00E7F903461846FFF78BFF2C2001F082F964
:1001DC0003461846FFF784FF7B681B89184601F01D
:1001EC00D7F903461846FFF77BFF2C2001F072F974
:1001FC0003461846FFF774FF7B685B89184601F0CD
:10020C00C7F903461846FFF76BFF104801F084F955
:10021C0003461846FFF764FF7B68DB68184601F05D
:10022C00B7F903461846FFF75BFF094801F074F96C
:10023C0003461846FFF754FF00E000BF0837BD46E1
:10024C0080BD00BFF024000800250008042500082C
:10025C00EC24000880B582B000AF786000F060FA42
:10026C0000F0FCFF064B1B78DBB2002B06D1786844
:10027C0001F074F903461846FFF732FF00BFFDE7A3
:10028C003100002080B58CB000AF00F049FA00F0CE
:10029C0023FF00F067FA034683F00103DBB2002B67
:1002AC0001D000BFFDE700F0A5FF00F0B9FD03464B
:1002BC001A46AB4B1A7000F03FFE0346A94A136076
:1002CC0000F044FE0346A84A136000F049FE0346C2
:1002DC00A64A136000F04EFE0346A54A136000F0D8
:1002EC0053FE0346A34A13609D4B1B78DBB2002BD5
:1002FC0003D000F015FA00BFFDE79D4B1B684FF4CF
:10030C00E131184601F062F803461A469A4B1A700E
:10031C00994B1B78DBB2002B01D1012300E00023A9
:10032C00964A1360944B1B78DBB2002B29D194486E
:10033C0001F014F903461846FFF7D2FE914801F07C
:10034C000DF903461846FFF7CBFE864B1B688E4A09
:10035C0019468E48FFF7DAFE834B1B688A4A19460A
:10036C008B48FFF7D3FE814B1B68874A1946894897
:10037C00FFF7CCFE7E4B1B68834A19468648FFF775
:10038C00C5FE00F0A6FB00F0EDF90346002B01D0F2
:10039C00012300E00023814A1360804B1B68002B73
:1003AC0002D17F48FFF756FF734B1B78DBB2002B53
:1003BC0006D17C4801F0D2F803461846FFF790FEB0
:1003CC0000F0C4FD0346184600F066FF03461A46CB
:1003DC00754B1A70744B1B78DBB2002B02D0734830
:1003EC00FFF738FF644B1B78DBB2002B06D170484B
:1003FC0001F0B4F803461846FFF772FE00F06EFAEF
:10040C00034683F00103DBB2002B02D06948FFF7EF
:10041C0021FF594B1B78DBB2002B06D1664801F04B
:10042C009DF803461846FFF75BFE01F027FA4F4B89
:10043C001868012300224FF4613101F05BFD034683
:10044C001A465E4B1A705D4B1B78DBB2002B02D048
:10045C005B48FFF7FFFE142001F05CFF034683F0BE
:10046C000103DBB2002B02D05648FFF7F3FE00234A
:10047C00BB62002387F827303F4B1B78DBB2002B85
:10048C001DD1514A4FF461315048FFF73FFE50489F
:10049C0001F064F803461846FFF722FE3A4A0A2197
:1004AC004C48FFF733FE4C4A14214C48FFF72EFE04
:1004BC004B4801F053F803461846FFF711FE494B21
:1004CC0001221A6000F0BEFE00F040FFF8622A4BD9
:1004DC001B78DBB2002B06D1434801F03FF80346F2
:1004EC001846FFF7FDFD00F05FFA034683F00103A9
:1004FC00DBB2002B02D03D48FFF7ACFE00F026FF2C
:10050C00386201F0E1FF0346FB77386A01F08AFF9D
:10051C000346BB77BB7F022B7AD1FB7F022B77D0B4
:10052C0001F0D6F9144B1B78DBB2002B06D1304806
:10053C0001F014F803461846FFF7D2FD00F092FACA
:10054C000346002B64D0012000F07CFA034683F0B4
:10055C000103DBB2002B4FD02648FFF77BFE00BF18
:10056C0014000020180000201C0000202000002097
:10057C00240000202800002031000020340000203E
:10058C000C250008282500084425000848250008EB
:10059C005C25000870250008842500084000002018
:1005AC0098250008BC25000830000020DC25000838
:1005BC0004260008202600085826000838000020D1
:1005CC0074260008A8260008D8260008E026000893
:1005DC000427000838270008582700085C27000863
:1005EC00802700082C000020B8270008D42700081A
:1005FC00082800083C280008224B1B78DBB2002B93
:10060C0006D1214800F0AAFF03461846FFF768FD03
:10061C00386A01F02FFAB861BB69002B26D03B1D5C
:10062C00184601F047FA0346002B1FD07B683A6945
:10063C001146184601F0B6FE124B1B78DBB2002BAC
:10064C0014D197F8273083F00103DBB2002B04D1CF
:10065C003A6ABB6AD31A632B08D93B1D1846FFF7BD
:10066C007DFD3B6ABB62012387F827303A6AFB6A3F
:10067C00D31AB3F5FA7F03D33B6AFB6200F0FAFDA1
:10068C0000BF30E7310000206C28000880B400AFB8
:10069C00054B1B68044A43F00C031360024B1B68A8
:1006AC0000BFBD4680BC70471810024080B400AF3C
:1006BC00054B4FF440021A60044B4FF440321A6061
:1006CC0000BFBD4680BC704710080140100C0140B3
:1006DC0080B483B000AF104B1B687B600F4B1B6862
:1006EC003B607B6823F07F437B607B6843F008535F
:1006FC007B60094A7B6813603B6823F0FF033B6017
:10070C003B6843F022033B60044A3B68136000BF24
:10071C000C37BD4680BC704700080140000C0140FE
:10072C0080B500AF0D4B01221A600D4B00221A60F0
:10073C00FFF7ACFFFFF7BAFFFFF7CAFFFFF7B6FFF3
:10074C00BFF34F8F00F00EF80346002B01D00123AE
:10075C0000E00023024A136000BF80BD3C00002073
:10076C004000002080B485B000AF154B1B6803F02F
:10077C007F43FB60134B1B68DBB2BB60124B1B68E7
:10078C0003F0C0037B60114B1B6803F003033B6059
:10079C00FB68B3F1085F0AD1BB68222B07D17B68D9
:1007AC00002B04D13B68002B01D1012300E0002376
:1007BC0003F00103DBB218461437BD4680BC70470A
:1007CC0000080140000C01400C0801400C0C0140D9
:1007DC0080B483B000AF0346FB71FB79002B01D1D1
:1007EC000323FB710A4B1B78DBB2022B0AD0084B9C
:1007FC0002221A70074AFB791370074B1B680133EE
:10080C00054A136000BF0C37BD4680BC704700BF63
:10081C0044000020450000207800002080B500AF87
:10082C00FFF77EFF0B4B1B6801330A4A1360FFF77F
:10083C0099FF034683F00103DBB2002B06D0064B75
:10084C001B680133044A1360002300E0012318469F
:10085C0080BD00BF4C0000205800002080B500AFC8
:10086C00FFF75EFF0B4B1B6801330A4A1360FFF75F
:10087C0079FF034683F00103DBB2002B06D0064B55
:10088C001B680133044A1360002300E0012318465F
:10089C0080BD00BF500000205C00002080B500AF80
:1008AC00FFF73EFF0B4B1B6801330A4A1360FFF73F
:1008BC0059FF034683F00103DBB2002B06D0064B35
:1008CC001B680133044A1360002300E0012318461F
:1008DC0080BD00BF540000206000002080B582B0B5
:1008EC0000AF224B00221A60214B00221A60214BD0
:1008FC0000221A60204B00221A60204B00221A6042
:10090C001F4B00221A601F4B00221A601E4B002244
:10091C001A601E4B00221A601D4B00221A601D4BE0
:10092C0000221A601C4B00221A601C4B00221A6019
:10093C001B4B00221A701B4B00221A70FFF76EFF24
:10094C000346FB71FB7983F00103DBB2002B04D06F
:10095C000220FFF73DFF002303E0044B01221A6045
:10096C00012318460837BD4680BD00BF4800002053
:10097C004C000020500000205400002058000020A3
:10098C005C00002060000020640000206800002053
:10099C006C00002070000020740000207800002003
:1009AC00440000204500002080B582B000AF224BEF
:1009BC001B68002B03D1FFF7B3FE002338E01F4B5D
:1009CC001B78DBB2022B24D0022B26DC002B02D0AE
:1009DC00012B0FD021E0FFF721FF0346FB71FB79C0
:1009EC0083F00103DBB2002B02D00220FFF7F0FEF4
:1009FC00FB791DE0FFF732FF0346FB71FB7983F0B7
:100A0C000103DBB2002B02D00220FFF7E1FEFB79E1
:100A1C000EE0FFF743FF03460AE0094B1B68013366
:100A2C00074A13600320FFF7D3FEFFF737FF034697
:100A3C0018460837BD4680BD480000204400002001
:100A4C006400002080B582B000AF0346FB71FB79D7
:100A5C001846FFF7BDFEFFF721FF0346184608377F
:100A6C00BD4680BD80B400AF094B1B68002B06D07F
:100A7C00084B1B78DBB2012B01D1012300E00023D2
:100A8C0003F00103DBB21846BD4680BC704700BFC3
:100A9C00480000204400002080B487B000AFF8600C
:100AAC00B9607A60FB687B61BB68FB7408E07B69AA
:100ABC00FA7C1A707B6901337B617B68013B7B603C
:100ACC007B68002BF3D1FB6818461C37BD4680BCF5
:100ADC00704780B400AF00BFBD4680BC704780B586
:100AEC0000AF00F019FB80B500AF00F015FB80B52E
:100AFC0000AF00F011FB80B500AF00F00DFB80B52E
:100B0C0000AF00F009FB80B500AF00F005FB80B52D
:100B1C0000AF00F001FB80B500AF00F0FDFA80B52E
:100B2C0000AF00F0F9FA80B500AF00F0F5FA80B52F
:100B3C0000AF00F0F1FA80B500AF00F0EDFA80B52F
:100B4C0000AF00F0E9FA80B500AF00F0E5FA80B52F
:100B5C0000AF00F0E1FA80B500AF00F0DDFA80B52F
:100B6C0000AF00F0D9FA80B500AF00F0D5FA80B52F
:100B7C0000AF00F0D1FA80B500AF00F0CDFA80B52F
:100B8C0000AF00F0C9FA80B500AF00F0C5FA80B52F
:100B9C0000AF00F0C1FA80B500AF00F0BDFA80B52F
:100BAC0000AF00F0B9FA80B500AF00F0B5FA80B52F
:100BBC0000AF00F0B1FA80B500AF00F0ADFA80B52F
:100BCC0000AF00F0A9FA80B500AF00F0A5FA80B52F
:100BDC0000AF00F0A1FA80B500AF00F09DFA80B52F
:100BEC0000AF00F099FA80B500AF00F095FA80B52F
:100BFC0000AF00F091FA80B500AF00F08DFA80B52F
:100C0C0000AF00F089FA80B500AF00F085FA80B52E
:100C1C0000AF00F081FA80B500AF00F07DFA80B52E
:100C2C0000AF00F079FA80B500AF00F075FA80B52E
:100C3C0000AF00F071FA80B500AF00F06DFA80B52E
:100C4C0000AF00F069FA80B500AF00F065FA80B52E
:100C5C0000AF00F061FA000080B582B000AF124B1B
:100C6C007B60124B3B6009E07B681A683B681A603A
:100C7C007B6804337B603B6804333B603B680C4A05
:100C8C009342F1D30B4B3B6005E03B6800221A60AA
:100C9C003B6804333B603B68074A9342F5D3FFF74C
:100CAC00F1FA00F039FA00BFA0280008000000207B
:100CBC0014000020140000205C02002080B487B0D7
:100CCC0000AFF860B9607A6000237B610BE0FB68D1
:100CDC001A68BB6813407A689A4201D1012310E06C
:100CEC007B6901337B617B69084A9342EFD9FB68CE
:100CFC001A68BB6813407A689A420CBF0123002320
:100D0C00DBB218461C37BD4680BC70473F420F0013
:100D1C0080B400AF094B0A4A1A600A4B084A1A60A1
:100D2C00094B074A1A60094B054A1A60084B094AD5
:100D3C001A6000BFBD4680BC704700BF0000002099
:100D4C0000127A0004000020080000200C00002093
:100D5C001000002000093D0080B584B000AF0346B0
:100D6C00FB712C4B1B682B4A43F0010313600222CE
:100D7C0002212848FFF7A2FF034683F00103DBB2F0
:100D8C00002B01D0042341E0224B5B68214A23F065
:100D9C000303536000220C211F48FFF78FFF03460B
:100DAC0083F00103DBB2002B01D004232EE0194B9E
:100DBC001B68184A23F08073136000224FF00071F7
:100DCC001448FFF77BFF034683F00103DBB2002BD3
:100DDC0001D004231AE00F4B1B680E4A23F4803316
:100DEC0013600C4B5B68FB60FB6823F47F4323F0C0
:100DFC00F003FB60074AFB685360084B1B68074A0B
:100E0C0023F007031360FFF783FFFB7918461037B5
:100E1C00BD4680BD0010024004100240002002407C
:100E2C0080B582B000AFFFF773FF374B1B68364AB3
:100E3C0043F4803313604FF400324FF400313248E6
:100E4C00FFF73CFF034683F00103DBB2002B04D019
:100E5C000120FFF781FF034652E02C4B12221A604F
:100E6C00294B5B687B607A68294B13407B607B68FD
:100E7C0043F4EC1343F480637B60234A7B68536038
:100E8C00214B1B68204A43F0807313604FF00072B3
:100E9C004FF000711C48FFF711FF034683F001036C
:100EAC00DBB2002B04D00220FFF756FF034627E0ED
:100EBC00154B5B6823F00303134A43F002035360A2
:100ECC0008220C211348FFF7F9FE034683F00103B7
:100EDC00DBB2002B04D00320FFF73EFF03460FE0EC
:100EEC000D4B0E4A1A600E4B0C4A1A600D4B0E4AF3
:100EFC001A600E4B094A1A600D4B0E4A1A600023F9
:100F0C0018460837BD4680BD001002400020024044
:100F1C000C00C0FF041002400000002000A24A0494
:100F2C000400002008000020005125020C000020C5
:100F3C0010000020001BB70080B400AF024B1B68F0
:100F4C001846BD4680BC70470000002080B400AF3E
:100F5C00024B1B681846BD4680BC7047040000203D
:100F6C0080B400AF024B1B681846BD4680BC70476E
:100F7C000800002080B400AF024B1B681846BD4629
:100F8C0080BC70470C00002080B400AF024B1B6883
:100F9C001846BD4680BC70471000002080B400AFDE
:100FAC0072B600BFBD4680BC704780B483B000AF42
:100FBC00EFF305837B607B68C3F3080318460C379B
:100FCC00BD4680BC7047000080B400AF0D4B0022C2
:100FDC00DA620C4B00221A630A4B00225A63094B4B
:100FEC0000229A63074B0022DA63064B00221A6434
:100FFC00044B00225A64034B00229A6400BFBD4686
:10100C0080BC70477C00002080B400AF0F4B1B6885
:10101C000F4A13610F4B1B680D4A53610E4B1B6833
:10102C000B4A93610D4B1B68094AD3610C4B1B682F
:10103C00074A13620B4B1B68054A53620A4B1B6829
:10104C00034A936200BFBD4680BC70472CED00E0A4
:10105C007C00002028ED00E024ED00E030ED00E005
:10106C0034ED00E038ED00E03CED00E080B582B0FE
:10107C0000AF0346FB710B4B00221A60FB79094A47
:10108C005360FFF792FF0346064A9360054B00221C
:10109C00DA60FFF7B9FFFFF797FF00BF0837BD46CF
:1010AC0080BD00BF7C00002080B400AFBFF35F8F19
:1010BC00054B064A1A60BFF34F8FBFF36F8F00BF0B
:1010CC00BD4680BC704700BF7C0000204C5541469B
:1010DC0080B400AF00BFFDE780B485B000AF0D4B0E
:1010EC00BB6013237B600023FB6008E0FB689B0064
:1010FC00BA68134400221A60FB680133FB60FA687B
:10110C007B689A42F2D3BFF35F8F00BF1437BD46A2
:10111C0080BC70477C00002080B500AFFFF73EFF1D
:10112C00FFF7FEFA0120FFF7A1FFFFF7BDFFFFF766
:10113C00CFFF000080B500AFFFF730FFFFF7F0FAEC
:10114C00094B1B6803F08003002B05D0064B1B6872
:10115C00054A43F4000313600220FFF787FFFFF7F3
:10116C00A3FFFFF7B5FF00BF081002401EF0040FED
:10117C000CBFEFF30880EFF30980714600F002B862
:10118C0000BF000080B582B000AF78603960FFF717
:10119C0005FFFFF7C5FA0320FFF768FF144A3B6809
:1011AC00D3607B68002B1FD07B681B68104AD3620E
:1011BC007B685B680E4A13637B689B680C4A5363BD
:1011CC007B68DB680A4A93637B681B69084AD363B4
:1011DC007B685B69064A13647B689B69044A5364A9
:1011EC007B68DB69024A9364FFF75EFFFFF770FFD1
:1011FC007C00002080B483B000AF0F4B1B680E4AFC
:10120C0043F0100313600C4B1B680C4B4FF4005253
:10121C001A600B4B1B687B607B6823F470037B604C
:10122C007B6843F400137B60054A7B68136000BF46
:10123C000C37BD4680BC704718100240101001409E
:10124C000410014080B400AF034B4FF000521A6001
:10125C0000BFBD4680BC70471010014080B400AF89
:10126C00034B4FF400521A6000BFBD4680BC704760
:10127C001010014080B500AF064B1B6803F40053FF
:10128C00002B02D1FFF7EAFF01E0FFF7DBFF00BF05
:10129C0080BD00BF0C10014080B487B000AF7860F7
:1012AC00244B00221A607B68002B01D101233CE007
:1012BC007A68214BA3FB02139B094FF47A7101FB53
:1012CC0003F3D31A002B01D001232EE07B681A4ABA
:1012DC00A2FB03239B097B617B69002B03D07B69F9
:1012EC00B3F1807F01D902231FE07B69013B3B6195
:1012FC00124B00221A60124A3B6923F07F431360A1
:10130C00104B00221A60104B1B68FB60FB6823F02B
:10131C007F43FB60FB6843F07043FB600A4AFB6849
:10132C001360044B07221A60002318461C37BD4675
:10133C0080BC704710E000E0D34D6210C800002064
:10134C0014E000E018E000E020ED00E080B400AF15
:10135C00024B1B681846BD4680BC7047C800002075
:10136C0080B400AF044B1B680133034A136000BF09
:10137C00BD4680BC704700BFC800002080B483B05D
:10138C0000AF00237B600AE00E4B1B6803F0800368
:10139C00002B01D001230FE07B6801337B607B685D
:1013AC00094A9342F0D9074B1B6803F08003002BCA
:1013BC0014BF01230023DBB218460C37BD4680BC9A
:1013CC00704700BF003801409F86010080B584B093
:1013DC0000AF78603960384B00221A707B68002BA4
:1013EC0002D03B68002B01D1012361E03B685A0815
:1013FC007B681A443B68B2FBF3F3FB60FB680F2B72
:10140C0003D9FB68B3F5803F01D3022350E02B4B8B
:10141C001B682A4A43F4804343F004031360274BB0
:10142C001B68274B1B68BB60BB6823F0F003BB60D9
:10143C00BB6843F0A003BB60214ABB681360214B1F
:10144C0000221A60204B00221A60204B00221A60E6
:10145C001C4B4FF400521A601D4AFB681360194B69
:10146C0042F208021A60164B1B6803F0F003A02B23
:10147C0015D1174B1B68FA689A4210D1114B1A6898
:10148C0042F20803134042F20802934207D1FFF7DD
:10149C0075FF034683F00103DBB2002B04D0094B2C
:1014AC0000221A60032303E0034B01221A7000236D
:1014BC0018461037BD4680BDCC00002018100240E5
:1014CC00040801400C380140103801401438014028
:1014DC000838014080B582B000AF0346FB710C4B5D
:1014EC001B7883F00103DBB2002B07D1FFF746FF1B
:1014FC00034683F00103DBB2002B01D0002303E091
:10150C00044AFB791360012318460837BD4680BD99
:10151C00CC0000200438014080B582B000AF786068
:10152C007B68002B11D1002314E07B681B781846D4
:10153C00FFF7D0FF034683F00103DBB2002B01D091
:10154C00002307E07B6801337B607B681B78002BF2
:10155C00EBD1012318460837BD4680BD80B582B05B
:10156C0000AF78607868FFF7D7FF034683F001037C
:10157C00DBB2002B01D0002303E00448FFF7CCFFC3
:10158C00034618460837BD4680BD00BF98280008A2
:10159C0080B586B000AF78607B68002B04D130201A
:1015AC00FFF798FF034639E000237B611BE0796865
:1015BC001C4BA3FB0123DA0813469B0013445B006E
:1015CC00CA1AD3B23033D9B207F108027B6913447B
:1015DC000A461A707B6901337B617B68114AA2FB56
:1015EC000323DB087B607B68002BE0D112E07B6976
:1015FC00013B7B6107F108027B6913441B78184699
:10160C00FFF768FF034683F00103DBB2002B01D028
:10161C00002303E07B69002BE9D10123184618371E
:10162C00BD4680BDCDCCCCCC80B400AF034B0022EA
:10163C001A6000BFBD4680BC704700BF4801002047
:10164C0080B584B000AF0123FB6030E0294AFB6811
:10165C0013441B78A52B27D1FB680133254AD35C97
:10166C005A2B21D1244B1A68FB68D31A7B600023B8
:10167C00BB600CE0FA68BB6813441E4AD15C1D4A7F
:10168C00BB6813440A461A70BB680133BB60BA6866
:10169C007B689A42EED3184A7B681360174BDB6B5E
:1016AC000133164AD36321E0FB680133FB60FB680E
:1016BC005A1C114B1B689A42C8D30F4B1B68002B4A
:1016CC0012D00D4B1B68013B0A4AD35CA52B0BD1E6
:1016DC00084BA5221A70084B01221A60074BDB6BD2
:1016EC000133064AD36301E0FFF79EFF1037BD4676
:1016FC0080BD00BF3401002048010020E400002020
:10170C0080B483B000AF0346FB71214B1B690133DE
:10171C001F4A1361FB79033B052B33D801A252F806
:10172C0023F000BF4917000855170008611700087F
:10173C006D1700087917000885170008144B5B69B2
:10174C000133134A53611EE0114B9B690133104A5C
:10175C00936118E00E4BDB6901330D4AD36112E043
:10176C000B4B1B6A01330A4A13620CE0084B5B6A91
:10177C000133074A536206E0054B9B6A0133044A66
:10178C00936200E000BF00BF0C37BD4680BC7047C1
:10179C00E400002080B485B000AF78603960154B50
:1017AC001B7883F00103DBB2002B07D03B68002BC6
:1017BC0002D03B6801221A60012316E00E4B1B6815
:1017CC007A68D31AFB603B68002B02D03B68FA683E
:1017DC001A60FB68002B04D0FB68002B01DB012393
:1017EC0000E0002303F00103DBB218461437BD46BA
:1017FC0080BC70474C01002050010020B0B489B06F
:10180C0000AF786039607B681B68FB607B689B88E5
:10181C003B827B68DB887B827B681B89BB827B6815
:10182C005B89FB823B68BB6101233B770F4B1D46F9
:10183C0007F10C040FCC0FC523682B600C4BDB6835
:10184C0001330B4AD3607B681B68094A5364084A0E
:10185C003B6893647B681B68064A1360064B012245
:10186C001A7000BF2437BD46B0BC7047D0000020B2
:10187C00E4000020500100204C01002080B59AB0FB
:10188C0000AF0E4B00221A600D4B00221A700D4B4C
:10189C0000221A600C4B1A460023136053609360AD
:1018AC00D3601361094B184650231A460021FFF7E9
:1018BC00F3F800BF6837BD4680BD00BF480100206B
:1018CC004C01002050010020D0000020E40000203A
:1018DC0080B400AF074B00221A70074B00221A602D
:1018EC00064B1B6C0133054A136400BFBD4680BC1C
:1018FC00704700BF4C01002050010020E400002084
:10190C0080B588B000AF03463960FB71554B1B683E
:10191C000133544A1360544B1B68002B11D1FB79D3
:10192C00A52B06D04F4B5B6801334E4A5360002306
:10193C0093E04E4AFB7913704B4B01221A60002343
:10194C008BE0494B1B68012B20D1FB795A2B07D11B
:10195C00464AFB795370444B02221A6000237CE008
:10196C00FB79A52B09D1414AFB7913703D4B5B6880
:10197C0001333C4A536000236FE03A4B5B680233FF
:10198C00384A5360FFF750FE002366E0364B1B6865
:10199C003649FA79CA54344B1B680133324A136006
:1019AC00314B1B68122B01D8002356E02D4B9B6842
:1019BC0001332C4A936007F110031A4613212B486C
:1019CC0000F04BF90346FB77FB7F002B07D0FB7F26
:1019DC001846FFF795FEFFF733FE00233DE03B6909
:1019EC0007F10C0211461846FFF7D4FE034683F0AC
:1019FC000103DBB2002B14D03B691A4AD364FB6899
:101A0C00002B05D1174BDB6A0133164AD36204E075
:101A1C00144B1B6B0133134A1363FFF705FE0023B2
:101A2C001BE0134B1B78002B0ED0FB68012B0BD942
:101A3C000C4B5B6B01330B4A53630A4B9A6BFB6881
:101A4C001344013B074A936307F1100339681846A6
:101A5C00FFF7D4FEFFF7E8FD012318462037BD46FB
:101A6C0080BD00BFE40000204801002034010020AC
:101A7C004C01002080B584B000AF78600023FB607F
:101A8C000AE0FB7A79681846FFF73AFF0346002B09
:101A9C0002D0FB680133FB6007F10B03184600F022
:101AAC0021FB0346002BECD1FB6818461037BD46D2
:101ABC0080BD000080B483B000AF78607B68002BE1
:101ACC0001D100232BE0184B1B7CDBB283F001030C
:101ADC00DBB2002B01D0002321E0134B1A687B688A
:101AEC001A60114B9B889AB27B689A800E4BDB88EC
:101AFC009AB27B68DA800C4B1B899AB27B681A818C
:101B0C00094B5B899AB27B685A81074BDA687B6810
:101B1C00DA60054B1B7CDAB27B681A740123184619
:101B2C000C37BD4680BC7047D000002080B483B019
:101B3C0000AF78607B681B781AB27B6801331B7826
:101B4C001BB21B021BB213431BB29BB218460C37C1
:101B5C00BD4680BC704780B483B000AF78607B68B2
:101B6C001B781A467B6801331B781B021A437B686F
:101B7C0002331B781B041A437B6803331B781B0648
:101B8C00134318460C37BD4680BC704780B483B0F5
:101B9C0000AF78607B68002B01D1002316E07B68D6
:101BAC009B88B3F57A7F10D87B68DB88B3F57A7F96
:101BBC000BD87B681B89B3F57A7F06D87B685B8969
:101BCC00B3F57A7F01D8012300E0002318460C37C7
:101BDC00BD4680BC704780B487B000AF7860396078
:101BEC004FF6FF73FB827B68002B04D13B68002B04
:101BFC0001D000232CE000233B6124E07A683B6990
:101C0C0013441B781B029AB2FB8A5340FB820023BD
:101C1C00FB6012E0B7F91630002B08DAFB8A5B0088
:101C2C009BB283F4815383F00103FB8202E0FB8AB5
:101C3C005B00FB82FB680133FB60FB68072BE9D977
:101C4C003B6901333B613A693B689A42D6D3FB8AC4
:101C5C0018461C37BD4680BC704790B589B000AFA4
:101C6C00F860B9607A60FB68002B02D07B68002BAF
:101C7C0001D101236FE0BB68132B01D002236AE072
:101C8C00FB681B78A52B04D1FB6801331B785A2BFE
:101C9C0001D003235FE0FB6802331B78012B01D0DA
:101CAC00042358E0FB6803331B78012B01D0052378
:101CBC0051E0FB6804331B780C2B01D006234AE05F
:101CCC00FB6811331846FFF731FF0346FB83FB68B3
:101CDC0002330F211846FFF77EFF0346BB83FA8BB6
:101CEC00BB8B9A4201D0072335E0FB6805331846BD
:101CFC00FFF731FF03463B61FB6809331846FFF7DA
:101D0C0015FF0346BB82FB680B331846FFF70EFF2B
:101D1C000346FB82FB680D331846FFF707FF0346AB
:101D2C003B83FB680F331846FFF700FF03467B83AA
:101D3C0007F110031846FFF729FF0346002B01D1CA
:101D4C00082308E07B681C4607F1100393E80700A2
:101D5C0084E80700002318462437BD4690BD80B4A4
:101D6C0083B000AFEFF3108372B67B607B681846CC
:101D7C000C37BD4680BC704780B483B000AF786030
:101D8C007B6803F00103002B00D162B600BF0C3757
:101D9C00BD4680BC7047000080B485B000AF0346E0
:101DAC000A46FB711346BB71144B1B68134A43F074
:101DBC0004031360114B1B68114B1B68FB60FB7910
:101DCC00002B07D0FB6823F47063FB60FB6843F4C3
:101DDC002063FB60BB79002B07D0FB6823F47043B6
:101DEC00FB60FB6843F48043FB60054AFB681360AF
:101DFC0000BF1437BD4680BC704700BF18100240AE
:101E0C000008014080B483B000AF03460A46FB7162
:101E1C001346BB71FB79002B08D00D4B1B6803F4E8
:101E2C007063B3F5206F01D000230CE0BB79002B5D
:101E3C0008D0074B1B6803F47043B3F5804F01D0F7
:101E4C00002300E0012318460C37BD4680BC7047C8
:101E5C000008014080B400AF144B1B68134A43F0D8
:101E6C0001031360114B1B68114B1B68104A23F0C4
:101E7C00010313600F4B4FF070621A600E4B0F4A48
:101E8C001A600F4B0F4A1A600F4B00221A60084B56
:101E9C0042F29A021A600D4BA0221A700C4B4FF4AE
:101EAC0000321A6000BFBD4680BC7047141002405F
:101EBC0080000240040002408800024004440040BC
:101ECC008C000240900100208400024011E400E0EC
:101EDC0000E100E080B400AF044B80221A70044B88
:101EEC0040221A6000BFBD4680BC704726E400E06B
:101EFC0004E100E080B596B000AFF860B96011461F
:101F0C001A460B46FB711346BB71694B00221A70C3
:101F1C00684B00221A70684B00221A70674B002223
:101F2C001A70FB68002B0ED0BB68002B0BD0FB7912
:101F3C0083F00103DBB2002B07D0BB7983F00103E4
:101F4C00DBB2002B01D00123AEE0BB685A08FB6862
:101F5C001A44BB68B2FBF3F3FB64FB6C0F2B03D985
:101F6C00FB6CB3F5803F01D302239DE0FFF7F7FE36
:101F7C00B864534B184638231A460021FEF78CFDE3
:101F8C004F4B01221A604F4B00221A804E4B0022FD
:101F9C001A80B86CFFF7F0FEBA79FB791146184637
:101FAC00FFF7FAFE494B1B68484A43F400331360B1
:101FBC00464B1B68464B00221A60464B00221A60A7
:101FCC00454B00221A60454AFB6C1360FB79002BD1
:101FDC0001D0FFF73FFFBB79002B01D0FFF77AFF51
:101FEC0000233B65FB79002B03D03B6D43F0800352
:101FFC003B65BB79002B03D03B6D43F001033B6584
:10200C00354A3B6D13604FF400537B65FB79002B15
:10201C0003D07B6D43F008037B65BB79002B03D0A9
:10202C007B6D43F024037B65294A7B6D1360BA7981
:10203C00FB7911461846FFF7E5FE034683F00103D2
:10204C00DBB2002B12D1254B1B68FA6C9A420DD1D6
:10205C001F4B1A687B6D13407A6D9A4206D11E4B4A
:10206C001A683B6D13403A6D9A4213D0184B0022FC
:10207C001A60184B00221A60174B00221A60FB7969
:10208C00002B05D0164B1B68154A23F00103136077
:10209C00032309E0074AFB791370074ABB791370D5
:1020AC00034B01221A70002318465837BD4680BDD9
:1020BC008C0100208D0100208E0100208F0100205A
:1020CC0054010020B0010020B20100201C1002407D
:1020DC000C440040104400401444004008440040AC
:1020EC008000024080B584B000AF78601D4B1B7837
:1020FC00DBB283F00103DBB2002B0AD11A4B1B7845
:10210C00DBB283F00103DBB2002B02D17B68002B26
:10211C0001D1002321E0FFF722FEF860134B1B884E
:10212C007B81134B1B889BB27A899A4204D1F86845
:10213C00FFF722FE002310E07B890E4AD25C7B68FD
:10214C001A707B8901339BB203F07F039AB2074B61
:10215C001A80F868FFF710FE012318461037BD46A9
:10216C0080BD00BF8C0100208E010020B201002038
:10217C00B0010020B401002080B483B000AF1B4B31
:10218C001B687B607B6803F00063002B12D0184B3C
:10219C001B68174A23F001031360164B4FF0706253
:1021AC001A60154B00221A70144B5B690133134AE9
:1021BC00536116E07B6803F00073002B11D00C4BBD
:1021CC001B680B4A23F0010313600A4B4FF070623B
:1021DC001A60094B00221A70084B9B680133074A9E
:1021EC0093600C37BD4680BC704700BF00000240B6
:1021FC0080000240040002408F01002054010020A6
:10220C0080B485B000AF3B4B1B68FB60FB6803F0F0
:10221C002F03002B64D0384B1B68FB72FB6803F058
:10222C000103002B04D0354B5B6A0133334A5362F4
:10223C00FB6803F00203002B04D0304B9B6A013384
:10224C002E4A9362FB6803F00403002B04D02B4B43
:10225C00DB6A0133294AD362FB6803F00803002BC5
:10226C0004D0264B1B6B0133244A1363FB6803F029
:10227C000F03002B36D1224B1B78DBB283F001030A
:10228C00DBB2002B30D11F4B1B78DBB283F0010388
:10229C00DBB2002B28D11C4B1B883B813B890133C3
:1022AC009BB203F07F03FB80184B1B889BB2FA8810
:1022BC009A4205D1114B1B6A0133104A136214E088
:1022CC003B891349FA7ACA540F4AFB8813800B4B8B
:1022DC00DB690133094AD361FB7A084A536304E092
:1022EC0000BF02E000BF00E000BF1437BD4680BC59
:1022FC00704700BF004400400444004054010020DB
:10230C008C0100208E010020B0010020B2010020C1
:10231C00B401002080B483B000AF7860174B00226A
:10232C001A70174B00221A60164B00221A60164BBB
:10233C0000221A60154B00221A60154B00221A60FD
:10234C00144B00221A60144B00221A60134B00220B
:10235C001A60134B00221A607B68002B01D10023FA
:10236C0006E0094A7B681360054B01221A600123C1
:10237C0018460C37BD4680BC704700BF34020020A5
:10238C00380200203C0200204002002044020020C1
:10239C00480200204C020020500200205402002071
:1023AC005802002080B483B000AF78603960154BC0
:1023BC001B68002B01D100231EE0134B1B78DBB2F2
:1023CC00022B04D1114B1B680133104A1360104AC5
:1023DC007B6813600F4A3B6813600F4B00221A6036
:1023EC000E4B01221A600E4B1B6801330C4A136012
:1023FC00054B01221A70012318460C37BD4680BCD0
:10240C00704700BF38020020340200205802002020
:10241C0044020020480200204C0200203C02002014
:10242C005002002080B485B000AF78601F4B1B6851
:10243C00002B06D11E4B00221A701D4B1B78DBB2F1
:10244C002EE01C4B1B68002B09D11B4B00221A6081
:10245C00174B00221A70164B1B78DBB220E0174B7F
:10246C001B687A68D31AFB60134AFB681360144B21
:10247C001B68FA689A420DD30D4B1B78DBB2022B0A
:10248C0004D0104B1B6801330E4A1360084B022218
:10249C001A7002E0064B01221A70054B1B78DBB256
:1024AC0018461437BD4680BC704700BF3802002068
:1024BC00340200203C0200204C0200204802002084
:1024CC00400200205402002080B400AF034B1B7864
:1024DC00DBB21846BD4680BC704700BF34020020FA
:1024EC000D0A00005B4D4F544F522052585D207323
:1024FC0065713D00204D3D002072785F6D733D008D
:10250C005B424F4F545D204D6F746F72206E6F6441
:10251C0065207374617274696E6700005B434C4F85
:10252C00434B5D20496E697469616C697A617469A9
:10253C006F6E204F4B00000020487A005B434C4FDD
:10254C00434B5D20535953434C4B203D200000001E
:10255C005B434C4F434B5D2048434C4B2020203D6C
:10256C00200000005B434C4F434B5D2050434C4BD1
:10257C003120203D200000005B434C4F434B5D203D
:10258C0050434C4B3220203D200000005B45525202
:10259C004F525D204D6F746F72206F75747075742F
:1025AC007320617265206E6F742073616665000024
:1025BC005B534146455D204D6F746F72206F75748F
:1025CC007075747320617265204C4F5700000000C9
:1025DC005B4552524F525D205379735469636B20A3
:1025EC00696E697469616C697A6174696F6E206671
:1025FC0061696C65640000005B54494D455D205376
:10260C0079735469636B20696E697469616C697A5A
:10261C00656400005B4552524F525D204661696C07
:10262C00656420746F20696E697469616C697A6580
:10263C00206D6F746F722D6E6F64652073616665AB
:10264C007479207374617465000000005B5354410D
:10265C0054455D20456E7465726564204449534150
:10266C00524D4544000000005B4552524F525D20D4
:10267C00555341525432206D6F746F722D636F6DD0
:10268C006D616E6420726563656976657220696E32
:10269C006974206661696C65640000005B45525288
:1026AC004F525D20436F6D6D616E64207761746372
:1026BC0068646F6720696E697469616C697A6174AA
:1026CC00696F6E206661696C6564000020626175DB
:1026DC00640000005B4C494E4B5D205553415254F5
:1026EC0032206D6F746F722D636F6D6D616E64202F
:1026FC005258203D200000005B4C494E4B5D20524F
:10270C006563656976652F76616C696461746520B3
:10271C006F6E6C793B2050574D2072656D61696E00
:10272C00732064697361626C656400005B4D4F5487
:10273C004F522052585D20555341525431206465FC
:10274C006275672072617465203D2000206D7300F6
:10275C005B5741544348444F475D2056616C696454
:10276C002D636F6D6D616E642074696D656F75742A
:10277C00203D20005B5741544348444F475D205750
:10278C00414954494E4720756E74696C20666972D4
:10279C00737420616363657074656420667265731D
:1027AC006820636F6D6D616E640000005B52454183
:1027BC0044595D204D61696E206C6F6F702073748D
:1027CC0061727465640000005B4552524F525D208B
:1027DC004D6F746F722D6E6F6465207374617465C8
:1027EC002073616665747920656E666F7263656DC2
:1027FC00656E74206661696C656400005B574154BA
:10280C004348444F475D20436F6D6D616E64207487
:10281C00696D656F75743B2073657175656E636565
:10282C0020686973746F7279207265736574000027
:10283C005B4552524F525D204641494C53414645EF
:10284C0020636F756C64206E6F7420766572696698
:10285C00792073616665206F7574707574730000F0
:10286C005B53544154455D20456E7465726564201C
:10287C004641494C534146453A20636F6D6D616E3C
:10288C00642074696D656F75740000000D0A00009A
:04289C003078000090
:1028A00000127A0000127A0000127A0000127A00F8
:0428B00000093D00DE
:0400000508000C657E
:00000001FF
